:100000000BC024C023C022C021C020C08BC01EC092
:100010001DC01CC01BC01AC011241FBECFEDCDBF18
:1000200010E0A0E6B0E0ECE4F4E003C0C89531963F
:100030000D92AE3BB107D1F710E0AEEBB0E001C0DE
:100040001D92AA3CB107E1F76CD1FEC1D9CF0000E7
:1000500090E0C198000087FF02C0C09A01C0C0981C
:10006000C19A9F5F983011F0880FF3CF0895DF9207
:10007000EF92FF920F931F93182FF62EE42ED22E9D
:10008000C298E5DF8F2DE3DF812FE1DF8E2DDFDFEB
:10009000812FDDDF8D2DDBDF812FD9DF802FD7DFB3
:1000A00084E088BB1F910F91FF90EF90DF9008953F
:1000B0000F931F9387E087BB89E060E070E040E02A
:1000C00050E020E030E000E010E0D1DF8AE060E0C6
:1000D00070E040E050E020E030E0C9DF8BE067E016
:1000E00070E047E050E027E030E007E010E0BFDFDD
:1000F0008CE061E070E041E050E021E030E001E0C0
:1001000010E0B5DF8FE060E070E040E050E020E01C
:1001100030E000E010E0ABDF1F910F91089581E027
:1001200083BF08951F920F920FB60F9211248F93E1
:100130009F93AF93BF938091BE009091BF00A09119
:10014000C000B091C1000196A11DB11D8093BE00F9
:100150009093BF00A093C000B093C100BF91AF9136
:100160009F918F910F900FBE0F901F90189582E076
:1001700089BF7894089586B3829586958695817017
:10018000089586B382958695869583708095817053
:100190000895C39A8AE18A95F1F788B318BA089549
:1001A000C39A8AE18A95F1F788B318BAB69BFECF55
:1001B00012BE1092BE001092BF001092C0001092AA
:1001C000C100B699FECF82B78093B80022B7809164
:1001D000BE009091BF00A091C000B091C100BA2FA5
:1001E000A92F982F8827820F911DA11DB11D8093E3
:1001F000C6009093C700A093C800B093C900609157
:10020000C6007091C7008091C8009091C90022ED8E
:1002100031E040E050E0F1D0842F952F622F732F12
:100220000895BEDF6093C2007093C3008093C40042
:100230009093C5008091C2009091C300A091C4002A
:10024000B091C50088539F4FAF4FBF4F8093B90007
:100250009093BA00A093BB00B093BC000895AF92F6
:10026000BF92CF92DF92EF92FF920F931F93CF93A3
:10027000DF93282F6AE0B5D0A92EBB2473E0AA0C27
:10028000BB1C7A95E1F780E690E0A80EB91E822F9C
:10029000A8D0A7D0C92EDD2453E0CC0CDD1C5A9584
:1002A000E1F7E0E6F0E0CE0EDF1E822F64E699D0A3
:1002B0006AE097D0E92EFF2443E0EE0CFF1C4A953C
:1002C000E1F7EE0EFF1EC0E0D0E0EC2FFD2FE05571
:1002D000FF4F6081EA2DFB2DEC0FFD1F4081EC2DBF
:1002E000FD2DEC0FFD1F2081EE2DFF2DEC0FFD1FCE
:1002F0000081EC2FFD2FEF5F8E2F70E050E030E09B
:1003000010E0B5DE2196C830D105F9F6DF91CF9126
:100310001F910F91FF90EF90DF90CF90BF90AF9023
:100320000895EF92FF920F931F93CF93DF93C0DE58
:10033000BB9A81E083BF82E089BF789472DFC8EC0A
:10034000D0E02EDF6093C2007093C3008093C4009E
:100350009093C5006091B9007091BA008091BB0084
:100360009091BC00E090C200F090C3000091C400E6
:100370001091C5002091B9003091BA004091BB00A6
:100380005091BC006E197F09800B910B36D02E7FE7
:1003900025363105A0F08091C2009091C300A09154
:1003A000C400B091C50088539F4FAF4FBF4F80939B
:1003B000B9009093BA00A093BB00B093BC008091A9
:1003C000B9009091BA00A091BB00B091BC0047DF8A
:1003D00080E197E2EC2FFD2F3197F1F70197D1F7EC
:1003E000B0CF991B79E004C0991F961708F0961BAF
:1003F000881F7A95C9F780950895A1E21A2EAA1B45
:10040000BB1BEA2FFB2F0DC0AA1FBB1FEE1FFF1F38
:10041000A217B307E407F50720F0A21BB30BE40B08
:10042000F50B661F771F881F991F1A9469F760954F
:10043000709580959095262F372F482F592F6A2F2A
:0C0440007B2F8E2F9F2F0895F894FFCF84
:10044C007CC6CEDEF6E67C00307030303030FC00FE
:10045C0078CC0C3860CCFC0078CC0C380CCC780008
:10046C001C3C6CCCFE0C1E00FCC0F80C0CCC7800B8
:10047C003860C0F8CCCC7800FCCC0C183030300094
:10048C0078CCCC78CCCC780078CCCC7C0C187000A8
:0E049C0000C6CC183066C60005C8000000007F
:00000001FF
