:100000000C943D000C945A000C945A000C945A0025
:100010000C945A000C945A000C945A000C945A00F8
:100020000C945A000C945A000C945A000C943E0202
:100030000C945A000C945A000C94780F0C945A00AB
:100040000C945A000C945A000C945A000C945A00C8
:100050000C945A000C945A000C945A000C945A00B8
:100060000C945A000C945A00252000636D20002047
:10007000003A20000A202020200011241FBECFEFCC
:10008000D8E0DEBFCDBF11E0A0E0B1E0E2EFF3E2E7
:1000900002C005900D92AC36B107D9F721E0ACE66D
:1000A000B1E001C01D92A038B207E1F70E94BA0F7B
:1000B0000C94F7110C940000000098E028980000C0
:1000C00087FF06C02A9A289A880F9150B9F7089599
:1000D0002A98F9CFFF920F931F93CF93DF93C82FE6
:1000E000F62E142FD22F29980E945C008F2D0E948B
:1000F0005C008C2F0E945C00812F0E945C008C2F82
:100100000E945C008D2F0E945C008C2F0E945C007E
:10011000802F0E945C0082E085B9DF91CF911F9112
:100120000F91FF9008950F931F9384B1876084B956
:1001300010E000E030E020E050E040E070E060E0FF
:1001400089E00E946A0030E020E050E040E070E08A
:1001500060E08AE00E946A0007E010E027E030E0FB
:1001600047E050E067E070E08BE00E946A0001E049
:1001700010E021E030E041E050E061E070E08CE030
:100180000E946A0010E000E030E020E050E040E033
:1001900070E060E08FE00E946A001F910F91089567
:1001A0000F931F93CF93C1E010E000E030E020E018
:1001B00050E040E070E060E08C2F0E946A00CF5F6A
:1001C000C93091F7CF911F910F910895CF93DF938D
:1001D000CDB7DEB72D970FB6F894DEBF0FBECDBFFB
:1001E000CE0101960E9408056AE070E00E9431107D
:1001F00070936E0160936D0180916D0190916E011D
:100200009C0150E040E02A873B874C875D87CA010C
:10021000B9010E944B0D8BE690E00E94350D809154
:100220006D0190916E012D960FB6F894DEBF0FBE52
:10023000CDBFDF91CF9108958F929F92BF92CF92C1
:10024000DF92EF92FF920F931F93CF93DF93CDB77F
:10025000DEB72A970FB6F894DEBF0FBECDBF7C0184
:10026000D62E80916C018F5F80936C01843121F4D4
:1002700010926C010E949300BFB6F89482E091E066
:100280009A8389832AE030E0C701B9010E943110C6
:1002900043E0880F991F4A95E1F7855F9E4F9C8345
:1002A0008B83CB01B9010E94311053E0880F991F55
:1002B0005A95E1F7855F9E4F9E838D83C70164E663
:1002C00070E00E943110CB01B9010E94311063E04F
:1002D000880F991F6A95E1F7855F9E4F98878F83F6
:1002E000C70168EE73E00E943110CB01B9010E9492
:1002F000311073E0880F991F7A95E1F7855F9E4F63
:100300009A87898781E0D11080E0C82ED12CCC0C4F
:10031000DD1C81E090E08C0F9D1FC80ED91EF12CD2
:10032000E12C4601D6011696ED91FC911797EE0D42
:10033000FF1D008110E01496ED91FC911597EE0DD4
:10034000FF1D208130E01296ED91FC91EE0DFF1D16
:10035000408150E0D401ED91FC91EE0DFF1D6081D4
:1003600070E081E08E0D0E946A00BFEFEB1AFB0A7D
:1003700088E0E816F104B1F6BFBE2A960FB6F894ED
:10038000DEBF0FBECDBFDF91CF911F910F91FF90C8
:10039000EF90DF90CF90BF909F908F900895D82FCF
:1003A000C92F60E08D2F9C2F0E941C012FEF89E642
:1003B00098E1215080409040E1F700C00000F1CF6B
:1003C00060E00E941C012FEF89E698E121508040F7
:1003D0009040E1F700C000000E94D0002FEF81EEB6
:1003E00094E0215080409040E1F700C00000089563
:1003F0008093B40008958BE08093810082EE94E0B6
:10040000909389008093880082E080936F00089524
:10041000539A83E28093B00081E08093B100109200
:10042000B40008950E940E0DE1ECF0E080818F7E13
:10043000808382E08AB90E94A30E0E944F0F0E941F
:10044000FB010E9408027894089590910101809127
:100450000101953610F4843128F4809100018195D2
:10046000809300018091000190910101890F809398
:100470000101809101018093B40008951F920F92B1
:100480000FB60F9211242F933F934F935F936F9367
:100490007F938F939F93AF93BF93EF93FF930E94AC
:1004A0002502FF91EF91BF91AF919F918F917F9125
:1004B0006F915F914F913F912F910F900FBE0F90D1
:1004C0001F9018950F931F930097B9F00197B0E014
:1004D000A0E050E040E08C019D010027012B022BA1
:1004E000032B39F0B695A795979587954F5F5F4F8A
:1004F000F2CF342F2227822B932B1F910F91089537
:10050000CF93DF93D82FC62F80910A010E94A90EA6
:100510008D2F0E940B0F8C2F0E940B0FDF91CF911C
:100520000C94FF0E1F93CF93DF93182FEB01809154
:100530000A010E94A90E812F0E940B0F8D2F0E948D
:100540000B0F8C2F0E940B0FDF91CF911F910C94FA
:10055000FF0EFF920F931F93CF93DF93F82EEA01C4
:10056000162F072F80910A010E94A90E8F2D0E943D
:100570000B0F802F0E940B0F812F0E940B0F8D2FCE
:100580000E940B0F8C2F0E940B0FDF91CF911F91B8
:100590000F91FF900C94FF0ECF93C82F80910A010A
:1005A0000E94A90E8C2F0E940B0F80910A0181607E
:1005B0000E94FD0E0E94320FC82F0E94FF0E8C2F4A
:1005C000CF910895CF93DF93C82F80910A010E94A5
:1005D000A90E8C2F0E940B0F80910A0181600E944E
:1005E000FD0E0E94220FC82FD0E0DC2FCC270E94E6
:1005F000320FC82B0E94FF0ECE01DF91CF910895DC
:10060000CF92DF92EF92FF92CF93DF9300D000D092
:10061000CDB7DEB7898380910A010E94A90E898136
:100620000E940B0F80910A0181600E94FD0E0E94C2
:10063000220F90E0B0E0A0E0F82EEE24DD24CC24E0
:100640000E94220FE82A0E94220F89830E94320F03
:10065000C82AD701C6012981922B89839A83AB834B
:10066000BC830E94FF0E69817A818B819C810F90EF
:100670000F900F900F90DF91CF91FF90EF90DF9050
:10068000CF900895FF920F931F93CF93DF93C82FBE
:10069000F62E072F142F80910A010E94A90E8C2F8D
:1006A0000E940B0F115040F0CF2DD02F89910E9446
:1006B0000B0FFC2E0D2FF6CFDF91CF911F910F91D5
:1006C000FF900C94FF0EEF92FF920F931F93CF9326
:1006D000DF93082FEB01142F80910A010E94A90ECD
:1006E000802F0E940B0F80910A0181600E94FD0EF5
:1006F000112379F07E018FEFE81AF80A123030F0FA
:100700000E94220F88831150E701F2CF0E94320F1E
:10071000F9CFDF91CF911F910F91FF90EF900C9443
:10072000FF0ECF93C82F682F66958AE80E9480023B
:10073000C0930A01CF91089580910A0108950F9303
:100740001F93CF93DF9300D000D000D0CDB7DEB79A
:100750008B018E839D8320E030E0A90169831A8399
:100760008B839C8369817A818B819C810E94891013
:1007700087FD2FC028EB3EEF4FEF53E469817A816C
:100780008B819C810E94471118161CF120E030E0FB
:1007900040E053E469817A818B819C810E944C11F5
:1007A00069837A838B839C8369817A818B819C8125
:1007B0000E948E1084E40E94920281E026960FB679
:1007C000F894DEBF0FBECDBFDF91CF911F910F9187
:1007D000089580E0F3CFCF93DF9300D000D0CDB762
:1007E000DEB784E40E94E2029C0150E040E02983ED
:1007F0003A834B835C83CA01B9010E94BD1020E09B
:1008000030E040E05CE369837A838B839C83698179
:100810007A818B819C810E944C1169837A838B83BE
:100820009C8369817A818B819C810F900F900F90BE
:100830000F90DF91CF9108959C0180E5211531053E
:1008400021F02130310531F480E70E94CC028F5F26
:10085000880F08958FEF0895CF92DF92EF92FF9265
:100860006B017C0161E080E80E94800261E08FEF13
:100870000E94800260E080E00E9480026091750129
:1008800081E90E94800261E080E00E94800260E0D5
:100890008FEF0E94800260E080E80E94800262E0A8
:1008A000C114D104E104F10491F088EF0E94E20246
:1008B000DC01892B31F0A70196010E9467106B01C2
:1008C0007C01B701A60184E00E94A90264E080E0F7
:1008D000FF90EF90DF90CF900C94800261E080E079
:1008E0000E94800261E08FEF0E94800260E080E061
:1008F0000E94800260E081E90E94800261E080E065
:100900000E94800260E08FEF0C948002EF92FF92D1
:100910000F931F93CF93DF93CDB7DEB760970FB6DA
:10092000F894DEBF0FBECDBF7C010E94580F7093BC
:1009300077016093760183E10E94CC02877079F59C
:100940008091790190917A01892BA9F30E94580F27
:100950006D877E878F87988B809176019091770144
:100960002D853E85281B390BC901209179013091D5
:100970007A0128173907F8F681E0809378010FEFA4
:100980001FEFC80160960FB6F894DEBF0FBECDBF53
:10099000DF91CF911F910F91FF90EF900895E11497
:1009A000F10449F48EE10E94E2028C0161E08BE0E7
:1009B0000E948002E6CF4CE0BE016F5F7F4F84E172
:1009C0000E946303898190E023E0959587952A959D
:1009D000E1F7F70180878B819C81982789279827E9
:1009E000978386838F819885982789279827938373
:1009F000828389859A859827892798279583848378
:100A00000B851C8510270127102711830083CECF6B
:100A1000CF93DF9300D000D000D0CDB7DEB78E8368
:100A20009D8361E080E80E94800261E08FEF0E9478
:100A3000800260E080E00E9480026091750181E99F
:100A40000E94800261E080E00E94800260E08FEFFF
:100A50000E94800260E080E80E94800261E080E005
:100A60000E9480020E94580F709377016093760174
:100A700080E00E94CC0280FF2AC080917901909191
:100A80007A01892BA9F30E94580F69837A838B839B
:100A90009C83809176019091770129813A81281B6E
:100AA000390BC9012091790130917A012817390752
:100AB000F8F681E0809378018FEF9FEF26960FB6CE
:100AC000F894DEBF0FBECDBFDF91CF9108958E8128
:100AD0009D8126960FB6F894DEBF0FBECDBFDF9185
:100AE000CF910C948604809178011092780108953A
:100AF00090937A0180937901089580917901909182
:100B00007A010895EF92FF920F931F93CF93DF9393
:100B100000D000D00F92CDB7DEB77C018B0161E031
:100B200080E80E94800261E08FEF0E94800260E016
:100B300080E00E94800266E08FEF0E94800283E8DE
:100B40000E94CC02682F646083E80E94800267E004
:100B50008FEF0E94800261E081E80E94800261E0E4
:100B600080E80E9480026BE684E90E94800260E0D7
:100B700083E80E9480020E94580F7093770160936F
:100B8000760183E80E94CC028D83811129C0809177
:100B9000790190917A01892BA1F30E94580F698302
:100BA0007A838B839C838091760190917701298150
:100BB0003A81281B390BC9012091790130917A01C2
:100BC00028173907F0F68D810F900F900F900F9036
:100BD0000F90DF91CF911F910F91FF90EF900895AB
:100BE00061E083E80E94800282E90E94CC02982F93
:100BF0009F77F7019083881F8827881FF8018083DB
:100C000060E081E80E94800266E08FEF0E9480022F
:100C100083E80E94CC02682F6B7F83E80E948002E9
:100C200061E08FEF0E94800261E080E00E9480021C
:100C300060E08FEF0E94800260E080E80E94800206
:100C4000F1E0FD83C0CFCF93DF93EC0181E00E9400
:100C5000CC0284FB992790F9988383FB992790F91C
:100C60009A8382FB992790F9998386FB992790F9BB
:100C70009B83881F8827881F8C83DF91CF910895DD
:100C80004F925F926F927F928F929F92AF92BF929C
:100C9000EF92FF920F931F93CF93DF93CDB7DEB701
:100CA0002A970FB6F894DEBF0FBECDBF8C016987BF
:100CB0007A8790E080E00E941C0490E0A985BA85C4
:100CC0008D939C9386E40E94CC02E82EF12CBFEF1A
:100CD000EB1AFB0AE985FA85F582E482A081B0E08F
:100CE00020E03FE24AE350E00E946710DC01CB01C4
:100CF0008C509E4FAF4FBF4F89839A83AB83BC8389
:100D000038EE832E33E0932EA12CB12CBC01CD0103
:100D1000A50194010E944510D7010E9472106D83B5
:100D20007E838F83988740ED442E47E0542E612CBC
:100D3000712C69817A818B819C81A30192010E942F
:100D400045108D819E81AF81B885820F931FA41FAE
:100D5000B51F8D839E83AF83B887BC01CD01A501EC
:100D600094010E944510A985BA851A962D933D934A
:100D70004D935C931D9781E50E94E202E82EF12CD1
:100D800002C0EE0CFF1C9A95E2F7BFEFEB1AFB0ACC
:100D9000E985FA85F782E682A081B0E020E03FE2B3
:100DA0004AE350E00E946710DC01CB018C509E4F5B
:100DB000AF4FBF4F89839A83AB83BC83BC01CD0106
:100DC000A50194010E944510D7010E9467106D8310
:100DD0007E838F83988769817A818B819C81A3012F
:100DE00092010E9445108D819E81AF81B885820F4E
:100DF000931FA41FB51F8D839E83AF83B887BC014B
:100E0000CD01A50194010E944510A985BA851E96C1
:100E10002D933D934D935C93519780E70E94CC02B4
:100E20008F5F880F90E0E985FA859383828381E75D
:100E30000E94E202292F90E002C0880F991F2A9594
:100E4000E2F70196A985BA8519969C938E93189717
:100E5000F8012381222351F016962D913C9117978A
:100E6000821B930B19969C938E931897E985FA85AC
:100E7000A281B0E020E03FE24AE350E00E94671028
:100E8000DC01CB018C509E4FAF4FBF4F89839A83BB
:100E9000AB83BC8328EE822E23E0922EA12CB12CB2
:100EA000BC01CD01A50194010E944510E985FA8598
:100EB000A085B1850E9467106D837E838F8398879C
:100EC00069817A818B819C8120ED37E040E050E0A0
:100ED0000E9445108D819E81AF81B885820F931F3E
:100EE000A41FB51FBC01CD01A50194010E944510AE
:100EF000A985BA8552962D933D934D935C93559752
:100F00002A960FB6F894DEBF0FBECDBFDF91CF910A
:100F10001F910F91FF90EF90BF90AF909F908F9097
:100F20007F906F905F904F9008958F929F92AF92B5
:100F3000BF92CF92DF92EF92FF921F93CF93DF93F6
:100F4000CDB7DEB7A3970FB6F894DEBF0FBECDBF07
:100F50004B015C0120E282162EE49206A104B1044A
:100F600008F4CCC0CE0147960E942306BE016F5FF5
:100F70007F4FCE0147960E9440068F89882309F44F
:100F8000ABC08B859C85AD85BE858A5C944FAF4F89
:100F9000BF4F298D222309F4A4C04B855C856D8544
:100FA0007E854E545D4F6F4F7F4F440F551F661F18
:100FB000771F840F951FA61FB71F1A8D112361F08D
:100FC0004F85588969897A894C565D4F6F4F7F4F9D
:100FD000840F951FA61FB71F2B8D222309F469C00C
:100FE0006C017D0126E2C20E22E0D21EE11CF11C42
:100FF0008C149D04AE04BF0408F480C0AB81B0E043
:1010000020E03FE24AE350E00E946710DC01CB01A0
:101010008C509E4FAF4FBF4F8C8F9D8FAE8FBF8F29
:10102000A50194012C193D094E095F09A8EEB3E012
:101030000E94671068A379A38AA39BA36C8D7D8D02
:101040008E8D9F8D20ED37E040E050E00E944510EE
:1010500088A199A1AAA1BBA1820F931FA41FB51FAC
:1010600088A399A3AAA3BBA36C8D7D8D8E8D9F8D24
:1010700028EE33E040E050E00E94451068A179A1DD
:101080008AA19BA10E944510C901112321F08F81E3
:101090009885820F931F0E946202BC0181E70E9423
:1010A00092028092710190927201A0927301B092AB
:1010B000740181E0A3960FB6F894DEBF0FBECDBFDA
:1010C000DF91CF911F91FF90EF90DF90CF90BF9075
:1010D000AF909F908F90089588EE98E0A0E0B0E0E8
:1010E00058CF288D222309F468CF4B855C856D8508
:1010F0007E854C565D4F6F4F7F4F5BCF80E0DACFE0
:101100000F931F93CF93DF93CDB7DEB76B970FB6D7
:10111000F894DEBF0FBECDBFCE0147960E942306D6
:10112000BE016F5F7F4FCE0147960E9440068F89B8
:10113000882309F44DC06B857C858D859E856C5711
:10114000724F8F4F9F4F298D222309F446C00B8584
:101150001C852D853E850E541D4F2F4F3F4F000F90
:10116000111F221F331F600F711F821F931F2A8DB3
:10117000222361F00F85188929893A890C561D4F61
:101180002F4F3F4F600F711F821F931F2B8D222304
:1011900061F00B891C892D893E890A5D1D4F2F4FF7
:1011A0003F4F600F711F821F931F609371017093F7
:1011B000720180937301909374016B960FB6F8944B
:1011C000DEBF0FBECDBFDF91CF911F910F9108956C
:1011D00066E37BE080E090E0B6CF288D222339F2F1
:1011E0000B851C852D853E850C561D4F2F4F3F4F7F
:1011F000BACFCF93DF9300D000D00F92CDB7DEB738
:10120000682F616080E00E9480020E94580F7093F6
:1012100077016093760183E10E94CC0287708D8311
:10122000811125C08091790190917A01892B99F3E0
:101230000E94580F69837A838B839C838091760107
:101240009091770129813A81281B390BC90120919E
:10125000790130917A0128173907E8F68D810F90CE
:101260000F900F900F900F90DF91CF91089561E054
:101270008BE00E94800260E080E00E94800231E00A
:101280003D83ECCF0F931F93CF93DF93CDB7DEB7A2
:101290002C970FB6F894DEBF0FBECDBF882341F068
:1012A00089E80E94CC02682F616089E80E94800270
:1012B00060E088E80E94800261E080E80E9480028D
:1012C00061E08FEF0E94800260E080E00E94800277
:1012D00081E90E94CC028093750161E080E00E9468
:1012E000800260E08FEF0E94800260E080E80E9450
:1012F000800280E60E94CC02682F626180E60E9434
:10130000800260E270E084E40E9492026FEF81E06C
:101310000E948002BE01695F7F4FCE0108960E9445
:10132000820581110CC080E02C960FB6F894DEBFC8
:101330000FBECDBFDF91CF911F910F91089546E071
:10134000BE016F5F7F4F80EB0E94630361E08FEF10
:101350000E94800260E08FE40E9480026CE28EE4D2
:101360000E94800260E08FEF0E94800264EB86EBB7
:101370000E9480029F8191119CE0B88580E0A0E0EE
:1013800001E010E0482F46954695469550E021E053
:1013900030E02C0F3D1F240F351FF9012081682FED
:1013A0006770891710F0BA139FC1E1E0F0E0EC0F0D
:1013B000FD1F4E0F5F1FF80102C0EE0FFF1F6A9561
:1013C000E2F7BF0160952623FA0120838F5F803307
:1013D000C9F646E0BE016F5F7F4F80EB0E9442037B
:1013E00061E08FEF0E94800260E080E00E94800256
:1013F00060E08FEF0E94800260E089E00E9480023E
:1014000060E080E10E94800260E081E10E94800251
:1014100061E084E20E9480026FEF85E20E94800218
:1014200060E085E70E94800261E08FEF0E94800209
:101430006CE28EE40E94800260E088E40E948002F8
:1014400060E280E30E94800260E08FEF0E948002F1
:1014500069E080E30E94800260E084E50E948002EF
:1014600064E081E30E94800263E082E30E948002E4
:1014700063E880E40E94800265E286E40E948002C4
:1014800060E080E60E94800260E087E20E948002C5
:1014900066E080E50E94800260E081E50E948002B3
:1014A00066E982E50E94800268E086E50E9480028B
:1014B00060E387E50E94800260E081E60E9480028E
:1014C00060E082E60E94800260E084E60E94800282
:1014D00060E085E60E94800260EA86E60E94800263
:1014E00061E08FEF0E94800262E382E20E9480024C
:1014F00064E187E40E9480026FEF89E40E94800229
:1015000060E08AE40E94800260E08FEF0E94800227
:101510006AE08AE70E94800260E08BE70E94800216
:1015200061E288E70E94800261E08FEF0E94800202
:1015300064E383E20E94800260E082E40E94800211
:101540006FEF84E40E94800266E285E40E948002DC
:1015500065E086E40E94800260E480E40E948002EC
:1015600066E08EE00E9480026AE180E20E948002D2
:1015700060E483E40E94800260E08FEF0E948002BA
:1015800063E084E30E94800264E485E30E948002B9
:1015900061E08FEF0E94800264E081E30E9480029C
:1015A00069E08BE40E94800265E08CE40E94800286
:1015B00064E08DE40E94800260E08FEF0E94800270
:1015C00060E084E40E94800260E285E40E94800280
:1015D00068E087E40E94800268E288E40E9480025A
:1015E00060E087E60E94800264E080E70E9480025B
:1015F00061E081E70E9480026EEF82E70E94800234
:1016000060E086E70E94800260E087E70E94800237
:1016100061E08FEF0E94800261E08DE00E94800215
:1016200060E08FEF0E94800261E080E80E9480020B
:1016300068EF81E00E94800261E08FEF0E948002EB
:1016400061E08EE80E94800261E080E00E948002FA
:1016500060E08FEF0E94800260E080E80E948002DC
:1016600064E08AE00E94800284E80E94CC02682F35
:101670006F7E84E80E94800261E08BE00E9480021D
:101680000E948008609371017093720180937301CE
:101690009093740168EE81E00E9480028091710154
:1016A00090917201A0917301B0917401BC01CD01C0
:1016B0000E94950761E081E00E94800280E40E9420
:1016C000F908882309F42FCE62E081E00E948002AD
:1016D00080E00E94F908882309F425CE68EE81E0B5
:1016E0000E94800281E020CE30E002C0359527952F
:1016F0006A95E2F720FF6ACEAF5F68CE8F929F9225
:10170000AF92BF92CF92DF92EF92FF920F931F930F
:10171000CF93DF93CDB7DEB7A3970FB6F894DEBFB4
:101720000FBECDBF7C01162F062F06950150CE01AE
:1017300047960E942306BE016F5F7F4FCE014796FA
:101740000E944006E114F10409F0B3C0103109F41D
:10175000AEC040F41C3009F4A8C060E31E3029F08C
:1017600080E090C060E51231D9F787E50E948002E1
:1017700068E086E50E948002602F80E50E9480027A
:10178000A12FB0E020E03FE24AE350E00E94671062
:10179000DC01CB018C509E4FAF4FBF4F8C8F9D8F84
:1017A000AE8FBF8FBC01CD0128EE33E040E050E0AA
:1017B0000E94451049015A016C8D7D8D8E8D9F8D43
:1017C00020ED37E040E050E00E94451069017A01C9
:1017D0002F85388949895A89A8EEB3E00E9467109D
:1017E000DC01CB018C0D9D1DAE1DBF1D8C8F9D8F0F
:1017F000AE8FBF8FBC01CD01A50194010E944510A1
:10180000C9010E946202BC0181E50E9492022B85FF
:101810003C854D855E85A8EEB3E00E946710DC0133
:10182000CB018C0D9D1DAE1DBF1DBC01CD01A501C1
:1018300094010E944510213091E0390710F020E01A
:1018400031E06FEF620F86E40E94800280917101A7
:1018500090917201A0917301B0917401BC01CD010E
:101860000E94950781E00E94CC02182F62E081E07F
:101870000E94800280E00E94F908612F81E00E94AE
:10188000800281E0A3960FB6F894DEBF0FBECDBFF5
:10189000DF91CF911F910F91FF90EF90DF90CF904C
:1018A000BF90AF909F908F90089568E15ECF60E405
:1018B0005CCFEA94EF2809F053CF1C3009F4A0C0A4
:1018C000D8F4183051F11A3009F04ACF68E288E4B0
:1018D0000E94800268E087E40E94800263E082E365
:1018E0000E94800269E080E30E94800261E08FEF45
:1018F0000E94800260E226C01E3009F031CF68E409
:1019000088E40E94800268E087E40E94800263E02D
:1019100082E30E94800267E0E6CF60E188E40E94F3
:10192000800268E087E40E94800262E082E30E9415
:1019300080026CE080E30E94800261E08FEF0E94F1
:10194000800260E380E30E94800260E08FEF0E94EB
:101950008002602F80E70E948002A12FB0E020E08B
:101960003FE24AE350E00E946710DC01CB018C505B
:101970009E4FAF4FBF4F8C8F9D8FAE8FBF8F2B89E8
:101980003C894D895E89A8EEB3E00E94671068A388
:1019900079A38AA39BA36C8D7D8D8E8D9F8D20ED69
:1019A00037E040E050E00E94451088A199A1AAA12B
:1019B000BBA1820F931FA41FB51F88A399A3AAA33D
:1019C000BBA36C8D7D8D8E8D9F8D28EE33E040E026
:1019D00050E00E94451068A179A18AA19BA10E94B4
:1019E0004510C9016A8D662321F08F819885820F89
:1019F000931F0E946202BC0181E70E94920226CFDF
:101A000068E388E40E94800268E087E40E94800224
:101A100063E082E30E94800268E065CFE4E6F0E0E4
:101A200080818D7F8083E1ECF0E08081886180831C
:101A30001092C50088E08093C400E0ECF0E0808163
:101A40008260808308959091C00095FFFCCF8093C1
:101A5000C60008959FE9980F963010F487550895B1
:101A600080538A3008F08FEF08951F93CF93DF9350
:101A7000EC01FE011491112351F0812F0E94230DDE
:101A80001A3019F48DE00E94230D2196F2CFDF91D8
:101A9000CF911F9108958F929F92AF92BF92EF9234
:101AA000FF920F931F93CF93DF93CDB7DEB72E979F
:101AB0000FB6F894DEBF0FBECDBF6B877C878D87D6
:101AC0009E878E010F5F1F4F78018AE0882E912C30
:101AD000A12CB12C8B859C85AD85BE85892B8A2B4D
:101AE0008B2B19F4E016F10681F46B857C858D85CE
:101AF0009E85A50194010E944510D8016D938D012A
:101B00002B873C874D875E87E5CFF80182918F0157
:101B1000805D0E94230DE016F106B9F72E960FB6F0
:101B2000F894DEBF0FBECDBFDF91CF911F910F9113
:101B3000FF90EF90BF90AF909F908F9008958F92FD
:101B40009F92AF92BF92CF92DF92EF92FF92CF938C
:101B5000DF9300D000D000D0CDB7DEB76B017C01A1
:101B6000842F90E09E838D8388248394912C042E6F
:101B700002C0880C991C0A94E2F791E0891A910836
:101B8000092C000CAA08BB08D701CB0104C0B695EC
:101B9000A795979587954A95D2F7BC01CD010E94EC
:101BA0004B0D8EE20E94230DA50194012C213D21B5
:101BB0004E215F212115310541055105F1F0AAE0C3
:101BC000B0E00E94671069837A838B839C83DC0179
:101BD000CB010D8004C0B695A795979587950A947B
:101BE000D2F7805D0E94230D29813A814B815C816F
:101BF000282139214A215B21DDCF26960FB6F894A2
:101C0000DEBF0FBECDBFDF91CF91FF90EF90DF9091
:101C1000CF90BF90AF909F908F900895CF92DF921A
:101C2000EF92FF92CF93DF936B017C01842F815061
:101C3000990BEC01CC0FDD1FCC0FDD1FD7FD16C0BB
:101C4000D701C6010C2E04C0B695A7959795879528
:101C50000A94D2F78F709927AA27BB27855A9E4FDF
:101C6000FC0180810E94230D2497E8CFDF91CF9162
:101C7000FF90EF90DF90CF900895EF92FF920F9337
:101C80001F93CF93DF93CDB7DEB72A970FB6F894A3
:101C9000DEBF0FBECDBF8C017B0119821A821B8271
:101CA0001C8289819A818E159F0508F03FC021E131
:101CB000E216F10498F08F709927892B79F484E764
:101CC00090E00E94350D44E069817A818B819C818E
:101CD0000E940E0E81E790E00E94350D09871A8759
:101CE000A985BA858D91BA87A987282F30E050E061
:101CF00040E02D833E834F83588742E06D817E8193
:101D00008F8198850E940E0E8FE690E00E94350D1F
:101D100089819A81AB81BC810196A11DB11D898306
:101D20009A83AB83BC8309851A85BBCF2A960FB6ED
:101D3000F894DEBF0FBECDBFDF91CF911F910F9101
:101D4000FF90EF9008951092B90082E08093B80060
:101D5000089594EA9093BC002FEF3FEF2150310992
:101D600011F481E008959091BC0097FFF7CF909116
:101D7000B900987F983011F0903199F78093BB00AB
:101D800084E88093BC008FEF9FEF019751F320917F
:101D9000BC0027FFFACF9091B900987F983119F0D5
:101DA00081E0903411F480E00895089524EA34E845
:101DB00044E92093BC009091BC0097FFFCCF909128
:101DC000B900987F983011F0903199F78093BB005B
:101DD0003093BC009091BC0097FFFCCF9091B9006C
:101DE000987F903211F0983539F44093BC0090916F
:101DF000BC0094FDFCCFDDCF08950C94A90E84E9BE
:101E00008093BC008FEF9FEF019721F02091BC00E1
:101E100024FDFACF08958093BB0084E88093BC0032
:101E20008FEF9FEF019761F02091BC0027FFFACF61
:101E30009091B900987F81E0983209F480E008958C
:101E400081E0089584EC8093BC008FEF9FEF0197B1
:101E500039F02091BC0027FFFACF8091BB00089594
:101E600080E0089584E88093BC008FEF9FEF019796
:101E700039F02091BC0027FFFACF8091BB00089574
:101E800080E00895CF93C0E08C2F880F0E94A90EA8
:101E90000E94FF0ECF5FC038B9F7CF91089582E05E
:101EA00084BD95E095BD9AE797BD80936E00089537
:101EB000CF93DF9300D000D0CDB7DEB78FB7F894C3
:101EC00020917B0130917C0140917D0150917E01F8
:101ED00029833A834B835C838FBF69817A818B81AD
:101EE0009C810F900F900F900F90DF91CF910895EC
:101EF0001F921FB61F9211248F939F93AF93BF938E
:101F000080917B0190917C01A0917D01B0917E0137
:101F10000F96A11DB11D80937B0190937C01A0932E
:101F20007D01B0937E0180917F019DE5980F9D37E3
:101F300050F490937F01BF91AF919F918F911F902B
:101F40001FBE1F901895805280937F0180917B0166
:101F500090917C01A0917D01B0917E010196A11D1F
:101F6000B11D80937B0190937C01A0937D01B09380
:101F70007E01E1CF00D000D000D0CDB7DEB70E9407
:101F8000120280E00E9442090E9493006DEC7CECFA
:101F90008CEC9DE30E949F0362E190E080E00E9450
:101FA0007E0B6EE081E090E00E947E0B60E271EAC1
:101FB00087E090E00E94950780E090E00E94E111A8
:101FC0009093700180936F0180916F0190917001E7
:101FD0000E94E00184E6F82E0EEB10E00E9425023C
:101FE0000E94E6009C0181608F3F9F41B9F3809180
:101FF0006F0190917001DC01A21BB30BFA9EC0012E
:10200000FB9E900D1124863FBAE49B0728F5B8018A
:102010000E9431107E836D83AD81BE81CD01B0E021
:10202000A0E089839A83AB83BC83BC01CD010E946D
:102030004B0D88E690E00E94350D61E08D819E8118
:102040000E941C01BFEF21EE44E0B150204040400F
:10205000E1F700C00000C2CF44E650E05E834D834C
:10206000DBCFAA1BBB1B51E107C0AA1FBB1FA617D2
:10207000B70710F0A61BB70B881F991F5A95A9F731
:1020800080959095BC01CD010895A1E21A2EAA1B5E
:10209000BB1BFD010DC0AA1FBB1FEE1FFF1FA21718
:1020A000B307E407F50720F0A21BB30BE40BF50B15
:1020B000661F771F881F991F1A9469F7609570959E
:1020C000809590959B01AC01BD01CF0108950E94C0
:1020D0007A10A59F900DB49F900DA49F800D911D27
:1020E00011240895B7FF0C9467100E946710821B9B
:1020F000930B0895A29FB001B39FC001A39F700DE1
:10210000811D1124911DB29F700D811D1124911DFF
:1021100008950E94FA1008F481E008950E942611A3
:1021200088F09F5798F0B92F9927B751B0F0E1F098
:10213000660F771F881F991F1AF0BA95C9F714C048
:10214000B13091F00E944011B1E008950C9440111B
:10215000672F782F8827B85F39F0B93FCCF3869581
:1021600077956795B395D9F73EF4909580957095DE
:1021700061957F4F8F4F9F4F0895E89409C097FB5B
:102180003EF490958095709561957F4F8F4F9F4F4E
:102190009923A9F0F92F96E9BB279395F695879592
:1021A00077956795B795F111F8CFFAF4BB0F11F455
:1021B00060FF1BC06F5F7F4F8F4F9F4F16C08823FC
:1021C00011F096E911C0772321F09EE8872F762F32
:1021D00005C0662371F096E8862F70E060E02AF073
:1021E0009A95660F771F881FDAF7880F969587955F
:1021F00097F90895990F0008550FAA0BE0E8FEEF34
:1022000016161706E807F907C0F012161306E407BA
:10221000F50798F0621B730B840B950B39F40A26B3
:1022200061F0232B242B252B21F408950A2609F491
:10223000A140A6958FEF811D811D089557FD9058EF
:10224000440F551F59F05F3F71F04795880F97FB7A
:10225000991F61F09F3F79F0879508951216130634
:102260001406551FF2CF4695F1DF08C01616170663
:102270001806991FF1CF8695710561050894089598
:10228000E894BB2766277727CB0197F908950E942A
:10229000FA1008F48FEF08950E945F110C94D0118A
:1022A0000E94C21138F00E94C91120F0952311F04C
:1022B0000C94B9110C94BF1111240C9441110E947B
:1022C0001E1170F3959FC1F3950F50E0551F629F4B
:1022D000F001729FBB27F00DB11D639FAA27F00D7F
:1022E000B11DAA1F649F6627B00DA11D661F829FA6
:1022F0002227B00DA11D621F739FB00DA11D621F8B
:10230000839FA00D611D221F749F3327A00D611DA7
:10231000231F849F600D211D822F762F6A2F112489
:102320009F5750409AF0F1F088234AF0EE0FFF1FBC
:10233000BB1F661F771F881F91505040A9F79E3F13
:10234000510580F00C94B9110C9441115F3FE4F3F6
:10235000983ED4F3869577956795B795F795E79569
:102360009F5FC1F7FE2B880F911D9695879597F972
:10237000089597F99F6780E870E060E008959FEF07
:1023800080EC089500240A9416161706180609060C
:10239000089500240A9412161306140605060895DB
:1023A000092E0394000C11F4882352F0BB0F40F463
:1023B000BF2B11F460FF04C06F5F7F4F8F4F9F4FA3
:1023C0000895A8E1B0E042E050E00C94E911DC018E
:1023D000CB01FC01F999FECF06C0F2BDE1BDF89A30
:1023E000319600B40D9241505040B8F70895F894DA
:0223F000FFCF1D
:1023F200011400C6CC183066C600527CC6CEDEF68A
:10240200E67C00307030303030FC0078CC0C386024
:10241200CCFC0078CC0C380CCC78001C3C6CCCFE8C
:102422000C1E00FCC0F80C0CCC78003860C0F8CC54
:10243200CC7800FCCC0C183030300078CCCC78CC86
:10244200CC780078CCCC7C0C18700030313233342C
:0C245200353637383941424344454600D6
:00000001FF
