:100000000C943E000C9466000C9466000C94660000
:100010000C9466000C9466000C9466000C946600C8
:100020000C9466000C9466000C9466000C943D04DD
:100030000C9466000C9466000C9483110C9466007A
:100040000C9466000C9466000C9466000C94660098
:100050000C9466000C9466000C9466000C94660088
:100060000C9466000C946600252000636D2000202F
:10007000003A20000A2020202000471211241FBE31
:10008000CFEFD8E0DEBFCDBF11E0A0E0B1E0E4E506
:10009000F8E202C005900D92A837B107D9F721E028
:1000A000A8E7B1E001C01D92A13BB207E1F710E063
:1000B000CEE3D0E004C02197FE010E94A512CD330B
:1000C000D107C9F70E94C5110C9428140C940000A4
:1000D00080919A0190919B0180939101089581E014
:1000E00090E09093030180930201EAE8F1E08381BC
:1000F0008283158214821182108216820895000074
:1001000098E02898000087FF06C02A9A289A880F4E
:100110009150B9F708952A98F9CFFF920F931F9342
:10012000CF93DF93C82FF62E142FD22F29980E9439
:100130007F008F2D0E947F008C2F0E947F00812FD7
:100140000E947F008C2F0E947F008D2F0E947F00D5
:100150008C2F0E947F00802F0E947F0082E085B953
:10016000DF91CF911F910F91FF9008950F931F93EF
:1001700084B1876084B910E000E030E020E050E016
:1001800040E070E060E089E00E948D0030E020E017
:1001900050E040E070E060E08AE00E948D0007E0FF
:1001A00010E027E030E047E050E067E070E08BE0EF
:1001B0000E948D0001E010E021E030E041E050E0DD
:1001C00061E070E08CE00E948D0010E000E030E023
:1001D00020E050E040E070E060E08FE00E948D00A1
:1001E0001F910F9108950F931F93CF93C1E010E0DB
:1001F00000E030E020E050E040E070E060E08C2F74
:100200000E948D00CF5FC93091F7CF911F910F9160
:100210000895559A569A579A08955F9A8AE18A9551
:10022000F1F700C05F988AE18A95F1F700C0089560
:1002300027E030E090E0AC01022E02C055954795D2
:100240000A94E2F740FF0FC05D9A5E9A4AE14A9530
:10025000F1F700C05E984AE14A95F1F700C02150DD
:10026000310948F708955D98F0CFCF92DF92EF9271
:10027000FF920F931F93CF93DF9300D000D0CDB7A1
:10028000DEB71A821982042F10E02AE0C22ED12C88
:10029000E12CF12C29813A81201731076CF4A70158
:1002A00096010E947012B901CA0129813A812F5F1B
:1002B0003F4F3A832983EECF2AE030E040E050E020
:1002C0000E94701269837A838B839C83E981FA810F
:1002D000EC5FFE4F80810F900F900F900F90DF9199
:1002E000CF911F910F91FF90EF90DF90CF900895E5
:1002F000CF93DF9300D000D0CDB7DEB7262F853661
:10030000910510F084E690E06AE070E00E945C12D3
:10031000CB0101966BE070E00E945C1240E050E07F
:10032000BA01815030F0440F551F661F771F41609E
:10033000F8CFDB01CA0104C0880F991FAA1FBB1F99
:100340002A95D2F7BC01CD010F900F900F900F901E
:10035000DF91CF910895982F28E030E080E0880F5A
:10036000492F4170842B969521503109C1F708958A
:100370000F931F93CF93DF9300D000D00F92CDB790
:10038000DEB78091020190910301892B49F48CE042
:10039000EEE7F1E0AAE8B1E001900D928A95E1F76D
:1003A0000E946311462F572FBC0180917A019091D2
:1003B0007B01A0917C01B0917D01892B8A2B8B2B35
:1003C00071F180917A0190917B01A0917C01B091B3
:1003D0007D018A019B01081B190B2A0B3B0B8091A5
:1003E0008F0110928F01811115C084EF91E0A0E080
:1003F000B0E0081719072A073B0788F480917901B4
:100400000F900F900F900F900F90DF91CF911F9151
:100410000F91089584E690E0A0E0B0E0EACF409329
:100420007A0150937B0160937C0170937D018091F0
:10043000020190910301019709F5809196018823AB
:10044000E9F01092030110920201809385018CE083
:10045000EEE7F1E0AAE8B1E001900D928A95E1F7AC
:1004600080919701809396018091980180939701E4
:1004700080919901809398011092990180918A014D
:1004800090918B018130910509F18230910509F439
:1004900053C0892BB1F4E0919201F0919301309710
:1004A00009F0099580918D0180938C0181E090E0A5
:1004B00090938B0180938A0180938E0181E78093D2
:1004C000900180919001809379019ACF80918E0163
:1004D000882341F01092900110928E0181E0809368
:1004E0008F01EFCF81E080938E0120918C012D83CD
:1004F00080919101282F30E050E040E029833A8339
:100500004B835C834D8169817A818B819C810E94C0
:100510003501809390013D81311109C082E090E066
:1005200090938B0180938A0110928E01CACF4D81E6
:10053000415040938C01C5CF80918D0180938C01F7
:1005400010928F0110928E0110928B0110928A01ED
:1005500010929001E0919401F0919501309709F487
:10056000B0CF0995AECFCF92DF92EF92FF928091FC
:100570009A0190919B0167E00E9478016B017C01D8
:100580000E94B801C82A8D2D0E94AB010E9418015B
:100590008C2D0E941801E0FE07C05C9AFF90EF903E
:1005A000DF90CF900C940D015C98F8CFCF93DF9340
:1005B000CDB7DEB72D970FB6F894DEBF0FBECDBF17
:1005C000CE0101960E9413076AE070E00E945C125F
:1005D00070939D0160939C0180919C0190919D017D
:1005E0009C0150E040E02A873B874C875D87CA0129
:1005F000B9010E94560F8BE690E00E94400F809157
:100600009C0190919D012D960FB6F894DEBF0FBE10
:10061000CDBFDF91CF9108958F929F92BF92CF92DD
:10062000DF92EF92FF920F931F93CF93DF93CDB79B
:10063000DEB72A970FB6F894DEBF0FBECDBF7C01A0
:10064000D62E809178018F5F80937801843121F4D8
:10065000109278010E94B600BFB6F8948EE091E047
:100660009A8389832AE030E0C701B9010E945C12B5
:1006700043E0880F991F4A95E1F7895E9E4F9C835E
:100680008B83CB01B9010E945C1253E0880F991F44
:100690005A95E1F7895E9E4F9E838D83C70164E67C
:1006A00070E00E945C12CB01B9010E945C1263E011
:1006B000880F991F6A95E1F7895E9E4F98878F830F
:1006C000C70168EE73E00E945C12CB01B9010E9481
:1006D0005C1273E0880F991F7A95E1F7895E9E4F4F
:1006E0009A87898781E0D11080E0C82ED12CCC0C6C
:1006F000DD1C81E090E08C0F9D1FC80ED91EF12CEF
:10070000E12C4601D6011696ED91FC911797EE0D5E
:10071000FF1D008110E01496ED91FC911597EE0DF0
:10072000FF1D208130E01296ED91FC91EE0DFF1D32
:10073000408150E0D401ED91FC91EE0DFF1D6081F0
:1007400070E081E08E0D0E948D00BFEFEB1AFB0A76
:1007500088E0E816F104B1F6BFBE2A960FB6F89409
:10076000DEBF0FBECDBFDF91CF911F910F91FF90E4
:10077000EF90DF90CF90BF909F908F900895D82FEB
:10078000C92F60E08D2F9C2F0E940C032FEF89E66C
:1007900098E1215080409040E1F700C00000F1CF87
:1007A00060E00E940C032FEF89E698E12150804021
:1007B0009040E1F700C000000E94F3002FEF81EEAF
:1007C00094E0215080409040E1F700C0000008957F
:1007D0008093B40008958BE08093810082EE94E0D2
:1007E000909389008093880082E080936F00089541
:1007F000539A83E28093B00081E08093B10010921D
:10080000B40008950E94190FE1ECF0E080818F7E22
:10081000808382E08AB9549A0E94AE100E945A11D5
:100820000E94EB030E94F8030E9409018FE690E00A
:10083000909389018093880188E690E090939301DA
:100840008093920178940895909101018091010123
:10085000953610F4843128F48091000181958093BD
:1008600000018091000190910101890F80930101A5
:10087000809101018093B40008951F920F920FB6EA
:100880000F9211242F933F934F935F936F937F9316
:100890008F939F93AF93BF93EF93FF930E94240492
:1008A0000E94B302FF91EF91BF91AF919F918F9101
:1008B0007F916F915F914F913F912F910F900FBE5C
:1008C0000F901F901895E6E9F1E092819383918152
:1008D000928390819183808308950F931F93009753
:1008E000B9F00197B0E0A0E050E040E08C019D013C
:1008F0000027012B022B032B39F0B695A79597956E
:1009000087954F5F5F4FF2CF342F2227822B932B97
:100910001F910F910895CF93DF93D82FC62F809109
:1009200016010E94B4108D2F0E9416118C2F0E9468
:100930001611DF91CF910C940A111F93CF93DF937F
:10094000182FEB01809116010E94B410812F0E9494
:1009500016118D2F0E9416118C2F0E941611DF91F7
:10096000CF911F910C940A11FF920F931F93CF9375
:10097000DF93F82EEA01162F072F809116010E94AF
:10098000B4108F2D0E941611802F0E941611812FF6
:100990000E9416118D2F0E9416118C2F0E94161185
:1009A000DF91CF911F910F91FF900C940A11CF937B
:1009B000C82F809116010E94B4108C2F0E9416112E
:1009C0008091160181600E9408110E943D11C82F7C
:1009D0000E940A118C2FCF910895CF93DF93C82FD7
:1009E000809116010E94B4108C2F0E9416118091E4
:1009F000160181600E9408110E942D11C82FD0E0BD
:100A0000DC2FCC270E943D11C82B0E940A11CE0179
:100A1000DF91CF910895CF92DF92EF92FF92CF9323
:100A2000DF9300D000D0CDB7DEB789838091160167
:100A30000E94B41089810E94161180911601816074
:100A40000E9408110E942D1190E0B0E0A0E0F82E65
:100A5000EE24DD24CC240E942D11E82A0E942D11C1
:100A600089830E943D11C82AD701C6012981922B92
:100A700089839A83AB83BC830E940A1169817A813E
:100A80008B819C810F900F900F900F90DF91CF91F1
:100A9000FF90EF90DF90CF900895FF920F931F93F8
:100AA000CF93DF93C82FF62E072F142F80911601B6
:100AB0000E94B4108C2F0E941611115040F0CF2DBF
:100AC000D02F89910E941611FC2E0D2FF6CFDF91A9
:100AD000CF911F910F91FF900C940A11EF92FF920A
:100AE0000F931F93CF93DF93082FEB01142F809167
:100AF00016010E94B410802F0E94161180911601D9
:100B000081600E940811112379F07E018FEFE81AAD
:100B1000F80A123030F00E942D1188831150E7013D
:100B2000F2CF0E943D11F9CFDF91CF911F910F912C
:100B3000FF90EF900C940A11CF93C82F682F669501
:100B40008AE80E948B04C0931601CF91089580918A
:100B5000160108950F931F93CF93DF9300D000D019
:100B600000D0CDB7DEB78B018E839D8320E030E0CF
:100B7000A90169831A838B839C8369817A818B8124
:100B80009C810E94BA1287FD2FC028EB3EEF4FEFE9
:100B900053E469817A818B819C810E9478131816B5
:100BA0001CF120E030E040E053E469817A818B81E0
:100BB0009C810E947D1369837A838B839C836981E6
:100BC0007A818B819C810E94BF1284E40E949D04E3
:100BD00081E026960FB6F894DEBF0FBECDBFDF9141
:100BE000CF911F910F91089580E0F3CFCF93DF93C2
:100BF00000D000D0CDB7DEB784E40E94ED049C01A4
:100C000050E040E029833A834B835C83CA01B901F9
:100C10000E94EE1220E030E040E05CE369837A83DA
:100C20008B839C8369817A818B819C810E947D1357
:100C300069837A838B839C8369817A818B819C8190
:100C40000F900F900F900F90DF91CF9108959C011E
:100C500080E52115310521F02130310531F480E79F
:100C60000E94D7048F5F880F08958FEF0895CF9269
:100C7000DF92EF92FF926B017C0161E080E80E94BD
:100C80008B0461E08FEF0E948B0460E080E00E94A3
:100C90008B046091A60181E90E948B0461E080E0F1
:100CA0000E948B0460E08FEF0E948B0460E080E87C
:100CB0000E948B0462E0C114D104E104F10491F0BC
:100CC00088EF0E94ED04DC01892B31F0A701960129
:100CD0000E9492126B017C01B701A60184E00E9480
:100CE000B40464E080E0FF90EF90DF90CF900C942C
:100CF0008B0461E080E00E948B0461E08FEF0E9432
:100D00008B0460E080E00E948B0460E081E90E9437
:100D10008B0461E080E00E948B0460E08FEF0C9414
:100D20008B04EF92FF920F931F93CF93DF93CDB776
:100D3000DEB760970FB6F894DEBF0FBECDBF7C0163
:100D40000E9463117093A8016093A70183E10E9440
:100D5000D704877079F58091AA019091AB01892B16
:100D6000A9F30E9463116D877E878F87988B80918E
:100D7000A7019091A8012D853E85281B390BC9013B
:100D80002091AA013091AB0128173907F8F681E0CC
:100D90008093A9010FEF1FEFC80160960FB6F8947A
:100DA000DEBF0FBECDBFDF91CF911F910F91FF909E
:100DB000EF900895E114F10449F48EE10E94ED04EE
:100DC0008C0161E08BE00E948B04E6CF4CE0BE0119
:100DD0006F5F7F4F84E10E946E05898190E023E080
:100DE000959587952A95E1F7F70180878B819C81FE
:100DF000982789279827978386838F8198859827B6
:100E0000892798279383828389859A8598278927BC
:100E10009827958384830B851C851027012710272D
:100E200011830083CECFCF93DF9300D000D000D0CA
:100E3000CDB7DEB78E839D8361E080E80E948B048E
:100E400061E08FEF0E948B0460E080E00E948B04E1
:100E50006091A60181E90E948B0461E080E00E941C
:100E60008B0460E08FEF0E948B0460E080E80E94BA
:100E70008B0461E080E00E948B040E9463117093F8
:100E8000A8016093A70180E00E94D70480FF2AC0D8
:100E90008091AA019091AB01892BA9F30E94631163
:100EA00069837A838B839C838091A7019091A801A9
:100EB00029813A81281B390BC9012091AA0130915F
:100EC000AB0128173907F8F681E08093A9018FEF6D
:100ED0009FEF26960FB6F894DEBF0FBECDBFDF9111
:100EE000CF9108958E819D8126960FB6F894DEBF2E
:100EF0000FBECDBFDF91CF910C9491068091A901D7
:100F00001092A90108959093AB018093AA010895CE
:100F10008091AA019091AB010895EF92FF920F93F7
:100F20001F93CF93DF9300D000D00F92CDB7DEB7E1
:100F30007C018B0161E080E80E948B0461E08FEF0F
:100F40000E948B0460E080E00E948B0466E08FEFDB
:100F50000E948B0483E80E94D704682F646083E8B2
:100F60000E948B0467E08FEF0E948B0461E081E8B0
:100F70000E948B0461E080E80E948B046BE684E9A8
:100F80000E948B0460E083E80E948B040E9463113E
:100F90007093A8016093A70183E80E94D7048D8312
:100FA000811129C08091AA019091AB01892BA1F3F5
:100FB0000E94631169837A838B839C838091A7014C
:100FC0009091A80129813A81281B390BC9012091F0
:100FD000AA013091AB0128173907F0F68D810F90E7
:100FE0000F900F900F900F90DF91CF911F910F9165
:100FF000FF90EF90089561E083E80E948B0482E9FE
:101000000E94D704982F9F77F7019083881F882725
:10101000881FF801808360E081E80E948B0466E00D
:101020008FEF0E948B0483E80E94D704682F6B7FA8
:1010300083E80E948B0461E08FEF0E948B0461E0E3
:1010400080E00E948B0460E08FEF0E948B0460E0E0
:1010500080E80E948B04F1E0FD83C0CFCF93DF9343
:10106000EC0181E00E94D70484FB992790F99883D2
:1010700083FB992790F99A8382FB992790F99983AA
:1010800086FB992790F99B83881F8827881F8C836C
:10109000DF91CF9108954F925F926F927F928F92DE
:1010A0009F92AF92BF92EF92FF920F931F93CF93B5
:1010B000DF93CDB7DEB72A970FB6F894DEBF0FBE29
:1010C000CDBF8C0169877A8790E080E00E94270677
:1010D00090E0A985BA858D939C9386E40E94D704FD
:1010E000E82EF12CBFEFEB1AFB0AE985FA85F582B1
:1010F000E482A081B0E020E03FE24AE350E00E94B9
:101100009212DC01CB018C509E4FAF4FBF4F8983B1
:101110009A83AB83BC8338EE832E33E0932EA12CCD
:10112000B12CBC01CD01A50194010E947012D70120
:101130000E949D126D837E838F83988740ED442E9D
:1011400047E0542E612C712C69817A818B819C81BE
:10115000A30192010E9470128D819E81AF81B8859A
:10116000820F931FA41FB51F8D839E83AF83B88703
:10117000BC01CD01A50194010E947012A985BA8518
:101180001A962D933D934D935C931D9781E50E9494
:10119000ED04E82EF12C02C0EE0CFF1C9A95E2F74C
:1011A000BFEFEB1AFB0AE985FA85F782E682A08198
:1011B000B0E020E03FE24AE350E00E949212DC01FE
:1011C000CB018C509E4FAF4FBF4F89839A83AB8327
:1011D000BC83BC01CD01A50194010E947012D7010E
:1011E0000E9492126D837E838F83988769817A81B2
:1011F0008B819C81A30192010E9470128D819E813E
:10120000AF81B885820F931FA41FB51F8D839E8366
:10121000AF83B887BC01CD01A50194010E94701273
:10122000A985BA851E962D933D934D935C93519756
:1012300080E70E94D7048F5F880F90E0E985FA85E8
:101240009383828381E70E94ED04292F90E002C0FE
:10125000880F991F2A95E2F70196A985BA851996F4
:101260009C938E931897F8012381222351F01696B0
:101270002D913C911797821B930B19969C938E93FB
:101280001897E985FA85A281B0E020E03FE24AE3C1
:1012900050E00E949212DC01CB018C509E4FAF4F68
:1012A000BF4F89839A83AB83BC8328EE822E23E0D1
:1012B000922EA12CB12CBC01CD01A50194010E945C
:1012C0007012E985FA85A085B1850E9492126D831E
:1012D0007E838F83988769817A818B819C8120EDC1
:1012E00037E040E050E00E9470128D819E81AF8116
:1012F000B885820F931FA41FB51FBC01CD01A501A6
:1013000094010E947012A985BA8552962D933D933F
:101310004D935C9355972A960FB6F894DEBF0FBE97
:10132000CDBFDF91CF911F910F91FF90EF90BF90B4
:10133000AF909F908F907F906F905F904F900895A7
:101340008F929F92AF92BF92CF92DF92EF92FF92D5
:101350001F93CF93DF93CDB7DEB7A3970FB6F89463
:10136000DEBF0FBECDBF4B015C0120E282162EE432
:101370009206A104B10408F4CCC0CE0147960E94A5
:101380002E08BE016F5F7F4FCE0147960E944B082B
:101390008F89882309F4ABC08B859C85AD85BE857C
:1013A0008A5C944FAF4FBF4F298D222309F4A4C00C
:1013B0004B855C856D857E854E545D4F6F4F7F4FAD
:1013C000440F551F661F771F840F951FA61FB71F59
:1013D0001A8D112361F04F85588969897A894C5695
:1013E0005D4F6F4F7F4F840F951FA61FB71F2B8D2B
:1013F000222309F469C06C017D0126E2C20E22E0BD
:10140000D21EE11CF11C8C149D04AE04BF0408F430
:1014100080C0AB81B0E020E03FE24AE350E00E94B0
:101420009212DC01CB018C509E4FAF4FBF4F8C8F7F
:101430009D8FAE8FBF8FA50194012C193D094E09D8
:101440005F09A8EEB3E00E94921268A379A38AA371
:101450009BA36C8D7D8D8E8D9F8D20ED37E040E0C0
:1014600050E00E94701288A199A1AAA1BBA1820F8D
:10147000931FA41FB51F88A399A3AAA3BBA36C8D18
:101480007D8D8E8D9F8D28EE33E040E050E00E94F0
:10149000701268A179A18AA19BA10E947012C90152
:1014A000112321F08F819885820F931F0E946D0474
:1014B000BC0181E70E949D048092A2019092A30149
:1014C000A092A401B092A50181E0A3960FB6F89472
:1014D000DEBF0FBECDBFDF91CF911F91FF90EF9088
:1014E000DF90CF90BF90AF909F908F90089588EE3F
:1014F00098E0A0E0B0E058CF288D222309F468CF0F
:101500004B855C856D857E854C565D4F6F4F7F4F5B
:101510005BCF80E0DACF0F931F93CF93DF93CDB7EC
:10152000DEB76B970FB6F894DEBF0FBECDBFCE010E
:1015300047960E942E08BE016F5F7F4FCE014796EF
:101540000E944B088F89882309F44DC06B857C85E8
:101550008D859E856C57724F8F4F9F4F298D22230B
:1015600009F446C00B851C852D853E850E541D4F04
:101570002F4F3F4F000F111F221F331F600F711F8E
:10158000821F931F2A8D222361F00F8518892989D4
:101590003A890C561D4F2F4F3F4F600F711F821F0E
:1015A000931F2B8D222361F00B891C892D893E8985
:1015B0000A5D1D4F2F4F3F4F600F711F821F931FFA
:1015C0006093A2017093A3018093A4019093A5015D
:1015D0006B960FB6F894DEBF0FBECDBFDF91CF91F3
:1015E0001F910F91089566E37BE080E090E0B6CF15
:1015F000288D222339F20B851C852D853E850C56BE
:101600001D4F2F4F3F4FBACFCF93DF9300D000D065
:101610000F92CDB7DEB7682F616080E00E948B0427
:101620000E9463117093A8016093A70183E10E9457
:10163000D70487708D83811125C08091AA01909174
:10164000AB01892B99F30E94631169837A838B83A1
:101650009C838091A7019091A80129813A81281B40
:10166000390BC9012091AA013091AB012817390724
:10167000E8F68D810F900F900F900F900F90DF91F3
:10168000CF91089561E08BE00E948B0460E080E0E0
:101690000E948B0431E03D83ECCF0F931F93CF93D7
:1016A000DF93CDB7DEB72C970FB6F894DEBF0FBE31
:1016B000CDBF882341F089E80E94D704682F61607C
:1016C00089E80E948B0460E088E80E948B0461E056
:1016D00080E80E948B0461E08FEF0E948B0460E041
:1016E00080E00E948B0481E90E94D7048093A601C8
:1016F00061E080E00E948B0460E08FEF0E948B0429
:1017000060E080E80E948B0480E60E94D704682F86
:10171000626180E60E948B0460E270E084E40E94D3
:101720009D046FEF81E00E948B04BE01695F7F4FD3
:10173000CE0108960E948D0781110CC080E02C9686
:101740000FB6F894DEBF0FBECDBFDF91CF911F91D2
:101750000F91089546E0BE016F5F7F4F80EB0E94BE
:101760006E0561E08FEF0E948B0460E08FE40E94C1
:101770008B046CE28EE40E948B0460E08FEF0E9489
:101780008B0464EB86EB0E948B049F8191119CE09B
:10179000B88580E0A0E001E010E0482F469546952E
:1017A000469550E021E030E02C0F3D1F240F351FFF
:1017B000F9012081682F6770891710F0BA139FC153
:1017C000E1E0F0E0EC0FFD1F4E0F5F1FF80102C0DB
:1017D000EE0FFF1F6A95E2F7BF0160952623FA011D
:1017E00020838F5F8033C9F646E0BE016F5F7F4F75
:1017F00080EB0E944D0561E08FEF0E948B0460E05A
:1018000080E00E948B0460E08FEF0E948B0460E018
:1018100089E00E948B0460E080E10E948B0460E01C
:1018200081E10E948B0461E084E20E948B046FEFEF
:1018300085E20E948B0460E085E70E948B0461E0F2
:101840008FEF0E948B046CE28EE40E948B0460E0B8
:1018500088E40E948B0460E280E30E948B0460E0D5
:101860008FEF0E948B0469E080E30E948B0460E0AC
:1018700084E50E948B0464E081E30E948B0463E0B2
:1018800082E30E948B0463E880E40E948B0465E29B
:1018900086E40E948B0460E080E60E948B0460E096
:1018A00087E20E948B0466E080E50E948B0460E082
:1018B00081E50E948B0466E982E50E948B0468E062
:1018C00086E50E948B0460E387E50E948B0460E05C
:1018D00081E60E948B0460E082E60E948B0460E057
:1018E00084E60E948B0460E085E60E948B0460EA37
:1018F00086E60E948B0461E08FEF0E948B0462E316
:1019000082E20E948B0464E187E40E948B046FEF03
:1019100089E40E948B0460E08AE40E948B0460E00A
:101920008FEF0E948B046AE08AE70E948B0460E0DC
:101930008BE70E948B0461E288E70E948B0461E0E0
:101940008FEF0E948B0464E383E20E948B0460E0CB
:1019500082E40E948B046FEF84E40E948B0466E2B1
:1019600085E40E948B0465E086E40E948B0460E4B9
:1019700080E40E948B0466E08EE00E948B046AE1A2
:1019800080E20E948B0460E483E40E948B0460E0A8
:101990008FEF0E948B0463E084E30E948B0464E475
:1019A00085E30E948B0461E08FEF0E948B0464E06A
:1019B00081E30E948B0469E08BE40E948B0465E064
:1019C0008CE40E948B0464E08DE40E948B0460E050
:1019D0008FEF0E948B0460E084E40E948B0460E23D
:1019E00085E40E948B0468E087E40E948B0468E22F
:1019F00088E40E948B0460E087E60E948B0464E028
:101A000080E70E948B0461E081E70E948B046EEF07
:101A100082E70E948B0460E086E70E948B0460E00E
:101A200087E70E948B0461E08FEF0E948B0461E0E6
:101A30008DE00E948B0460E08FEF0E948B0461E0D8
:101A400080E80E948B0468EF81E00E948B0461E0D3
:101A50008FEF0E948B0461E08EE80E948B0461E0AE
:101A600080E00E948B0460E08FEF0E948B0460E0B6
:101A700080E80E948B0464E08AE00E948B0484E882
:101A80000E94D704682F6F7E84E80E948B0461E077
:101A90008BE00E948B040E948B0A6093A2017093DA
:101AA000A3018093A4019093A50168EE81E00E94B8
:101AB0008B048091A2019091A301A091A401B09107
:101AC000A501BC01CD010E94A00961E081E00E9456
:101AD0008B0480E40E94040B882309F42FCE62E07B
:101AE00081E00E948B0480E00E94040B882309F4AB
:101AF00025CE68EE81E00E948B0481E020CE30E0AC
:101B000002C0359527956A95E2F720FF6ACEAF5F50
:101B100068CE8F929F92AF92BF92CF92DF92EF9258
:101B2000FF920F931F93CF93DF93CDB7DEB7A397A9
:101B30000FB6F894DEBF0FBECDBF7C01162F062F67
:101B400006950150CE0147960E942E08BE016F5F98
:101B50007F4FCE0147960E944B08E114F10409F033
:101B6000B3C0103109F4AEC040F41C3009F4A8C071
:101B700060E31E3029F080E090C060E51231D9F7B3
:101B800087E50E948B0468E086E50E948B04602F45
:101B900080E50E948B04A12FB0E020E03FE24AE301
:101BA00050E00E949212DC01CB018C509E4FAF4F4F
:101BB000BF4F8C8F9D8FAE8FBF8FBC01CD0128EEA4
:101BC00033E040E050E00E94701249015A016C8DF0
:101BD0007D8D8E8D9F8D20ED37E040E050E00E949E
:101BE000701269017A012F85388949895A89A8EECE
:101BF000B3E00E949212DC01CB018C0D9D1DAE1D45
:101C0000BF1D8C8F9D8FAE8FBF8FBC01CD01A501F5
:101C100094010E947012C9010E946D04BC0181E50B
:101C20000E949D042B853C854D855E85A8EEB3E022
:101C30000E949212DC01CB018C0D9D1DAE1DBF1DBB
:101C4000BC01CD01A50194010E947012213091E0E8
:101C5000390710F020E031E06FEF620F86E40E9458
:101C60008B048091A2019091A301A091A401B09155
:101C7000A501BC01CD010E94A00981E00E94D7040A
:101C8000182F62E081E00E948B0480E00E94040B28
:101C9000612F81E00E948B0481E0A3960FB6F89437
:101CA000DEBF0FBECDBFDF91CF911F910F91FF908F
:101CB000EF90DF90CF90BF90AF909F908F9008955E
:101CC00068E15ECF60E45CCFEA94EF2809F053CF7F
:101CD0001C3009F4A0C0D8F4183051F11A3009F0C2
:101CE0004ACF68E288E40E948B0468E087E40E949F
:101CF0008B0463E082E30E948B0469E080E30E942E
:101D00008B0461E08FEF0E948B0460E226C01E30DE
:101D100009F031CF68E488E40E948B0468E087E42E
:101D20000E948B0463E082E30E948B0467E0E6CFAD
:101D300060E188E40E948B0468E087E40E948B04E1
:101D400062E082E30E948B046CE080E30E948B04DB
:101D500061E08FEF0E948B0460E380E30E948B04BC
:101D600060E08FEF0E948B04602F80E70E948B045D
:101D7000A12FB0E020E03FE24AE350E00E9492123F
:101D8000DC01CB018C509E4FAF4FBF4F8C8F9D8F8E
:101D9000AE8FBF8F2B893C894D895E89A8EEB3E059
:101DA0000E94921268A379A38AA39BA36C8D7D8D58
:101DB0008E8D9F8D20ED37E040E050E00E94701244
:101DC00088A199A1AAA1BBA1820F931FA41FB51F2F
:101DD00088A399A3AAA3BBA36C8D7D8D8E8D9F8DA7
:101DE00028EE33E040E050E00E94701268A179A133
:101DF0008AA19BA10E947012C9016A8D662321F0FD
:101E00008F819885820F931F0E946D04BC0181E72A
:101E10000E949D0426CF68E388E40E948B0468E05A
:101E200087E40E948B0463E082E30E948B0468E0F5
:101E300065CFE4E6F0E080818D7F8083E1ECF0E027
:101E40008081886180831092C50088E08093C400FF
:101E5000E0ECF0E080818260808308959091C00082
:101E600095FFFCCF8093C60008959FE9980F9630A8
:101E700010F48755089580538A3008F08FEF089545
:101E80001F93CF93DF93EC01FE011491112351F0C6
:101E9000812F0E942E0F1A3019F48DE00E942E0F10
:101EA0002196F2CFDF91CF911F9108958F929F924B
:101EB000AF92BF92EF92FF920F931F93CF93DF9356
:101EC000CDB7DEB72E970FB6F894DEBF0FBECDBFED
:101ED0006B877C878D879E878E010F5F1F4F7801F0
:101EE0008AE0882E912CA12CB12C8B859C85AD8508
:101EF000BE85892B8A2B8B2B19F4E016F10681F411
:101F00006B857C858D859E85A50194010E9470124C
:101F1000D8016D938D012B873C874D875E87E5CF78
:101F2000F80182918F01805D0E942E0FE016F1066C
:101F3000B9F72E960FB6F894DEBF0FBECDBFDF9176
:101F4000CF911F910F91FF90EF90BF90AF909F9016
:101F50008F9008958F929F92AF92BF92CF92DF920F
:101F6000EF92FF92CF93DF9300D000D000D0CDB797
:101F7000DEB76B017C01842F90E09E838D838824E3
:101F80008394912C042E02C0880C991C0A94E2F7C9
:101F900091E0891A9108092C000CAA08BB08D70106
:101FA000CB0104C0B695A795979587954A95D2F72A
:101FB000BC01CD010E94560F8EE20E942E0FA5019A
:101FC00094012C213D214E215F2121153105410530
:101FD0005105F1F0AAE0B0E00E94921269837A8381
:101FE0008B839C83DC01CB010D8004C0B695A79543
:101FF000979587950A94D2F7805D0E942E0F2981CC
:102000003A814B815C81282139214A215B21DDCF36
:1020100026960FB6F894DEBF0FBECDBFDF91CF91ED
:10202000FF90EF90DF90CF90BF90AF909F908F90F8
:102030000895CF92DF92EF92FF92CF93DF936B01DF
:102040007C01842F8150990BEC01CC0FDD1FCC0F4C
:10205000DD1FD7FD16C0D701C6010C2E04C0B695F2
:10206000A795979587950A94D2F78F709927AA27F5
:10207000BB2789599E4FFC0180810E942E0F249717
:10208000E8CFDF91CF91FF90EF90DF90CF90089550
:10209000EF92FF920F931F93CF93DF93CDB7DEB7ED
:1020A0002A970FB6F894DEBF0FBECDBF8C017B011F
:1020B00019821A821B821C8289819A818E159F0542
:1020C00008F03FC021E1E216F10498F08F709927E3
:1020D000892B79F484E790E00E94400F44E0698105
:1020E0007A818B819C810E94191081E790E00E9487
:1020F000400F09871A87A985BA858D91BA87A98764
:10210000282F30E050E040E02D833E834F835887F6
:1021100042E06D817E818F8198850E9419108FE643
:1021200090E00E94400F89819A81AB81BC81019629
:10213000A11DB11D89839A83AB83BC8309851A8550
:10214000BBCF2A960FB6F894DEBF0FBECDBFDF918E
:10215000CF911F910F91FF90EF9008951092B900C9
:1021600082E08093B800089594EA9093BC002FEF2A
:102170003FEF2150310911F481E008959091BC00A6
:1021800097FFF7CF9091B900987F983011F0903178
:1021900099F78093BB0084E88093BC008FEF9FEF9A
:1021A000019751F32091BC0027FFFACF9091B9001D
:1021B000987F983119F081E0903411F480E008950F
:1021C000089524EA34E844E92093BC009091BC00CF
:1021D00097FFFCCF9091B900987F983011F0903123
:1021E00099F78093BB003093BC009091BC0097FF9F
:1021F000FCCF9091B900987F903211F0983539F466
:102200004093BC009091BC0094FDFCCFDDCF0895BD
:102210000C94B41084E98093BC008FEF9FEF01977A
:1022200021F02091BC0024FDFACF08958093BB00DB
:1022300084E88093BC008FEF9FEF019761F02091BD
:10224000BC0027FFFACF9091B900987F81E09832C7
:1022500009F480E0089581E0089584EC8093BC0047
:102260008FEF9FEF019739F02091BC0027FFFACF45
:102270008091BB00089580E0089584E88093BC00BD
:102280008FEF9FEF019739F02091BC0027FFFACF25
:102290008091BB00089580E00895CF93C0E08C2F1B
:1022A000880F0E94B4100E940A11CF5FC038B9F79E
:1022B000CF91089582E084BD95E095BD9AE797BDE2
:1022C00080936E000895CF93DF9300D000D0CDB7F8
:1022D000DEB78FB7F8942091AC013091AD014091F9
:1022E000AE015091AF0129833A834B835C838FBF4A
:1022F00069817A818B819C810F900F900F900F9054
:10230000DF91CF9108951F921FB61F9211248F93D2
:102310009F93AF93BF938091AC019091AD01A09139
:10232000AE01B091AF010F96A11DB11D8093AC011C
:102330009093AD01A093AE01B093AF018091B00135
:102340009DE5980F9D3750F49093B001BF91AF91E8
:102350009F918F911F901FBE1F9018958052809360
:10236000B0018091AC019091AD01A091AE01B0910E
:10237000AF010196A11DB11D8093AC019093AD01F9
:10238000A093AE01B093AF01E1CF00D000D0CDB7A4
:10239000DEB70E94020480E00E944D0B0E94B6004E
:1023A0006DEC7CEC8CEC9DE30E94AA0562E190E070
:1023B00080E00E94890D6EE081E090E00E94890D2E
:1023C00060E271EA87E090E00E94A00980E090E07E
:1023D0000E94121490939F0180939E0180919E0110
:1023E00090919F010E94D00384E6F82E04E610E04D
:1023F0000E94D6029C0181608F3F9F4129F48CE5A9
:10240000820F0E946304F4CF80919E0190919F01FE
:10241000AC01421B530BF49EC001F59E900D11249C
:102420006EEB70E00E945C1270939B0160939A01C6
:1024300080919A0190919B018536910520F010932F
:102440009B0100939A0180919A0190919B019C01BC
:1024500050E040E029833A834B835C83CA01B90191
:102460000E94560F88E690E00E94400F80919A01EA
:1024700090919B0161E00E940C033FEF41EE54E01C
:10248000315040405040E1F700C00000B1CFEAE8D1
:10249000F1E082E0838382831582148211821082AC
:1024A0001682EEE7F1E081E0838382831582148255
:1024B0001182108216820895AA1BBB1B51E107C02E
:1024C000AA1FBB1FA617B70710F0A61BB70B881FC4
:1024D000991F5A95A9F780959095BC01CD01089553
:1024E000A1E21A2EAA1BBB1BFD010DC0AA1FBB1F18
:1024F000EE1FFF1FA217B307E407F50720F0A21B8A
:10250000B30BE40BF50B661F771F881F991F1A94F6
:1025100069F760957095809590959B01AC01BD0120
:10252000CF0108950E94AB12A59F900DB49F900D0E
:10253000A49F800D911D11240895B7FF0C94921251
:102540000E949212821B930B0895EE0FFF1F0590BD
:10255000F491E02D0994A29FB001B39FC001A39F05
:10256000700D811D1124911DB29F700D811D1124CC
:10257000911D08950E942B1308F481E008950E9494
:10258000571388F09F5798F0B92F9927B751B0F09B
:10259000E1F0660F771F881F991F1AF0BA95C9F7E7
:1025A00014C0B13091F00E947113B1E008950C9401
:1025B0007113672F782F8827B85F39F0B93FCCF3B4
:1025C000869577956795B395D9F73EF49095809564
:1025D000709561957F4F8F4F9F4F0895E89409C084
:1025E00097FB3EF490958095709561957F4F8F4F46
:1025F0009F4F9923A9F0F92F96E9BB279395F6955C
:10260000879577956795B795F111F8CFFAF4BB0FD9
:1026100011F460FF1BC06F5F7F4F8F4F9F4F16C03D
:10262000882311F096E911C0772321F09EE8872FC7
:10263000762F05C0662371F096E8862F70E060E083
:102640002AF09A95660F771F881FDAF7880F9695FC
:10265000879597F90895990F0008550FAA0BE0E8A0
:10266000FEEF16161706E807F907C0F01216130654
:10267000E407F50798F0621B730B840B950B39F494
:102680000A2661F0232B242B252B21F408950A26FA
:1026900009F4A140A6958FEF811D811D089557FD76
:1026A0009058440F551F59F05F3F71F04795880FC0
:1026B00097FB991F61F09F3F79F087950895121657
:1026C00013061406551FF2CF4695F1DF08C0161603
:1026D00017061806991FF1CF8695710561050894B4
:1026E0000895E894BB2766277727CB0197F90895CB
:1026F0000E942B1308F48FEF08950E9490130C94FE
:1027000001140E94F31338F00E94FA1320F095236D
:1027100011F00C94EA130C94F01311240C9472131E
:102720000E944F1370F3959FC1F3950F50E0551F12
:10273000629FF001729FBB27F00DB11D639FAA2716
:10274000F00DB11DAA1F649F6627B00DA11D661F65
:10275000829F2227B00DA11D621F739FB00DA11D86
:10276000621F839FA00D611D221F749F3327A00D40
:10277000611D231F849F600D211D822F762F6A2FDC
:1027800011249F5750409AF0F1F088234AF0EE0F41
:10279000FF1FBB1F661F771F881F91505040A9F76E
:1027A0009E3F510580F00C94EA130C9472135F3F26
:1027B000E4F3983ED4F3869577956795B795F795AA
:1027C000E7959F5FC1F7FE2B880F911D9695879522
:1027D00097F9089597F99F6780E870E060E00895A1
:1027E0009FEF80EC089500240A9416161706180629
:1027F0000906089500240A94121613061406050605
:102800000895092E0394000C11F4882352F0BB0F95
:1028100040F4BF2B11F460FF04C06F5F7F4F8F4FF8
:102820009F4F0895A8E1B0E042E050E00C941A14E4
:10283000DC01CB01FC01F999FECF06C0F2BDE1BD80
:10284000F89A319600B40D9241505040B8F708956F
:04285000F894FFCF2A
:10285400011401003F065B4F666D7D077F6F00C664
:10286400CC183066C600527CC6CEDEF6E67C00305C
:102874007030303030FC0078CC0C3860CCFC007800
:10288400CC0C380CCC78001C3C6CCCFE0C1E00FC30
:10289400C0F80C0CCC78003860C0F8CCCC7800FCC4
:1028A400CC0C183030300078CCCC78CCCC78007894
:1028B400CCCC7C0C18700030313233343536373898
:0828C40039414243444546003E
:00000001FF
