:100000000BC024C023C022C021C020C0A6C01EC077
:100010001DC01CC01BC01AC011241FBECFEDCDBF18
:1000200010E0A0E6B0E0E0E9F6E003C0C895319644
:100030000D92A83BB107D1F710E0A8EBB0E001C0EA
:100040001D92A53CB107E1F70FD220C3D9CF000024
:1000500090E0C098000087FF02C0C29A01C0C29819
:10006000C09A9F5F983011F0880FF3CF0895DF9208
:10007000EF92FF920F931F93182FF62EE42ED22E9D
:10008000C198E5DF8F2DE3DF812FE1DF8E2DDFDFEC
:10009000812FDDDF8D2DDBDF812FD9DF802FD7DFB3
:1000A00082E088BB1F910F91FF90EF90DF90089541
:1000B0000F931F93DF93CF930F92CDB7DEB791E0ED
:1000C000892F60E070E040E050E020E030E000E0A8
:1000D00010E09983CCDF99819F5F993089F70F9069
:1000E000CF91DF911F910F9108950F931F9387B3C5
:1000F000876087BB89E060E070E040E050E020E08E
:1001000030E000E010E0B3DF8AE060E070E040E063
:1001100050E020E030E0ABDF8BE067E070E047E0EC
:1001200050E027E030E007E010E0A1DF8CE061E084
:1001300070E041E050E021E030E001E010E097DFC6
:100140008FE060E070E040E050E020E030E000E070
:1001500010E08DDF1F910F9108951F920F920FB63F
:100160000F9211248F939F93AF93BF938091BC0004
:100170009091BD00A091BE00B091BF000196A11D5D
:10018000B11D8093BC009093BD00A093BE00B093BE
:10019000BF00BF91AF919F918F910F900FBE0F90B5
:1001A0001F9018951F93C39A8AE18A95F1F788B337
:1001B00018BA1092BC001092BD001092BE001092AE
:1001C000BF00B69BFECF8091BC009091BD00A09176
:1001D000BE00B091BF008C5B9240A040B04089F35C
:1001E00012BE1092BC001092BD001092BE00109280
:1001F000BF00B69B0DC08091BC009091BD00A09146
:10020000BE00B091BF008C5B9240A040B04089F727
:1002100012B76091BC007091BD008091BE009091BA
:10022000BF002FEF30E040E050E0DCD1610F711DE6
:10023000811D911D22ED31E040E050E0EED1842F90
:10024000952F622F732F1F9108959F92AF92BF92A7
:10025000CF92DF92EF92FF920F931F93DF93CF9392
:10026000CDB7DEB72A970FB6F894DEBF0FBECDBF6D
:10027000E62EF72E082F192FD42E8091C0008F5F05
:100280008093C0008091C000843119F41092C000A6
:100290002CDF9FB6F894DD2019F0AA24BB2403C0FC
:1002A00042E0A42EB12C80EB90E09A838983912FB9
:1002B000802F7F2D6E2D2AE030E040E050E0ADD160
:1002C00033E0660F771F3A95E1F7605A7F4F7C83E2
:1002D0006B83912F802F7F2D6E2D2AE030E040E040
:1002E00050E09BD1952F842F732F622F2AE030E0AE
:1002F00040E050E092D123E0660F771F2A95E1F7A6
:10030000605A7F4F7E836D83912F802F7F2D6E2DBE
:1003100024E630E040E050E080D1952F842F732F09
:10032000622F2AE030E040E050E077D193E0660FA2
:10033000771F9A95E1F7605A7F4F78876F83912FE7
:10034000802F7F2D6E2D28EE33E040E050E065D108
:10035000952F842F732F622F2AE030E040E050E089
:100360005CD183E0660F771F8A95E1F7605A7F4F73
:100370007A876987CC2EDD2E0894C11CD11CCA0C4B
:10038000DB1CEE24FF24AC2DBD2DED91FC911197CB
:10039000EE0DFF1D60811296ED91FC911397EE0D0D
:1003A000FF1D40811496ED91FC911597EE0DFF1DF8
:1003B00020811696ED91FC911797EE0DFF1D00819F
:1003C0008E2D8F5F70E050E030E010E050DE08943A
:1003D000E11CF11CB8E0EB16F104A9F69FBE2A96C9
:1003E0000FB6F894DEBF0FBECDBFCF91DF911F9146
:1003F0000F91FF90EF90DF90CF90BF90AF909F90C4
:100400000895EF92FF920F931F93CF93DF93E82EFF
:10041000F92E00E010E0C8ECD0E0912F802F7F2D66
:100420006E2D40E012DF80E197E2EC2FFD2F319737
:10043000F1F70197D1F7F1CF40E007DF80E197E2D4
:1004400028EC30E0E22FF32F3197F1F70197D1F745
:100450002FDE80ED97E028EC30E0E22FF32F31978C
:10046000F1F70197D1F70895CF92DF92EF92FF92C3
:100470000F931F93CF93DF9338DEBB9A88B38074BA
:1004800088BB81E083BF82E089BF789480E090E000
:10049000EBD06093B8007093B9008093BA0090934A
:1004A000BB006091B8007091B9008091BA00909142
:1004B000BB00C2DFEE24FF2400271127C0E0D0E0FC
:1004C00058ECC52ED12C3DC06DDE6093C1007093F9
:1004D000C2008093C3009093C4008091C1009091AA
:1004E000C200A091C300B091C400833D9105A10555
:1004F000B10560F48091C1009091C200A091C30049
:10050000B091C4000A97A105B10530F469EE73E01B
:1005100080E090E091DF15C02091C1003091C200D1
:100520004091C3005091C40084EF91E0EC2DFD2D6B
:100530003197F1F70197D1F7E20EF31E041F151F53
:100540002196C431D1050CF4BFCF912F802F7F2D80
:100550006E2D24E130E040E050E05FD0E22EF32E3B
:10056000042F152F6091B8007091B9008091BA00E6
:100570009091BB006E197F09800B910B24E630E04F
:1005800040E050E02FD02EEB30E040E050E045D08E
:100590002536310590F08EEB90E0A0E0B0E0E80E5B
:1005A000F91E0A1F1B1FE092B800F092B9000093D9
:1005B000BA001093BB0024E630E0622F732F80E076
:1005C00090E041E042DE88E893E1EC2DFD2D31978B
:1005D000F1F70197D1F7EE24FF2400271127C0E09F
:1005E000D0E0AFCFFF27EE27BB27AA2760FF04C0CC
:1005F000A20FB31FE41FF51F220F331F441F551F07
:10060000969587957795679589F70097760771F79F
:100610009F2F8E2F7B2F6A2F0895A1E21A2EAA1BDF
:10062000BB1BEA2FFB2F0DC0AA1FBB1FEE1FFF1F16
:10063000A217B307E407F50720F0A21BB30BE40BE6
:10064000F50B661F771F881F991F1A9469F760952D
:10065000709580959095262F372F482F592F6A2F08
:100660007B2F8E2F9F2F0895A6E144E002C0A82F74
:10067000862FE82FE199FECF1FBA05C0EEBBE09AA6
:10068000E3950DB20D924150C8F70895F894FFCF4D
:100690007CC6CEDEF6E67C00307030303030FC00B8
:1006A00078CC0C3860CCFC0078CC0C380CCC7800C2
:1006B0001C3C6CCCFE0C1E00FCC0F80C0CCC780072
:1006C0003860C0F8CCCC7800FCCC0C18303030004E
:1006D00078CCCC78CCCC780078CCCC7C0C18700062
:0806E00000C6CC183066C6000C
:00000001FF
