:100000000C943E000C9466000C9466000C94660000
:100010000C9466000C9466000C9466000C946600C8
:100020000C9466000C9466000C9466000C945804C2
:100030000C9466000C9466000C945F120C9466009D
:100040000C9466000C9466000C9466000C94660098
:100050000C9466000C9466000C9466000C94660088
:100060000C9466000C946600252000636D2000202F
:10007000003A20000A2020202000881311241FBEEF
:10008000CFEFD8E0DEBFCDBF11E0A0E0B1E0ECEBF8
:10009000FBE202C005900D92A837B107D9F721E025
:1000A000A8E7B1E001C01D92AB3CB207E1F710E058
:1000B000CEE3D0E004C02197FE010E94EC13CD33C3
:1000C000D107C9F70E94A1120C94DC150C94000012
:1000D0008091B0019091B1018093A701089581E0D2
:1000E00090E09093030180930201EFE9F1E08381B6
:1000F0008283158214821182108216820895000074
:1001000098E02898000087FF06C02A9A289A880F4E
:100110009150B9F708952A98F9CFFF920F931F9342
:10012000CF93DF93C82FF62E142FD22F29980E9439
:100130007F008F2D0E947F008C2F0E947F00812FD7
:100140000E947F008C2F0E947F008D2F0E947F00D5
:100150008C2F0E947F00802F0E947F0082E085B953
:10016000DF91CF911F910F91FF9008950F931F93EF
:1001700084B1876084B910E000E030E020E050E016
:1001800040E070E060E089E00E948D0030E020E017
:1001900050E040E070E060E08AE00E948D0007E0FF
:1001A00010E027E030E047E050E067E070E08BE0EF
:1001B0000E948D0001E010E021E030E041E050E0DD
:1001C00061E070E08CE00E948D0010E000E030E023
:1001D00020E050E040E070E060E08FE00E948D00A1
:1001E0001F910F9108950F931F93CF93C1E010E0DB
:1001F00000E030E020E050E040E070E060E08C2F74
:100200000E948D00CF5FC93091F7CF911F910F9160
:100210000895559A569A579A08955F9A8AE18A9551
:10022000F1F700C05F988AE18A95F1F700C0089560
:1002300027E030E090E0AC01022E02C055954795D2
:100240000A94E2F740FF0FC05D9A5E9A4AE14A9530
:10025000F1F700C05E984AE14A95F1F700C02150DD
:10026000310948F708955D98F0CFCF92DF92EF9271
:10027000FF920F931F93CF93DF9300D000D0CDB7A1
:10028000DEB71A821982042F10E02AE0C22ED12C88
:10029000E12CF12C29813A81201731076CF4A70158
:1002A00096010E94B713B901CA0129813A812F5FD3
:1002B0003F4F3A832983EECF2AE030E040E050E020
:1002C0000E94B71369837A838B839C83E981FA81C7
:1002D000EC5FFE4F80810F900F900F900F90DF9199
:1002E000CF911F910F91FF90EF90DF90CF900895E5
:1002F000CF93DF9300D000D0CDB7DEB7262F853661
:10030000910510F084E690E06AE070E00E94A3138B
:10031000CB0101966BE070E00E94A31340E050E037
:10032000BA01815030F0440F551F661F771F41609E
:10033000F8CFDB01CA0104C0880F991FAA1FBB1F99
:100340002A95D2F7BC01CD010F900F900F900F901E
:10035000DF91CF91089530E020E090E0682F70E0C9
:10036000AB01022E02C0559547950A94E2F7417001
:10037000990F942B2F5F3F4F2830310589F7892F34
:1003800008950F931F93CF93DF9300D000D000D038
:10039000CDB7DEB7809102019091030102E911E02F
:1003A000019711F40FE911E01E830D830E943F12A3
:1003B000462F572FBC0180918E0190918F01A09103
:1003C0009001B0919101892B8A2B8B2B91F1809117
:1003D0008E0190918F01A0919001B09191018A01BD
:1003E0009B01081B190B2A0B3B0BAD81BE81159697
:1003F0008C91159715961C92811116C084EF91E08F
:10040000A0E0B0E0081719072A073B0790F4809195
:100410008D0126960FB6F894DEBF0FBECDBFDF91DB
:10042000CF911F910F91089584E690E0A0E0B0E095
:10043000E9CF40938E0150938F01609390017093A8
:10044000910180910201909103010197E1F4809163
:10045000AC018823C1F01092030110920201809335
:100460009A018091AD018093AC018091AE0180939F
:10047000AD018091AF018093AE011092AF0102E90E
:1004800011E01E830D83AD81BE818D919C911197EA
:1004900081309105E9F08230910509F454C0892B2F
:1004A00089F41996ED91FC91309709F00995ED8149
:1004B000FE818381828381E090E0918380838483C5
:1004C00087818683ED81FE81868180938D01A1CF16
:1004D000AD81BE8114968C911497882351F01696A5
:1004E0001C92169714961C92149781E015968C9383
:1004F000E9CF81E0ED81FE81848342818085082FF0
:1005000010E030E020E009831A832B833C83C9018B
:10051000B8010E943501AD81BE8116968C93169765
:1005200012968C911297811108C082E090E011968A
:100530009C938E9314961C92C5CFED81FE8182818F
:1005400081508283BFCFAD81BE8113968C9113976A
:1005500012968C93129715961C92159714961C92CE
:10056000149711961C921E9216961C9216971B9623
:10057000ED91FC91309709F4A5CF0995A3CFCF92C7
:10058000DF92EF92FF928091B0019091B10167E00C
:100590000E9478016B017C010E94C101C82A8D2D47
:1005A0000E94AB010E9418018C2D0E941801E0FEF0
:1005B00007C05C9AFF90EF90DF90CF900C940D01F4
:1005C0005C98F8CF0F931F93CF93DF93CDB7DEB72F
:1005D0002D970FB6F894DEBF0FBECDBF8C01CE01B4
:1005E00001960E94EF078091B2019091B3016AE0F9
:1005F00070E00E94A313D8016D937C93B0E0A0E05B
:10060000CD010E9432108BE690E00E941C1081E028
:100610002D960FB6F894DEBF0FBECDBFDF91CF9100
:100620001F910F9108959B01FC0170E060E090E044
:1006300080E06217730739F041915191840F951F43
:100640006F5F7F4FF6CF0E94A313CB0108958F9267
:100650009F92BF92CF92DF92EF92FF920F931F93E0
:10066000CF93DF93CDB7DEB72A970FB6F894DEBFEE
:100670000FBECDBF7C01D62E809178018F5F809315
:100680007801843121F4109278010E94B600BFB63F
:10069000F8948EE091E09A8389832AE030E0C701E4
:1006A000B9010E94A31343E0880F991F4A95E1F70F
:1006B000895E9E4F9C838B83CB01B9010E94A3135B
:1006C00053E0880F991F5A95E1F7895E9E4F9E83EC
:1006D0008D83C70164E670E00E94A313CB01B901CA
:1006E0000E94A31363E0880F991F6A95E1F7895E62
:1006F0009E4F98878F83C70168EE73E00E94A31313
:10070000CB01B9010E94A31373E0880F991F7A955A
:10071000E1F7895E9E4F9A87898781E0D11080E05A
:10072000C82ED12CCC0CDD1C81E090E08C0F9D1FDD
:10073000C80ED91EF12CE12C4601D6011696ED917A
:10074000FC911797EE0DFF1D008110E01496ED91BE
:10075000FC911597EE0DFF1D208130E01296ED9172
:10076000FC91EE0DFF1D408150E0D401ED91FC9114
:10077000EE0DFF1D608170E081E08E0D0E948D0006
:10078000BFEFEB1AFB0A88E0E816F104B1F6BFBE32
:100790002A960FB6F894DEBF0FBECDBFDF91CF9182
:1007A0001F910F91FF90EF90DF90CF90BF909F909F
:1007B0008F900895D82FC92F60E08D2F9C2F0E9415
:1007C00027032FEF89E698E1215080409040E1F720
:1007D00000C00000F1CF60E00E9427032FEF89E600
:1007E00098E1215080409040E1F700C000000E9455
:1007F000F3002FEF81EE94E0215080409040E1F72C
:1008000000C0000008958093B40008958BE08093A9
:10081000810082EE94E0909389008093880082E0CA
:1008200080936F000895539A83E28093B00081E033
:100830008093B1001092B40008950E94F50FE1EC8E
:10084000F0E080818F7E808382E08AB9549A0E9492
:100850008A110E9436120E9406040E9413040E940C
:1008600009018FE690E090939E0180939D0188E6B8
:1008700090E09093A9018093A801789408959091B5
:10088000010180910101953610F4843128F48091A2
:1008900000018195809300018091000190910101F8
:1008A000890F80930101809101018093B400089524
:1008B0001F920F920FB60F9211242F933F934F93D5
:1008C0005F936F937F938F939F93AF93BF93EF93B8
:1008D000FF930E943F040E94BF02FF91EF91BF91DE
:1008E000AF919F918F917F916F915F914F913F91C8
:1008F0002F910F900FBE0F901F901895ECEAF1E02A
:1009000092819383918192839081918380830895D2
:100910002F923F924F925F926F927F928F929F920F
:10092000AF92BF92CF92DF92EF92FF920F931F93FD
:10093000CF93DF93CDB7DEB72A970FB6F894DEBF1B
:100940000FBECDBF10E000E0CE0101960E94E20292
:10095000811164C08981845A0E947E040A30110585
:1009600099F76AE070E089E791E00E9413032C0197
:10097000712C612C89E7E82E81E0F82ED12CC12C56
:100980009BE8292E91E0392EAFEFCA1ADA0A8701C7
:100990002016310609F456C0F701A080B180D801B5
:1009A00012968D909C90D301C2018A199B09A109CE
:1009B000B1098B839C83AD83BE83BC01CD010E94B2
:1009C000A2146F83788789879A87D301C201881917
:1009D0009909A109B1098B839C83AD83BE83BC01B6
:1009E000CD010E94A2149B01AC019F819B83A8852D
:1009F000AC83B985BD83EA85EE836B817C818D8173
:100A00009E810E945415181634F4D7018D929C9241
:100A1000F801B382A2820E5F1F4FBACF89819A81FB
:100A20009093B3018093B2018091B2019091B30190
:100A3000F801EE0FFF1FE758FE4F918380830F5F91
:100A40001F4F8CCF82E0E80EF11C9AE0C916D1044A
:100A500009F09ACF65E070E089E791E00E94130306
:100A60002A960FB6F894DEBF0FBECDBFDF91CF91AF
:100A70001F910F91FF90EF90DF90CF90BF90AF90BC
:100A80009F908F907F906F905F904F903F902F90AE
:100A900008950F931F930097B9F00197B0E0A0E07D
:100AA00050E040E08C019D010027012B022B032B1D
:100AB00039F0B695A795979587954F5F5F4FF2CF21
:100AC000342F2227822B932B1F910F910895CF93C0
:100AD000DF93D82FC62F809116010E9490118D2F81
:100AE0000E94F2118C2F0E94F211DF91CF910C9491
:100AF000E6111F93CF93DF93182FEB01809116011E
:100B00000E949011812F0E94F2118D2F0E94F211EC
:100B10008C2F0E94F211DF91CF911F910C94E6115E
:100B2000FF920F931F93CF93DF93F82EEA01162FB6
:100B3000072F809116010E9490118F2D0E94F211B3
:100B4000802F0E94F211812F0E94F2118D2F0E949E
:100B5000F2118C2F0E94F211DF91CF911F910F9112
:100B6000FF900C94E611CF93C82F809116010E943C
:100B700090118C2F0E94F2118091160181600E94C9
:100B8000E4110E941912C82F0E94E6118C2FCF91F8
:100B90000895CF93DF93C82F809116010E94901182
:100BA0008C2F0E94F2118091160181600E94E41145
:100BB0000E940912C82FD0E0DC2FCC270E94191206
:100BC000C82B0E94E611CE01DF91CF910895CF92FC
:100BD000DF92EF92FF92CF93DF9300D000D0CDB79A
:100BE000DEB78983809116010E94901189810E944D
:100BF000F2118091160181600E94E4110E94091295
:100C000090E0B0E0A0E0F82EEE24DD24CC240E9499
:100C10000912E82A0E94091289830E941912C82A1F
:100C2000D701C6012981922B89839A83AB83BC8328
:100C30000E94E61169817A818B819C810F900F90CF
:100C40000F900F90DF91CF91FF90EF90DF90CF90BA
:100C50000895FF920F931F93CF93DF93C82FF62E23
:100C6000072F142F809116010E9490118C2F0E9443
:100C7000F211115040F0CF2DD02F89910E94F21126
:100C8000FC2E0D2FF6CFDF91CF911F910F91FF908A
:100C90000C94E611EF92FF920F931F93CF93DF9383
:100CA000082FEB01142F809116010E949011802FC4
:100CB0000E94F2118091160181600E94E4111123BB
:100CC00079F07E018FEFE81AF80A123030F00E94B6
:100CD000091288831150E701F2CF0E941912F9CF4F
:100CE000DF91CF911F910F91FF90EF900C94E6113F
:100CF000CF93C82F682F66958AE80E946705C09336
:100D00001601CF9108958091160108950F931F93B6
:100D1000CF93DF9300D000D000D0CDB7DEB78B01EA
:100D20008E839D8320E030E0A90169831A838B8341
:100D30009C8369817A818B819C810E946E1487FDDE
:100D40002FC028EB3EEF4FEF53E469817A818B810E
:100D50009C810E94541518161CF120E030E040E000
:100D600053E469817A818B819C810E945915698342
:100D70007A838B839C8369817A818B819C810E9499
:100D8000731484E40E94790581E026960FB6F894E6
:100D9000DEBF0FBECDBFDF91CF911F910F910895A0
:100DA00080E0F3CFCF93DF9300D000D0CDB7DEB794
:100DB00084E40E94C9059C0150E040E029833A8305
:100DC0004B835C83CA01B9010E94A21420E030E089
:100DD00040E05CE369837A838B839C8369817A81B9
:100DE0008B819C810E94591569837A838B839C83B4
:100DF00069817A818B819C810F900F900F900F9069
:100E0000DF91CF9108959C0180E52115310521F0F6
:100E10002130310531F480E70E94B3058F5F880FE0
:100E200008958FEF0895CF92DF92EF92FF926B01BA
:100E30007C0161E080E80E94670561E08FEF0E941D
:100E4000670560E080E00E9467056091C00181E96C
:100E50000E94670561E080E00E94670560E08FEF17
:100E60000E94670560E080E80E94670562E0C114A7
:100E7000D104E104F10491F088EF0E94C905DC017E
:100E8000892B31F0A70196010E94D9136B017C01D7
:100E9000B701A60184E00E94900564E080E0FF9025
:100EA000EF90DF90CF900C94670561E080E00E94A6
:100EB000670561E08FEF0E94670560E080E00E94B7
:100EC000670560E081E90E94670561E080E00E94BB
:100ED000670560E08FEF0C946705EF92FF920F9328
:100EE0001F93CF93DF93CDB7DEB760970FB6F8941B
:100EF000DEBF0FBECDBF7C010E943F127093C201C6
:100F00006093C10183E10E94B305877079F58091F8
:100F1000C4019091C501892BA9F30E943F126D87EE
:100F20007E878F87988B8091C1019091C2012D851A
:100F30003E85281B390BC9012091C4013091C501A0
:100F400028173907F8F681E08093C3010FEF1FEFF0
:100F5000C80160960FB6F894DEBF0FBECDBFDF911B
:100F6000CF911F910F91FF90EF900895E114F1043C
:100F700049F48EE10E94C9058C0161E08BE00E947A
:100F80006705E6CF4CE0BE016F5F7F4F84E10E94B2
:100F90004A06898190E023E0959587952A95E1F7A7
:100FA000F70180878B819C819827892798279783D1
:100FB00086838F81988598278927982793838283B2
:100FC00089859A85982789279827958384830B8517
:100FD0001C8510270127102711830083CECFCF93C4
:100FE000DF9300D000D000D0CDB7DEB78E839D83D5
:100FF00061E080E80E94670561E08FEF0E9467056D
:1010000060E080E00E9467056091C00181E90E9474
:10101000670561E080E00E94670560E08FEF0E9455
:10102000670560E080E80E94670561E080E00E945B
:1010300067050E943F127093C2016093C10180E076
:101040000E94B30580FF2AC08091C4019091C50120
:10105000892BA9F30E943F1269837A838B839C8337
:101060008091C1019091C20129813A81281B390BDD
:10107000C9012091C4013091C50128173907F8F63C
:1010800081E08093C3018FEF9FEF26960FB6F8940F
:10109000DEBF0FBECDBFDF91CF9108958E819D81C0
:1010A00026960FB6F894DEBF0FBECDBFDF91CF916D
:1010B0000C946D078091C3011092C3010895909321
:1010C000C5018093C40108958091C4019091C50128
:1010D0000895EF92FF920F931F93CF93DF9300D069
:1010E00000D00F92CDB7DEB77C018B0161E080E8C4
:1010F0000E94670561E08FEF0E94670560E080E075
:101100000E94670566E08FEF0E94670583E80E94F2
:10111000B305682F646083E80E94670567E08FEF7E
:101120000E94670561E081E80E94670561E080E850
:101130000E9467056BE684E90E94670560E083E82A
:101140000E9467050E943F127093C2016093C10123
:1011500083E80E94B3058D83811129C08091C40169
:101160009091C501892BA1F30E943F1269837A8374
:101170008B839C838091C1019091C20129813A8126
:10118000281B390BC9012091C4013091C5012817D2
:101190003907F0F68D810F900F900F900F900F9000
:1011A000DF91CF911F910F91FF90EF90089561E033
:1011B00083E80E94670582E90E94B305982F9F7714
:1011C000F7019083881F8827881FF801808360E0DB
:1011D00081E80E94670566E08FEF0E94670583E85B
:1011E0000E94B305682F6B7F83E80E94670561E06A
:1011F0008FEF0E94670561E080E00E94670560E074
:101200008FEF0E94670560E080E80E946705F1E0CB
:10121000FD83C0CFCF93DF93EC0181E00E94B30543
:1012200084FB992790F9988383FB992790F99A83F7
:1012300082FB992790F9998386FB992790F99B83E4
:10124000881F8827881F8C83DF91CF9108954F9244
:101250005F926F927F928F929F92AF92BF92EF9226
:10126000FF920F931F93CF93DF93CDB7DEB72A97EB
:101270000FB6F894DEBF0FBECDBF8C0169877A87A9
:1012800090E080E00E94030790E0A985BA858D93E5
:101290009C9386E40E94B305E82EF12CBFEFEB1A75
:1012A000FB0AE985FA85F582E482A081B0E020E0BE
:1012B0003FE24AE350E00E94D913DC01CB018C509D
:1012C0009E4FAF4FBF4F89839A83AB83BC8338EE69
:1012D000832E33E0932EA12CB12CBC01CD01A501AE
:1012E00094010E94B713D7010E94E4136D837E839B
:1012F0008F83988740ED442E47E0542E612C712C4B
:1013000069817A818B819C81A30192010E94B7132C
:101310008D819E81AF81B885820F931FA41FB51F59
:101320008D839E83AF83B887BC01CD01A501940155
:101330000E94B713A985BA851A962D933D934D93B4
:101340005C931D9781E50E94C905E82EF12C02C02F
:10135000EE0CFF1C9A95E2F7BFEFEB1AFB0AE9854A
:10136000FA85F782E682A081B0E020E03FE24AE31E
:1013700050E00E94D913DC01CB018C509E4FAF4F3F
:10138000BF4F89839A83AB83BC83BC01CD01A50188
:1013900094010E94B713D7010E94D9136D837E83F5
:1013A0008F83988769817A818B819C81A3019201C7
:1013B0000E94B7138D819E81AF81B885820F931FE4
:1013C000A41FB51F8D839E83AF83B887BC01CD0159
:1013D000A50194010E94B713A985BA851E962D9385
:1013E0003D934D935C93519780E70E94B3058F5FC7
:1013F000880F90E0E985FA859383828381E70E94D4
:10140000C905292F90E002C0880F991F2A95E2F79D
:101410000196A985BA8519969C938E931897F80121
:101420002381222351F016962D913C911797821B10
:10143000930B19969C938E931897E985FA85A28150
:10144000B0E020E03FE24AE350E00E94D913DC0123
:10145000CB018C509E4FAF4FBF4F89839A83AB8394
:10146000BC8328EE822E23E0922EA12CB12CBC014D
:10147000CD01A50194010E94B713E985FA85A085E5
:10148000B1850E94D9136D837E838F83988769818C
:101490007A818B819C8120ED37E040E050E00E9412
:1014A000B7138D819E81AF81B885820F931FA41FD2
:1014B000B51FBC01CD01A50194010E94B713A985F8
:1014C000BA8552962D933D934D935C9355972A96EA
:1014D0000FB6F894DEBF0FBECDBFDF91CF911F9145
:1014E0000F91FF90EF90BF90AF909F908F907F9063
:1014F0006F905F904F9008958F929F92AF92BF929E
:10150000CF92DF92EF92FF921F93CF93DF93CDB7ED
:10151000DEB7A3970FB6F894DEBF0FBECDBF4B0169
:101520005C0120E282162EE49206A104B10408F4C4
:10153000CCC0CE0147960E940A09BE016F5F7F4F63
:10154000CE0147960E9427098F89882309F4ABC0F2
:101550008B859C85AD85BE858A5C944FAF4FBF4F10
:10156000298D222309F4A4C04B855C856D857E8579
:101570004E545D4F6F4F7F4F440F551F661F771FAF
:10158000840F951FA61FB71F1A8D112361F04F8579
:10159000588969897A894C565D4F6F4F7F4F840F08
:1015A000951FA61FB71F2B8D222309F469C06C015C
:1015B0007D0126E2C20E22E0D21EE11CF11C8C1439
:1015C0009D04AE04BF0408F480C0AB81B0E020E00D
:1015D0003FE24AE350E00E94D913DC01CB018C507A
:1015E0009E4FAF4FBF4F8C8F9D8FAE8FBF8FA5018A
:1015F00094012C193D094E095F09A8EEB3E00E9441
:10160000D91368A379A38AA39BA36C8D7D8D8E8D3E
:101610009F8D20ED37E040E050E00E94B71388A195
:1016200099A1AAA1BBA1820F931FA41FB51F88A3D4
:1016300099A3AAA3BBA36C8D7D8D8E8D9F8D28EE63
:1016400033E040E050E00E94B71368A179A18AA17D
:101650009BA10E94B713C901112321F08F819885A6
:10166000820F931F0E944905BC0181E70E94790502
:101670008092BC019092BD01A092BE01B092BF01C8
:1016800081E0A3960FB6F894DEBF0FBECDBFDF9109
:10169000CF911F91FF90EF90DF90CF90BF90AF90D0
:1016A0009F908F90089588EE98E0A0E0B0E058CF2A
:1016B000288D222309F468CF4B855C856D857E8556
:1016C0004C565D4F6F4F7F4F5BCF80E0DACF0F936B
:1016D0001F93CF93DF93CDB7DEB76B970FB6F89418
:1016E000DEBF0FBECDBFCE0147960E940A09BE01E4
:1016F0006F5F7F4FCE0147960E9427098F8988230D
:1017000009F44DC06B857C858D859E856C57724F25
:101710008F4F9F4F298D222309F446C00B851C85CE
:101720002D853E850E541D4F2F4F3F4F000F111F2B
:10173000221F331F600F711F821F931F2A8D2223C8
:1017400061F00F85188929893A890C561D4F2F4F52
:101750003F4F600F711F821F931F2B8D222361F05B
:101760000B891C892D893E890A5D1D4F2F4F3F4FE4
:10177000600F711F821F931F6093BC017093BD01A6
:101780008093BE019093BF016B960FB6F894DEBFB5
:101790000FBECDBFDF91CF911F910F91089566E3EA
:1017A0007BE080E090E0B6CF288D222339F20B85D4
:1017B0001C852D853E850C561D4F2F4F3F4FBACFB0
:1017C000CF93DF9300D000D00F92CDB7DEB7682F54
:1017D000616080E00E9467050E943F127093C20121
:1017E0006093C10183E10E94B30587708D838111ED
:1017F00025C08091C4019091C501892B99F30E9465
:101800003F1269837A838B839C838091C10190917D
:10181000C20129813A81281B390BC9012091C401D9
:101820003091C50128173907E8F68D810F900F9088
:101830000F900F900F90DF91CF91089561E08BE0B2
:101840000E94670560E080E00E94670531E03D830B
:10185000ECCF0F931F93CF93DF93CDB7DEB72C97C9
:101860000FB6F894DEBF0FBECDBF882341F089E8E4
:101870000E94B305682F616089E80E94670560E0F7
:1018800088E80E94670561E080E80E94670561E0E2
:101890008FEF0E94670560E080E00E94670581E9A4
:1018A0000E94B3058093C00161E080E00E9467055B
:1018B00060E08FEF0E94670560E080E80E946705A6
:1018C00080E60E94B305682F626180E60E9467058A
:1018D00060E270E084E40E9479056FEF81E00E948D
:1018E0006705BE01695F7F4FCE0108960E946908B7
:1018F00081110CC080E02C960FB6F894DEBF0FBEAD
:10190000CDBFDF91CF911F910F91089546E0BE01A9
:101910006F5F7F4F80EB0E944A0661E08FEF0E946D
:10192000670560E08FE40E9467056CE28EE40E9428
:10193000670560E08FEF0E94670564EB86EB0E940D
:1019400067059F8191119CE0B88580E0A0E001E0EF
:1019500010E0482F46954695469550E021E030E04E
:101960002C0F3D1F240F351FF9012081682F677050
:10197000891710F0BA139FC1E1E0F0E0EC0FFD1FF2
:101980004E0F5F1FF80102C0EE0FFF1F6A95E2F7CE
:10199000BF0160952623FA0120838F5F8033C9F64B
:1019A00046E0BE016F5F7F4F80EB0E94290661E039
:1019B0008FEF0E94670560E080E00E94670560E0AD
:1019C0008FEF0E94670560E089E00E94670560E094
:1019D00080E10E94670560E081E10E94670561E0A7
:1019E00084E20E9467056FEF85E20E94670560E070
:1019F00085E70E94670561E08FEF0E9467056CE252
:101A00008EE40E94670560E088E40E94670560E25A
:101A100080E30E94670560E08FEF0E94670569E040
:101A200080E30E94670560E084E50E94670564E04A
:101A300081E30E94670563E082E30E94670563E833
:101A400080E40E94670565E286E40E94670560E025
:101A500080E60E94670560E087E20E94670566E015
:101A600080E50E94670560E081E50E94670566E900
:101A700082E50E94670568E086E50E94670560E3ED
:101A800087E50E94670560E081E60E94670560E0E7
:101A900082E60E94670560E084E60E94670560E0D8
:101AA00085E60E94670560EA86E60E94670561E0B8
:101AB0008FEF0E94670562E382E20E94670564E19E
:101AC00087E40E9467056FEF89E40E94670560E084
:101AD0008AE40E94670560E08FEF0E9467056AE074
:101AE0008AE70E94670560E08BE70E94670561E274
:101AF00088E70E94670561E08FEF0E94670564E355
:101B000083E20E94670560E082E40E9467056FEF50
:101B100084E40E94670566E285E40E94670565E04B
:101B200086E40E94670560E480E40E94670566E041
:101B30008EE00E9467056AE180E20E94670560E42A
:101B400083E40E94670560E08FEF0E94670563E011
:101B500084E30E94670564E485E30E94670561E011
:101B60008FEF0E94670564E081E30E94670569E0EA
:101B70008BE40E94670565E08CE40E94670564E0E1
:101B80008DE40E94670560E08FEF0E94670560E0CA
:101B900084E40E94670560E285E40E94670568E0CE
:101BA00087E40E94670568E288E40E94670560E0B8
:101BB00087E60E94670564E080E70E94670561E0B0
:101BC00081E70E9467056EEF82E70E94670560E08B
:101BD00086E70E94670560E087E70E94670561E08D
:101BE0008FEF0E94670561E08DE00E94670560E06D
:101BF0008FEF0E94670561E080E80E94670568EF4B
:101C000081E00E94670561E08FEF0E94670561E057
:101C10008EE80E94670561E080E00E94670560E051
:101C20008FEF0E94670560E080E80E94670564E02E
:101C30008AE00E94670584E80E94B305682F6F7EE2
:101C400084E80E94670561E08BE00E9467050E94BE
:101C5000670B6093BC017093BD018093BE019093AC
:101C6000BF0168EE81E00E9467058091BC01909100
:101C7000BD01A091BE01B091BF01BC01CD010E9488
:101C80007C0A61E081E00E94670580E40E94E00B2D
:101C9000882309F42FCE62E081E00E94670580E08E
:101CA0000E94E00B882309F425CE68EE81E00E94B3
:101CB000670581E020CE30E002C0359527956A9512
:101CC000E2F720FF6ACEAF5F68CE8F929F92AF920D
:101CD000BF92CF92DF92EF92FF920F931F93CF9319
:101CE000DF93CDB7DEB7A3970FB6F894DEBF0FBE74
:101CF000CDBF7C01162F062F06950150CE014796C9
:101D00000E940A09BE016F5F7F4FCE0147960E9475
:101D10002709E114F10409F0B3C0103109F4AEC091
:101D200040F41C3009F4A8C060E31E3029F080E0C4
:101D300090C060E51231D9F787E50E94670568E039
:101D400086E50E946705602F80E50E946705A12F48
:101D5000B0E020E03FE24AE350E00E94D913DC010A
:101D6000CB018C509E4FAF4FBF4F8C8F9D8FAE8F4E
:101D7000BF8FBC01CD0128EE33E040E050E00E946F
:101D8000B71349015A016C8D7D8D8E8D9F8D20ED8D
:101D900037E040E050E00E94B71369017A012F85D7
:101DA000388949895A89A8EEB3E00E94D913DC0129
:101DB000CB018C0D9D1DAE1DBF1D8C8F9D8FAE8FD9
:101DC000BF8FBC01CD01A50194010E94B713C901C9
:101DD0000E944905BC0181E50E9479052B853C855F
:101DE0004D855E85A8EEB3E00E94D913DC01CB01DE
:101DF0008C0D9D1DAE1DBF1DBC01CD01A501940123
:101E00000E94B713213091E0390710F020E031E053
:101E10006FEF620F86E40E9467058091BC0190918C
:101E2000BD01A091BE01B091BF01BC01CD010E94D6
:101E30007C0A81E00E94B305182F62E081E00E94D5
:101E4000670580E00E94E00B612F81E00E9467053A
:101E500081E0A3960FB6F894DEBF0FBECDBFDF9131
:101E6000CF911F910F91FF90EF90DF90CF90BF9097
:101E7000AF909F908F90089568E15ECF60E45CCF53
:101E8000EA94EF2809F053CF1C3009F4A0C0D8F42D
:101E9000183051F11A3009F04ACF68E288E40E9404
:101EA000670568E087E40E94670563E082E30E94BB
:101EB000670569E080E30E94670561E08FEF0E949B
:101EC000670560E226C01E3009F031CF68E488E47F
:101ED0000E94670568E087E40E94670563E082E38B
:101EE0000E94670567E0E6CF60E188E40E9467052D
:101EF00068E087E40E94670562E082E30E9467056C
:101F00006CE080E30E94670561E08FEF0E94670547
:101F100060E380E30E94670560E08FEF0E94670541
:101F2000602F80E70E946705A12FB0E020E03FE22C
:101F30004AE350E00E94D913DC01CB018C509E4F44
:101F4000AF4FBF4F8C8F9D8FAE8FBF8F2B893C893A
:101F50004D895E89A8EEB3E00E94D91368A379A3E6
:101F60008AA39BA36C8D7D8D8E8D9F8D20ED37E098
:101F700040E050E00E94B71388A199A1AAA1BBA19B
:101F8000820F931FA41FB51F88A399A3AAA3BBA365
:101F90006C8D7D8D8E8D9F8D28EE33E040E050E07E
:101FA0000E94B71368A179A18AA19BA10E94B713CF
:101FB000C9016A8D662321F08F819885820F931F56
:101FC0000E944905BC0181E70E94790526CF68E39C
:101FD00088E40E94670568E087E40E94670563E083
:101FE00082E30E94670568E065CFE4E6F0E0808167
:101FF0008D7F8083E1ECF0E08081886180831092A6
:10200000C50088E08093C400E0ECF0E0808182604D
:10201000808308959091C00095FFFCCF8093C60007
:1020200008959FE9980F963010F4875508958053CE
:102030008A3008F08FEF08951F93CF93DF93EC0160
:10204000FE011491112351F0812F0E940A101A30C1
:1020500019F48DE00E940A102196F2CFDF91CF9102
:102060001F9108958F929F92AF92BF92EF92FF922D
:102070000F931F93CF93DF93CDB7DEB72E970FB695
:10208000F894DEBF0FBECDBF6B877C878D879E87A0
:102090008E010F5F1F4F78018AE0882E912CA12CB2
:1020A000B12C8B859C85AD85BE85892B8A2B8B2B8E
:1020B00019F4E016F10681F46B857C858D859E858B
:1020C000A50194010E94B713D8016D938D012B8750
:1020D0003C874D875E87E5CFF80182918F01805D57
:1020E0000E940A10E016F106B9F72E960FB6F89482
:1020F000DEBF0FBECDBFDF91CF911F910F91FF903B
:10210000EF90BF90AF909F908F9008958F929F9285
:10211000AF92BF92CF92DF92EF92FF92CF93DF9375
:1021200000D000D000D0CDB7DEB76B017C01842F8A
:1021300090E09E838D8388248394912C042E02C08A
:10214000880C991C0A94E2F791E0891A9108092CED
:10215000000CAA08BB08D701CB0104C0B695A7950F
:10216000979587954A95D2F7BC01CD010E94321010
:102170008EE20E940A10A50194012C213D214E21DE
:102180005F212115310541055105F1F0AAE0B0E0CC
:102190000E94D91369837A838B839C83DC01CB01F2
:1021A0000D8004C0B695A795979587950A94D2F7A8
:1021B000805D0E940A1029813A814B815C8128212F
:1021C00039214A215B21DDCF26960FB6F894DEBF78
:1021D0000FBECDBFDF91CF91FF90EF90DF90CF90FA
:1021E000BF90AF909F908F900895CF92DF92EF9223
:1021F000FF92CF93DF936B017C01842F8150990B69
:10220000EC01CC0FDD1FCC0FDD1FD7FD16C0D701B1
:10221000C6010C2E04C0B695A795979587950A948C
:10222000D2F78F709927AA27BB2789599E4FFC01A7
:1022300080810E940A102497E8CFDF91CF91FF9010
:10224000EF90DF90CF900895EF92FF920F931F933E
:10225000CF93DF93CDB7DEB72A970FB6F894DEBFE2
:102260000FBECDBF8C017B0119821A821B821C829A
:1022700089819A818E159F0508F03FC021E1E21601
:10228000F10498F08F709927892B79F484E790E016
:102290000E941C1044E069817A818B819C810E949C
:1022A000F51081E790E00E941C1009871A87A98524
:1022B000BA858D91BA87A987282F30E050E040E099
:1022C0002D833E834F83588742E06D817E818F81CD
:1022D00098850E94F5108FE690E00E941C1089817D
:1022E0009A81AB81BC810196A11DB11D89839A831E
:1022F000AB83BC8309851A85BBCF2A960FB6F894A9
:10230000DEBF0FBECDBFDF91CF911F910F91FF9028
:10231000EF9008951092B90082E08093B80008957C
:1023200094EA9093BC002FEF3FEF2150310911F454
:1023300081E008959091BC0097FFF7CF9091B9008C
:10234000987F983011F0903199F78093BB0084E822
:102350008093BC008FEF9FEF019751F32091BC0059
:1023600027FFFACF9091B900987F983119F081E05A
:10237000903411F480E00895089524EA34E844E9A3
:102380002093BC009091BC0097FFFCCF9091B900C6
:10239000987F983011F0903199F78093BB0030937B
:1023A000BC009091BC0097FFFCCF9091B900987F42
:1023B000903211F0983539F44093BC009091BC00F4
:1023C00094FDFCCFDDCF08950C94901184E98093A7
:1023D000BC008FEF9FEF019721F02091BC0024FDFE
:1023E000FACF08958093BB0084E88093BC008FEF00
:1023F0009FEF019761F02091BC0027FFFACF9091E9
:10240000B900987F81E0983209F480E0089581E076
:10241000089584EC8093BC008FEF9FEF019739F013
:102420002091BC0027FFFACF8091BB00089580E087
:10243000089584E88093BC008FEF9FEF019739F0F7
:102440002091BC0027FFFACF8091BB00089580E067
:102450000895CF93C0E08C2F880F0E9490110E94A6
:10246000E611CF5FC038B9F7CF91089582E084BDFF
:1024700095E095BD9AE797BD80936E000895CF9340
:10248000DF9300D000D0CDB7DEB78FB7F89420919E
:10249000C6013091C7014091C8015091C9012983FB
:1024A0003A834B835C838FBF69817A818B819C8166
:1024B0000F900F900F900F90DF91CF9108951F9282
:1024C0001FB61F9211248F939F93AF93BF93809158
:1024D000C6019091C701A091C801B091C9010F96A2
:1024E000A11DB11D8093C6019093C701A093C8019F
:1024F000B093C9018091CA019DE5980F9D3750F4B2
:102500009093CA01BF91AF919F918F911F901FBE71
:102510001F90189580528093CA018091C6019091B6
:10252000C701A091C801B091C9010196A11DB11DBB
:102530008093C6019093C701A093C801B093C901CD
:10254000E1CF00D000D000D0CDB7DEB70E941D048F
:1025500080E00E94290C0E94B6006DEC7CEC8CECB3
:102560009DE30E94860662E190E080E00E94650E95
:102570006EE081E090E00E94650E60E271EA87E023
:1025800090E00E947C0A80E090E00E94C615909343
:10259000B5018093B4018091B4019091B5010E947E
:1025A000EB0384E6D82E0EEB10E094E6E92EF12C36
:1025B0001A821982CE0101960E94E202811105C0A1
:1025C0008981845A0E947E04F3CF89819A819093F5
:1025D000B3018093B2018090B2019090B30126E6DE
:1025E00036E646E65FE36091B8017091B9018091EB
:1025F000BA019091BB010E945915762EA72EB82ED4
:10260000C92E940150E040E02B833C834D835E83D0
:10261000CA01B4010E94A2142DEC3CEC4CEC5DE329
:102620006B837C838D839E836B817C818D819E8176
:102630000E9459159B01AC017B82AC82BD82CE8287
:102640006B817C818D819E810E940214362F272F01
:10265000462F572FBC014093B8015093B9016093A6
:10266000BA017093BB013B832C838D839E836B8166
:102670007C818D819E810E947314462F572F509329
:10268000B3014093B2012091B4013091B501809122
:10269000B2019091B301281B390BD29EC001D39E89
:1026A000900D1124B8010E94A3137093B10160939F
:1026B000B0018091B0019091B1018536910520F073
:1026C000F092B101E092B0018091B0019091B1011E
:1026D0009C0150E040E02B833C834D835E83CA0124
:1026E000B9010E94321088E690E00E941C1080918F
:1026F000B0019091B10161E00E9427033FEF40E7F4
:1027000052E0315040405040E1F700C0000050CF4F
:10271000EFE9F1E082E0838383E78783838182832B
:1027200015821482118210821682E2E9F1E081E0C2
:10273000838381E787838381828315821482118258
:10274000108216820895AA1BBB1B51E107C0AA1F65
:10275000BB1FA617B70710F0A61BB70B881F991F42
:102760005A95A9F780959095BC01CD010895A1E2F5
:102770001A2EAA1BBB1BFD010DC0AA1FBB1FEE1FFB
:10278000FF1FA217B307E407F50720F0A21BB30B46
:10279000E40BF50B661F771F881F991F1A9469F7C2
:1027A00060957095809590959B01AC01BD01CF011E
:1027B00008950E94F213A59F900DB49F900DA49FC1
:1027C000800D911D11240895B7FF0C94D9130E9418
:1027D000D913821B930B0895EE0FFF1F0590F49100
:1027E000E02D0994A29FB001B39FC001A39F700D7B
:1027F000811D1124911DB29F700D811D1124911D09
:1028000008955058BB27AA270E9419140C941A1532
:102810000E940C1538F00E94131520F039F49F3FE8
:1028200019F426F40C9409150EF4E095E7FB0C94CA
:102830000315E92F0E942B1558F3BA176207730787
:102840008407950720F079F4A6F50C944D150EF445
:10285000E0950B2EBA2FA02D0B01B90190010C01B0
:10286000CA01A0011124FF27591B99F0593F50F4C8
:10287000503E68F11A16F040A22F232F342F442720
:10288000585FF3CF469537952795A795F040539518
:10289000C9F77EF41F16BA0B620B730B840BBAF0E8
:1028A0009150A1F0FF0FBB1F661F771F881FC2F753
:1028B0000EC0BA0F621F731F841F48F48795779567
:1028C0006795B795F7959E3F08F0B0CF9395880F21
:1028D00008F09927EE0F9795879508950E94DF14C9
:1028E00008F481E008950E94331588F09F5798F00E
:1028F000B92F9927B751B0F0E1F0660F771F881F05
:10290000991F1AF0BA95C9F714C0B13091F00E941E
:102910004D15B1E008950C944D15672F782F882739
:10292000B85F39F0B93FCCF3869577956795B39545
:10293000D9F73EF490958095709561957F4F8F4FB4
:102940009F4F0895E89409C097FB3EF490958095B9
:10295000709561957F4F8F4F9F4F9923A9F0F92F65
:1029600096E9BB279395F695879577956795B795E3
:10297000F111F8CFFAF4BB0F11F460FF1BC06F5FC9
:102980007F4F8F4F9F4F16C0882311F096E911C0DB
:10299000772321F09EE8872F762F05C0662371F0FC
:1029A00096E8862F70E060E02AF09A95660F771F10
:1029B000881FDAF7880F9695879597F90895990FEC
:1029C0000008550FAA0BE0E8FEEF16161706E807F9
:1029D000F907C0F012161306E407F50798F0621B1A
:1029E000730B840B950B39F40A2661F0232B242BEF
:1029F000252B21F408950A2609F4A140A6958FEF0E
:102A0000811D811D089597F99F6780E870E060E05F
:102A100008959FEF80EC089500240A941616170677
:102A200018060906089500240A94121613061406BF
:102A300005060895092E0394000C11F4882352F022
:102A4000BB0F40F4BF2B11F460FF04C06F5F7F4FDA
:102A50008F4F9F4F089557FD9058440F551F59F0C1
:102A60005F3F71F04795880F97FB991F61F09F3F7B
:102A700079F087950895121613061406551FF2CFA4
:102A80004695F1DF08C0161617061806991FF1CFF4
:102A900086957105610508940895E894BB2766271B
:102AA0007727CB0197F908950E94DF1408F48FEF80
:102AB00008950E946C150C941A150E940C1538F09C
:102AC0000E94131520F0952311F00C9403150C941B
:102AD000091511240C944E150E942B1570F3959F27
:102AE000C1F3950F50E0551F629FF001729FBB2705
:102AF000F00DB11D639FAA27F00DB11DAA1F649FA1
:102B00006627B00DA11D661F829F2227B00DA11D53
:102B1000621F739FB00DA11D621F839FA00D611DD9
:102B2000221F749F3327A00D611D231F849F600DFA
:102B3000211D822F762F6A2F11249F5750409AF023
:102B4000F1F088234AF0EE0FFF1FBB1F661F771FAF
:102B5000881F91505040A9F79E3F510580F00C947A
:102B600003150C944E155F3FE4F3983ED4F386951D
:102B700077956795B795F795E7959F5FC1F7FE2B1A
:102B8000880F911D9695879597F90895A8E1B0E073
:102B900042E050E00C94CE15DC01CB01FC01F99928
:102BA000FECF06C0F2BDE1BDF89A319600B40D9299
:0C2BB00041505040B8F70895F894FFCF52
:102BBC00011401003F065B4F666D7D077F6F00C6F9
:102BCC00CC183066C600527CC6CEDEF6E67C0030F1
:102BDC007030303030FC0078CC0C3860CCFC007895
:102BEC00CC0C380CCC78001C3C6CCCFE0C1E00FCC5
:102BFC00C0F80C0CCC78003860C0F8CCCC7800FC59
:102C0C00CC0C183030300078CCCC78CCCC78007828
:102C1C00CCCC7C0C1870003031323334353637382C
:082C2C003941424344454600D2
:00000001FF
