:100000000C943D000C945A000C945A000C945A0025
:100010000C945A000C945A000C945A000C945A00F8
:100020000C945A000C945A000C945A000C943D0302
:100030000C945A000C945A000C9477100C945A00AB
:100040000C945A000C945A000C945A000C945A00C8
:100050000C945A000C945A000C945A000C945A00B8
:100060000C945A000C945A00252000636D20002047
:10007000003A20000A202020200011241FBECFEFCC
:10008000D8E0DEBFCDBF11E0A0E0B1E0E8E1F6E2EC
:1000900002C005900D92AA37B107D9F721E0AAE76F
:1000A000B1E001C01D92AD39B207E1F70E94B9106D
:1000B0000C940A130C940000000098E028980000AB
:1000C00087FF06C02A9A289A880F9150B9F7089599
:1000D0002A98F9CFFF920F931F93CF93DF93C82FE6
:1000E000F62E142FD22F29980E945C008F2D0E948B
:1000F0005C008C2F0E945C00812F0E945C008C2F82
:100100000E945C008D2F0E945C008C2F0E945C007E
:10011000802F0E945C0082E085B9DF91CF911F9112
:100120000F91FF9008950F931F9384B1876084B956
:1001300010E000E030E020E050E040E070E060E0FF
:1001400089E00E946A0030E020E050E040E070E08A
:1001500060E08AE00E946A0007E010E027E030E0FB
:1001600047E050E067E070E08BE00E946A0001E049
:1001700010E021E030E041E050E061E070E08CE030
:100180000E946A0010E000E030E020E050E040E033
:1001900070E060E08FE00E946A001F910F91089567
:1001A0000F931F93CF93C1E010E000E030E020E018
:1001B00050E040E070E060E08C2F0E946A00CF5F6A
:1001C000C93091F7CF911F910F9108955F9A8AE1FD
:1001D0008A95F1F700C05F988AE18A95F1F700C02F
:1001E000089527E030E090E0AC01022E02C0559562
:1001F00047950A94E2F740FF0FC05D9A5E9A4AE184
:100200004A95F1F700C05E984AE14A95F1F700C0BF
:100210002150310948F708955D98F0CF462F853673
:10022000910510F084E690E06AE070E00E944411CD
:10023000CB0101966BE070E00E94441130E020E0B9
:10024000019720F0220F331F2160FACFC90102C0AD
:10025000880F991F4A95E2F7089580918C0190913B
:100260008D018130910591F08230910509F445C0EE
:10027000892B09F04CC081E08093020181E090E07D
:1002800090938D0180938C0187E408958091800183
:1002900030E020E04AE0909102019217130639F015
:1002A00034F0642F0E9438112F5F3F4FF4CF6AE083
:1002B0000E943811E92FF0E0ED5FFE4F80819091B0
:1002C0000201911114C0E0E8F1E09191DF01119772
:1002D0009F5F9C9391E0E438F907B9F7109283018E
:1002E00022E030E030938D0120938C0108959091AD
:1002F0000201915090930201089581E090E0909363
:100300000E0180930D0110928D0110928C0180E0FE
:10031000089580E008950F931F930E945710462F71
:10032000572FBC0180917C0190917D01A0917E01AD
:10033000B0917F01892B8A2B8B2BD1F080917C018E
:1003400090917D01A0917E01B0917F018A019B0176
:10035000081B190B2A0B3B0BD901C801843F9140A4
:10036000A105B10528F480917B011F910F9108959B
:1003700040937C0150937D0160937E0170937F01D7
:1003800080910D0190910E018130910589F4809149
:100390008001882379F010920E0110920D011092C5
:1003A0008D0110928C010E942D0180937B01DDCF85
:1003B000892BC9F310927B0180E0D7CF8091840113
:1003C000909185010C948B01CF93DF93CDB7DEB76D
:1003D0002D970FB6F894DEBF0FBECDBFCE010196AC
:1003E0000E9407066AE070E00E9444117093870142
:1003F0006093860180918601909187019C0150E075
:1004000040E02A873B874C875D87CA01B9010E947B
:100410004A0E8BE690E00E94340E80918601909106
:1004200087012D960FB6F894DEBF0FBECDBFDF91CA
:10043000CF9108958F929F92BF92CF92DF92EF92C9
:10044000FF920F931F93CF93DF93CDB7DEB72A9719
:100450000FB6F894DEBF0FBECDBF7C01D62E8091C3
:100460007A018F5F80937A01843121F410927A01AE
:100470000E949300BFB6F8948FE091E09A8389833D
:100480002AE030E0C701B9010E94441143E0880F1F
:10049000991F4A95E1F7885E9E4F9C838B83CB0121
:1004A000B9010E94441153E0880F991F5A95E1F752
:1004B000885E9E4F9E838D83C70164E670E00E9434
:1004C0004411CB01B9010E94441163E0880F991FC8
:1004D0006A95E1F7885E9E4F98878F83C70168EE23
:1004E00073E00E944411CB01B9010E94441173E0F2
:1004F000880F991F7A95E1F7885E9E4F9A878987C2
:1005000081E0D11080E0C82ED12CCC0CDD1C81E024
:1005100090E08C0F9D1FC80ED91EF12CE12C4601D6
:10052000D6011696ED91FC911797EE0DFF1D0081F7
:1005300010E01496ED91FC911597EE0DFF1D2081B2
:1005400030E01296ED91FC91EE0DFF1D408150E0E0
:10055000D401ED91FC91EE0DFF1D608170E081E012
:100560008E0D0E946A00BFEFEB1AFB0A88E0E816C6
:10057000F104B1F6BFBE2A960FB6F894DEBF0FBEE7
:10058000CDBFDF91CF911F910F91FF90EF90DF9042
:10059000CF90BF909F908F900895D82FC92F60E083
:1005A0008D2F9C2F0E941A022FEF89E698E121508F
:1005B00080409040E1F700C00000F1CF60E00E9471
:1005C0001A022FEF89E698E1215080409040E1F730
:1005D00000C000000E94D0002FEF81EE94E0215077
:1005E00080409040E1F700C0000008958093B4007F
:1005F00008958BE08093810082EE94E090938900CF
:100600008093880082E080936F000895539A83E27C
:100610008093B00081E08093B1001092B4000895FF
:100620000E940D0EE1ECF0E080818F7E808382E0FD
:100630008AB9549A0E94A20F0E944E100E94F90299
:100640000E94060378940895909101018091010120
:10065000953610F4843128F48091000181958093BF
:1006600000018091000190910101890F80930101A7
:10067000809101018093B40008951F920F920FB6EC
:100680000F9211242F933F934F935F936F937F9318
:100690008F939F93AF93BF93EF93FF930E94240395
:1006A000FF91EF91BF91AF919F918F917F916F914A
:1006B0005F914F913F912F910F900FBE0F901F9020
:1006C00018950F931F930097B9F00197B0E0A0E041
:1006D00050E040E08C019D010027012B022B032BF1
:1006E00039F0B695A795979587954F5F5F4FF2CFF5
:1006F000342F2227822B932B1F910F910895CF9394
:10070000DF93D82FC62F809117010E94A80F8D2F3D
:100710000E940A108C2F0E940A10DF91CF910C9436
:10072000FE0F1F93CF93DF93182FEB0180911701DA
:100730000E94A80F812F0E940A108D2F0E940A107C
:100740008C2F0E940A10DF91CF911F910C94FE0F05
:10075000FF920F931F93CF93DF93F82EEA01162F8A
:10076000072F809117010E94A80F8F2D0E940A1059
:10077000802F0E940A10812F0E940A108D2F0E9444
:100780000A108C2F0E940A10DF91CF911F910F91B8
:10079000FF900C94FE0FCF93C82F809117010E94F9
:1007A000A80F8C2F0E940A108091170181600E946F
:1007B000FC0F0E943110C82F0E94FE0F8C2FCF918A
:1007C0000895CF93DF93C82F809117010E94A80F3F
:1007D0008C2F0E940A108091170181600E94FC0FEB
:1007E0000E942110C82FD0E0DC2FCC270E943110AE
:1007F000C82B0E94FE0FCE01DF91CF910895CF92BA
:10080000DF92EF92FF92CF93DF9300D000D0CDB76D
:10081000DEB78983809117010E94A80F89810E9409
:100820000A108091170181600E94FC0F0E94211024
:1008300090E0B0E0A0E0F82EEE24DD24CC240E946D
:100840002110E82A0E94211089830E943110C82AB1
:10085000D701C6012981922B89839A83AB83BC83FC
:100860000E94FE0F69817A818B819C810F900F908D
:100870000F900F90DF91CF91FF90EF90DF90CF908E
:100880000895FF920F931F93CF93DF93C82FF62EF7
:10089000072F142F809117010E94A80F8C2F0E9400
:1008A0000A10115040F0CF2DD02F89910E940A10CC
:1008B000FC2E0D2FF6CFDF91CF911F910F91FF905E
:1008C0000C94FE0FEF92FF920F931F93CF93DF9341
:1008D000082FEB01142F809117010E94A80F802F81
:1008E0000E940A108091170181600E94FC0F112361
:1008F00079F07E018FEFE81AF80A123030F00E948A
:10090000211088831150E701F2CF0E943110F9CFF6
:10091000DF91CF911F910F91FF90EF900C94FE0FFC
:10092000CF93C82F682F66958AE80E947F03C093F3
:100930001701CF9108958091170108950F931F9388
:10094000CF93DF9300D000D000D0CDB7DEB78B01BE
:100950008E839D8320E030E0A90169831A838B8315
:100960009C8369817A818B819C810E949C1187FD87
:100970002FC028EB3EEF4FEF53E469817A818B81E2
:100980009C810E945A1218161CF120E030E040E0D1
:1009900053E469817A818B819C810E945F12698313
:1009A0007A838B839C8369817A818B819C810E946D
:1009B000A11184E40E94910381E026960FB6F89479
:1009C000DEBF0FBECDBFDF91CF911F910F91089574
:1009D00080E0F3CFCF93DF9300D000D0CDB7DEB768
:1009E00084E40E94E1039C0150E040E029833A83C3
:1009F0004B835C83CA01B9010E94D01120E030E032
:100A000040E05CE369837A838B839C8369817A818C
:100A10008B819C810E945F1269837A838B839C8384
:100A200069817A818B819C810F900F900F900F903C
:100A3000DF91CF9108959C0180E52115310521F0CA
:100A40002130310531F480E70E94CB038F5F880F9E
:100A500008958FEF0895CF92DF92EF92FF926B018E
:100A60007C0161E080E80E947F0361E08FEF0E94DB
:100A70007F0360E080E00E947F036091920181E942
:100A80000E947F0361E080E00E947F0360E08FEFBF
:100A90000E947F0360E080E80E947F0362E0C1144F
:100AA000D104E104F10491F088EF0E94E103DC013C
:100AB000892B31F0A70196010E947A116B017C010C
:100AC000B701A60184E00E94A80364E080E0FF90E3
:100AD000EF90DF90CF900C947F0361E080E00E9464
:100AE0007F0361E08FEF0E947F0360E080E00E945F
:100AF0007F0360E081E90E947F0361E080E00E9463
:100B00007F0360E08FEF0C947F03EF92FF920F93CF
:100B10001F93CF93DF93CDB7DEB760970FB6F894EE
:100B2000DEBF0FBECDBF7C010E94571070939401B1
:100B30006093930183E10E94CB03877079F58091E4
:100B4000960190919701892BA9F30E9457106D8708
:100B50007E878F87988B80919301909194012D854A
:100B60003E85281B390BC9012091960130919701D0
:100B700028173907F8F681E0809395010FEF1FEFF2
:100B8000C80160960FB6F894DEBF0FBECDBFDF91EF
:100B9000CF911F910F91FF90EF900895E114F10410
:100BA00049F48EE10E94E1038C0161E08BE00E9438
:100BB0007F03E6CF4CE0BE016F5F7F4F84E10E9470
:100BC0006204898190E023E0959587952A95E1F765
:100BD000F70180878B819C819827892798279783A5
:100BE00086838F8198859827892798279383828386
:100BF00089859A85982789279827958384830B85EB
:100C00001C8510270127102711830083CECFCF9397
:100C1000DF9300D000D000D0CDB7DEB78E839D83A8
:100C200061E080E80E947F0361E08FEF0E947F0314
:100C300060E080E00E947F036091920181E90E9460
:100C40007F0361E080E00E947F0360E08FEF0E94FD
:100C50007F0360E080E80E947F0361E080E00E9403
:100C60007F030E945710709394016093930180E07A
:100C70000E94CB0380FF2AC080919601909197013A
:100C8000892BA9F30E94571069837A838B839C83F5
:100C9000809193019091940129813A81281B390B0D
:100CA000C901209196013091970128173907F8F66C
:100CB00081E0809395018FEF9FEF26960FB6F89411
:100CC000DEBF0FBECDBFDF91CF9108958E819D8194
:100CD00026960FB6F894DEBF0FBECDBFDF91CF9141
:100CE0000C9485058091950110929501089590933B
:100CF00097018093960108958091960190919701B4
:100D00000895EF92FF920F931F93CF93DF9300D03C
:100D100000D00F92CDB7DEB77C018B0161E080E897
:100D20000E947F0361E08FEF0E947F0360E080E01C
:100D30000E947F0366E08FEF0E947F0383E80E949A
:100D4000CB03682F646083E80E947F0367E08FEF26
:100D50000E947F0361E081E80E947F0361E080E8F8
:100D60000E947F036BE684E90E947F0360E083E8D2
:100D70000E947F030E945710709394016093930127
:100D800083E80E94CB038D83811129C08091960155
:100D900090919701892BA1F30E94571069837A8360
:100DA0008B839C83809193019091940129813A8156
:100DB000281B390BC9012091960130919701281702
:100DC0003907F0F68D810F900F900F900F900F90D4
:100DD000DF91CF911F910F91FF90EF90089561E007
:100DE00083E80E947F0382E90E94CB03982F9F77BC
:100DF000F7019083881F8827881FF801808360E0AF
:100E000081E80E947F0366E08FEF0E947F0383E802
:100E10000E94CB03682F6B7F83E80E947F0361E011
:100E20008FEF0E947F0361E080E00E947F0360E01B
:100E30008FEF0E947F0360E080E80E947F03F1E073
:100E4000FD83C0CFCF93DF93EC0181E00E94CB0301
:100E500084FB992790F9988383FB992790F99A83CB
:100E600082FB992790F9998386FB992790F99B83B8
:100E7000881F8827881F8C83DF91CF9108954F9218
:100E80005F926F927F928F929F92AF92BF92EF92FA
:100E9000FF920F931F93CF93DF93CDB7DEB72A97BF
:100EA0000FB6F894DEBF0FBECDBF8C0169877A877D
:100EB00090E080E00E941B0590E0A985BA858D93A3
:100EC0009C9386E40E94CB03E82EF12CBFEFEB1A33
:100ED000FB0AE985FA85F582E482A081B0E020E092
:100EE0003FE24AE350E00E947A11DC01CB018C50D2
:100EF0009E4FAF4FBF4F89839A83AB83BC8338EE3D
:100F0000832E33E0932EA12CB12CBC01CD01A50181
:100F100094010E945811D7010E9485116D837E8330
:100F20008F83988740ED442E47E0542E612C712C1E
:100F300069817A818B819C81A30192010E94581161
:100F40008D819E81AF81B885820F931FA41FB51F2D
:100F50008D839E83AF83B887BC01CD01A501940129
:100F60000E945811A985BA851A962D933D934D93E9
:100F70005C931D9781E50E94E103E82EF12C02C0ED
:100F8000EE0CFF1C9A95E2F7BFEFEB1AFB0AE9851E
:100F9000FA85F782E682A081B0E020E03FE24AE3F2
:100FA00050E00E947A11DC01CB018C509E4FAF4F74
:100FB000BF4F89839A83AB83BC83BC01CD01A5015C
:100FC00094010E945811D7010E947A116D837E838B
:100FD0008F83988769817A818B819C81A30192019B
:100FE0000E9458118D819E81AF81B885820F931F19
:100FF000A41FB51F8D839E83AF83B887BC01CD012D
:10100000A50194010E945811A985BA851E962D93B9
:101010003D934D935C93519780E70E94CB038F5F84
:10102000880F90E0E985FA859383828381E70E94A7
:10103000E103292F90E002C0880F991F2A95E2F75B
:101040000196A985BA8519969C938E931897F801F5
:101050002381222351F016962D913C911797821BE4
:10106000930B19969C938E931897E985FA85A28124
:10107000B0E020E03FE24AE350E00E947A11DC0158
:10108000CB018C509E4FAF4FBF4F89839A83AB8368
:10109000BC8328EE822E23E0922EA12CB12CBC0121
:1010A000CD01A50194010E945811E985FA85A0851A
:1010B000B1850E947A116D837E838F8398876981C1
:1010C0007A818B819C8120ED37E040E050E00E94E6
:1010D00058118D819E81AF81B885820F931FA41F07
:1010E000B51FBC01CD01A50194010E945811A9852D
:1010F000BA8552962D933D934D935C9355972A96BE
:101100000FB6F894DEBF0FBECDBFDF91CF911F9118
:101110000F91FF90EF90BF90AF909F908F907F9036
:101120006F905F904F9008958F929F92AF92BF9271
:10113000CF92DF92EF92FF921F93CF93DF93CDB7C1
:10114000DEB7A3970FB6F894DEBF0FBECDBF4B013D
:101150005C0120E282162EE49206A104B10408F498
:10116000CCC0CE0147960E942207BE016F5F7F4F21
:10117000CE0147960E943F078F89882309F4ABC0B0
:101180008B859C85AD85BE858A5C944FAF4FBF4FE4
:10119000298D222309F4A4C04B855C856D857E854D
:1011A0004E545D4F6F4F7F4F440F551F661F771F83
:1011B000840F951FA61FB71F1A8D112361F04F854D
:1011C000588969897A894C565D4F6F4F7F4F840FDC
:1011D000951FA61FB71F2B8D222309F469C06C0130
:1011E0007D0126E2C20E22E0D21EE11CF11C8C140D
:1011F0009D04AE04BF0408F480C0AB81B0E020E0E1
:101200003FE24AE350E00E947A11DC01CB018C50AE
:101210009E4FAF4FBF4F8C8F9D8FAE8FBF8FA5015D
:1012200094012C193D094E095F09A8EEB3E00E9414
:101230007A1168A379A38AA39BA36C8D7D8D8E8D73
:101240009F8D20ED37E040E050E00E94581188A1CA
:1012500099A1AAA1BBA1820F931FA41FB51F88A3A8
:1012600099A3AAA3BBA36C8D7D8D8E8D9F8D28EE37
:1012700033E040E050E00E94581168A179A18AA1B2
:101280009BA10E945811C901112321F08F819885DB
:10129000820F931F0E946103BC0181E70E949103AA
:1012A00080928E0190928F01A0929001B092910154
:1012B00081E0A3960FB6F894DEBF0FBECDBFDF91DD
:1012C000CF911F91FF90EF90DF90CF90BF90AF90A4
:1012D0009F908F90089588EE98E0A0E0B0E058CFFE
:1012E000288D222309F468CF4B855C856D857E852A
:1012F0004C565D4F6F4F7F4F5BCF80E0DACF0F933F
:101300001F93CF93DF93CDB7DEB76B970FB6F894EB
:10131000DEBF0FBECDBFCE0147960E942207BE01A1
:101320006F5F7F4FCE0147960E943F078F898823CA
:1013300009F44DC06B857C858D859E856C57724FF9
:101340008F4F9F4F298D222309F446C00B851C85A2
:101350002D853E850E541D4F2F4F3F4F000F111FFF
:10136000221F331F600F711F821F931F2A8D22239C
:1013700061F00F85188929893A890C561D4F2F4F26
:101380003F4F600F711F821F931F2B8D222361F02F
:101390000B891C892D893E890A5D1D4F2F4F3F4FB8
:1013A000600F711F821F931F60938E0170938F01D6
:1013B00080939001909391016B960FB6F894DEBFE5
:1013C0000FBECDBFDF91CF911F910F91089566E3BE
:1013D0007BE080E090E0B6CF288D222339F20B85A8
:1013E0001C852D853E850C561D4F2F4F3F4FBACF84
:1013F000CF93DF9300D000D00F92CDB7DEB7682F28
:10140000616080E00E947F030E94571070939401F6
:101410006093930183E10E94CB0387708D838111D8
:1014200025C08091960190919701892B99F30E9494
:10143000571069837A838B839C8380919301909169
:10144000940129813A81281B390BC9012091960109
:101450003091970128173907E8F68D810F900F908A
:101460000F900F900F90DF91CF91089561E08BE086
:101470000E947F0360E080E00E947F0331E03D83B3
:10148000ECCF0F931F93CF93DF93CDB7DEB72C979D
:101490000FB6F894DEBF0FBECDBF882341F089E8B8
:1014A0000E94CB03682F616089E80E947F0360E09F
:1014B00088E80E947F0361E080E80E947F0361E08A
:1014C0008FEF0E947F0360E080E00E947F0381E94C
:1014D0000E94CB038093920161E080E00E947F0331
:1014E00060E08FEF0E947F0360E080E80E947F034E
:1014F00080E60E94CB03682F626180E60E947F0332
:1015000060E270E084E40E9491036FEF81E00E944A
:101510007F03BE01695F7F4FCE0108960E9481065E
:1015200081110CC080E02C960FB6F894DEBF0FBE80
:10153000CDBFDF91CF911F910F91089546E0BE017D
:101540006F5F7F4F80EB0E94620461E08FEF0E942B
:101550007F0360E08FE40E947F036CE28EE40E94D0
:101560007F0360E08FEF0E947F0364EB86EB0E94B5
:101570007F039F8191119CE0B88580E0A0E001E0AD
:1015800010E0482F46954695469550E021E030E022
:101590002C0F3D1F240F351FF9012081682F677024
:1015A000891710F0BA139FC1E1E0F0E0EC0FFD1FC6
:1015B0004E0F5F1FF80102C0EE0FFF1F6A95E2F7A2
:1015C000BF0160952623FA0120838F5F8033C9F61F
:1015D00046E0BE016F5F7F4F80EB0E94410461E0F7
:1015E0008FEF0E947F0360E080E00E947F0360E055
:1015F0008FEF0E947F0360E089E00E947F0360E03C
:1016000080E10E947F0360E081E10E947F0361E04E
:1016100084E20E947F036FEF85E20E947F0360E017
:1016200085E70E947F0361E08FEF0E947F036CE2F9
:101630008EE40E947F0360E088E40E947F0360E202
:1016400080E30E947F0360E08FEF0E947F0369E0E8
:1016500080E30E947F0360E084E50E947F0364E0F2
:1016600081E30E947F0363E082E30E947F0363E8DB
:1016700080E40E947F0365E286E40E947F0360E0CD
:1016800080E60E947F0360E087E20E947F0366E0BD
:1016900080E50E947F0360E081E50E947F0366E9A8
:1016A00082E50E947F0368E086E50E947F0360E395
:1016B00087E50E947F0360E081E60E947F0360E08F
:1016C00082E60E947F0360E084E60E947F0360E080
:1016D00085E60E947F0360EA86E60E947F0361E060
:1016E0008FEF0E947F0362E382E20E947F0364E146
:1016F00087E40E947F036FEF89E40E947F0360E02C
:101700008AE40E947F0360E08FEF0E947F036AE01B
:101710008AE70E947F0360E08BE70E947F0361E21B
:1017200088E70E947F0361E08FEF0E947F0364E3FC
:1017300083E20E947F0360E082E40E947F036FEFF8
:1017400084E40E947F0366E285E40E947F0365E0F3
:1017500086E40E947F0360E480E40E947F0366E0E9
:101760008EE00E947F036AE180E20E947F0360E4D2
:1017700083E40E947F0360E08FEF0E947F0363E0B9
:1017800084E30E947F0364E485E30E947F0361E0B9
:101790008FEF0E947F0364E081E30E947F0369E092
:1017A0008BE40E947F0365E08CE40E947F0364E089
:1017B0008DE40E947F0360E08FEF0E947F0360E072
:1017C00084E40E947F0360E285E40E947F0368E076
:1017D00087E40E947F0368E288E40E947F0360E060
:1017E00087E60E947F0364E080E70E947F0361E058
:1017F00081E70E947F036EEF82E70E947F0360E033
:1018000086E70E947F0360E087E70E947F0361E034
:101810008FEF0E947F0361E08DE00E947F0360E014
:101820008FEF0E947F0361E080E80E947F0368EFF2
:1018300081E00E947F0361E08FEF0E947F0361E0FF
:101840008EE80E947F0361E080E00E947F0360E0F9
:101850008FEF0E947F0360E080E80E947F0364E0D6
:101860008AE00E947F0384E80E94CB03682F6F7E8A
:1018700084E80E947F0361E08BE00E947F030E9466
:101880007F0960938E0170938F01809390019093F4
:10189000910168EE81E00E947F0380918E0190911A
:1018A0008F01A0919001B0919101BC01CD010E94E6
:1018B000940861E081E00E947F0380E40E94F809BF
:1018C000882309F42FCE62E081E00E947F0380E04C
:1018D0000E94F809882309F425CE68EE81E00E9471
:1018E0007F0381E020CE30E002C0359527956A95D0
:1018F000E2F720FF6ACEAF5F68CE8F929F92AF92E1
:10190000BF92CF92DF92EF92FF920F931F93CF93EC
:10191000DF93CDB7DEB7A3970FB6F894DEBF0FBE47
:10192000CDBF7C01162F062F06950150CE0147969C
:101930000E942207BE016F5F7F4FCE0147960E9433
:101940003F07E114F10409F0B3C0103109F4AEC04F
:1019500040F41C3009F4A8C060E31E3029F080E098
:1019600090C060E51231D9F787E50E947F0368E0F7
:1019700086E50E947F03602F80E50E947F03A12FF0
:10198000B0E020E03FE24AE350E00E947A11DC013F
:10199000CB018C509E4FAF4FBF4F8C8F9D8FAE8F22
:1019A000BF8FBC01CD0128EE33E040E050E00E9443
:1019B000581149015A016C8D7D8D8E8D9F8D20EDC2
:1019C00037E040E050E00E94581169017A012F850C
:1019D000388949895A89A8EEB3E00E947A11DC015E
:1019E000CB018C0D9D1DAE1DBF1D8C8F9D8FAE8FAD
:1019F000BF8FBC01CD01A50194010E945811C901FE
:101A00000E946103BC0181E50E9491032B853C8506
:101A10004D855E85A8EEB3E00E947A11DC01CB0112
:101A20008C0D9D1DAE1DBF1DBC01CD01A5019401F6
:101A30000E945811213091E0390710F020E031E088
:101A40006FEF620F86E40E947F0380918E01909178
:101A50008F01A0919001B0919101BC01CD010E9434
:101A6000940881E00E94CB03182F62E081E00E947D
:101A70007F0380E00E94F809612F81E00E947F03CC
:101A800081E0A3960FB6F894DEBF0FBECDBFDF9105
:101A9000CF911F910F91FF90EF90DF90CF90BF906B
:101AA000AF909F908F90089568E15ECF60E45CCF27
:101AB000EA94EF2809F053CF1C3009F4A0C0D8F401
:101AC000183051F11A3009F04ACF68E288E40E94D8
:101AD0007F0368E087E40E947F0363E082E30E9463
:101AE0007F0369E080E30E947F0361E08FEF0E9443
:101AF0007F0360E226C01E3009F031CF68E488E43D
:101B00000E947F0368E087E40E947F0363E082E332
:101B10000E947F0367E0E6CF60E188E40E947F03D4
:101B200068E087E40E947F0362E082E30E947F0313
:101B30006CE080E30E947F0361E08FEF0E947F03EF
:101B400060E380E30E947F0360E08FEF0E947F03E9
:101B5000602F80E70E947F03A12FB0E020E03FE2EA
:101B60004AE350E00E947A11DC01CB018C509E4F79
:101B7000AF4FBF4F8C8F9D8FAE8FBF8F2B893C890E
:101B80004D895E89A8EEB3E00E947A1168A379A31B
:101B90008AA39BA36C8D7D8D8E8D9F8D20ED37E06C
:101BA00040E050E00E94581188A199A1AAA1BBA1D0
:101BB000820F931FA41FB51F88A399A3AAA3BBA339
:101BC0006C8D7D8D8E8D9F8D28EE33E040E050E052
:101BD0000E94581168A179A18AA19BA10E94581165
:101BE000C9016A8D662321F08F819885820F931F2A
:101BF0000E946103BC0181E70E94910326CF68E344
:101C000088E40E947F0368E087E40E947F0363E02A
:101C100082E30E947F0368E065CFE4E6F0E0808124
:101C20008D7F8083E1ECF0E0808188618083109279
:101C3000C50088E08093C400E0ECF0E08081826021
:101C4000808308959091C00095FFFCCF8093C600DB
:101C500008959FE9980F963010F4875508958053A2
:101C60008A3008F08FEF08951F93CF93DF93EC0134
:101C7000FE011491112351F0812F0E94220E1A307F
:101C800019F48DE00E94220E2196F2CFDF91CF91C0
:101C90001F9108958F929F92AF92BF92EF92FF9201
:101CA0000F931F93CF93DF93CDB7DEB72E970FB669
:101CB000F894DEBF0FBECDBF6B877C878D879E8774
:101CC0008E010F5F1F4F78018AE0882E912CA12C86
:101CD000B12C8B859C85AD85BE85892B8A2B8B2B62
:101CE00019F4E016F10681F46B857C858D859E855F
:101CF000A50194010E945811D8016D938D012B8785
:101D00003C874D875E87E5CFF80182918F01805D2A
:101D10000E94220EE016F106B9F72E960FB6F8943F
:101D2000DEBF0FBECDBFDF91CF911F910F91FF900E
:101D3000EF90BF90AF909F908F9008958F929F9259
:101D4000AF92BF92CF92DF92EF92FF92CF93DF9349
:101D500000D000D000D0CDB7DEB76B017C01842F5E
:101D600090E09E838D8388248394912C042E02C05E
:101D7000880C991C0A94E2F791E0891A9108092CC1
:101D8000000CAA08BB08D701CB0104C0B695A795E3
:101D9000979587954A95D2F7BC01CD010E944A0ECE
:101DA0008EE20E94220EA50194012C213D214E219C
:101DB0005F212115310541055105F1F0AAE0B0E0A0
:101DC0000E947A1169837A838B839C83DC01CB0127
:101DD0000D8004C0B695A795979587950A94D2F77C
:101DE000805D0E94220E29813A814B815C812821ED
:101DF00039214A215B21DDCF26960FB6F894DEBF4C
:101E00000FBECDBFDF91CF91FF90EF90DF90CF90CD
:101E1000BF90AF909F908F900895CF92DF92EF92F6
:101E2000FF92CF93DF936B017C01842F8150990B3C
:101E3000EC01CC0FDD1FCC0FDD1FD7FD16C0D70185
:101E4000C6010C2E04C0B695A795979587950A9460
:101E5000D2F78F709927AA27BB2788599E4FFC017C
:101E600080810E94220E2497E8CFDF91CF91FF90CE
:101E7000EF90DF90CF900895EF92FF920F931F9312
:101E8000CF93DF93CDB7DEB72A970FB6F894DEBFB6
:101E90000FBECDBF8C017B0119821A821B821C826E
:101EA00089819A818E159F0508F03FC021E1E216D5
:101EB000F10498F08F709927892B79F484E790E0EA
:101EC0000E94340E44E069817A818B819C810E945A
:101ED0000D0F81E790E00E94340E09871A87A985CB
:101EE000BA858D91BA87A987282F30E050E040E06D
:101EF0002D833E834F83588742E06D817E818F81A1
:101F000098850E940D0F8FE690E00E94340E898123
:101F10009A81AB81BC810196A11DB11D89839A83F1
:101F2000AB83BC8309851A85BBCF2A960FB6F8947C
:101F3000DEBF0FBECDBFDF91CF911F910F91FF90FC
:101F4000EF9008951092B90082E08093B800089550
:101F500094EA9093BC002FEF3FEF2150310911F428
:101F600081E008959091BC0097FFF7CF9091B90060
:101F7000987F983011F0903199F78093BB0084E8F6
:101F80008093BC008FEF9FEF019751F32091BC002D
:101F900027FFFACF9091B900987F983119F081E02E
:101FA000903411F480E00895089524EA34E844E977
:101FB0002093BC009091BC0097FFFCCF9091B9009A
:101FC000987F983011F0903199F78093BB0030934F
:101FD000BC009091BC0097FFFCCF9091B900987F16
:101FE000903211F0983539F44093BC009091BC00C8
:101FF00094FDFCCFDDCF08950C94A80F84E9809365
:10200000BC008FEF9FEF019721F02091BC0024FDD1
:10201000FACF08958093BB0084E88093BC008FEFD3
:102020009FEF019761F02091BC0027FFFACF9091BC
:10203000B900987F81E0983209F480E0089581E04A
:10204000089584EC8093BC008FEF9FEF019739F0E7
:102050002091BC0027FFFACF8091BB00089580E05B
:10206000089584E88093BC008FEF9FEF019739F0CB
:102070002091BC0027FFFACF8091BB00089580E03B
:102080000895CF93C0E08C2F880F0E94A80F0E9464
:10209000FE0FCF5FC038B9F7CF91089582E084BDBD
:1020A00095E095BD9AE797BD80936E000895CF9314
:1020B000DF9300D000D0CDB7DEB78FB7F894209172
:1020C00098013091990140919A0150919B01298387
:1020D0003A834B835C838FBF69817A818B819C813A
:1020E0000F900F900F900F90DF91CF9108951F9256
:1020F0001FB61F9211248F939F93AF93BF9380912C
:10210000980190919901A0919A01B0919B010F962D
:10211000A11DB11D8093980190939901A0939A01FC
:10212000B0939B0180919C019DE5980F9D3750F4E1
:1021300090939C01BF91AF919F918F911F901FBE73
:102140001F901895805280939C01809198019091E6
:102150009901A0919A01B0919B010196A11DB11D19
:102160008093980190939901A0939A01B0939B0159
:10217000E1CF00D000D0CDB7DEB70E94100380E0E1
:102180000E94410A0E9493006DEC7CEC8CEC9DE374
:102190000E949E0462E190E080E00E947D0C6EE06F
:1021A00081E090E00E947D0C60E271EA87E090E0BF
:1021B0000E94940880E090E00E94F41290938901BC
:1021C0008093880180918801909189010E94DE02AC
:1021D00084E6F82E04E610E00E9424030E94E40145
:1021E0009C0181608F3F9F41B9F38091880190915C
:1021F0008901AC01421B530BF49EC001F59E900D6A
:1022000011246EEB70E00E9444117093850160937D
:10221000840180918401909185018536910520F09B
:102220001093850100938401809184019091850130
:102230009C0150E040E029833A834B835C83CA01D0
:10224000B9010E944A0E88E690E00E94340E809107
:1022500084019091850161E00E941A023FEF41EEF6
:1022600054E0315040405040E1F700C00000B4CF8E
:10227000991B79E004C0991F961708F0961B881FD8
:102280007A95C9F780950895AA1BBB1B51E107C039
:10229000AA1FBB1FA617B70710F0A61BB70B881FF6
:1022A000991F5A95A9F780959095BC01CD01089585
:1022B000A1E21A2EAA1BBB1BFD010DC0AA1FBB1F4A
:1022C000EE1FFF1FA217B307E407F50720F0A21BBC
:1022D000B30BE40BF50B661F771F881F991F1A9429
:1022E00069F760957095809590959B01AC01BD0153
:1022F000CF0108950E948D11A59F900DB49F900D60
:10230000A49F800D911D11240895B7FF0C947A119C
:102310000E947A11821B930B0895A29FB001B39F74
:10232000C001A39F700D811D1124911DB29F700DDE
:10233000811D1124911D08950E940D1208F481E061
:1023400008950E94391288F09F5798F0B92F992765
:10235000B751B0F0E1F0660F771F881F991F1AF090
:10236000BA95C9F714C0B13091F00E945312B1E090
:1023700008950C945312672F782F8827B85F39F08F
:10238000B93FCCF3869577956795B395D9F73EF429
:1023900090958095709561957F4F8F4F9F4F0895D1
:1023A000E89409C097FB3EF49095809570956195EF
:1023B0007F4F8F4F9F4F9923A9F0F92F96E9BB27A5
:1023C0009395F695879577956795B795F111F8CF21
:1023D000FAF4BB0F11F460FF1BC06F5F7F4F8F4F8C
:1023E0009F4F16C0882311F096E911C0772321F082
:1023F0009EE8872F762F05C0662371F096E8862F1A
:1024000070E060E02AF09A95660F771F881FDAF770
:10241000880F9695879597F90895990F0008550F9D
:10242000AA0BE0E8FEEF16161706E807F907C0F05A
:1024300012161306E407F50798F0621B730B840B62
:10244000950B39F40A2661F0232B242B252B21F43C
:1024500008950A2609F4A140A6958FEF811D811DDC
:10246000089557FD9058440F551F59F05F3F71F084
:102470004795880F97FB991F61F09F3F79F08795EB
:102480000895121613061406551FF2CF4695F1DF74
:1024900008C0161617061806991FF1CF8695710504
:1024A000610508940895E894BB2766277727CB0138
:1024B00097F908950E940D1208F48FEF08950E9475
:1024C00072120C94E3120E94D51238F00E94DC12B2
:1024D00020F0952311F00C94CC120C94D2121124FC
:1024E0000C9454120E94311270F3959FC1F3950F12
:1024F00050E0551F629FF001729FBB27F00DB11D88
:10250000639FAA27F00DB11DAA1F649F6627B00D17
:10251000A11D661F829F2227B00DA11D621F739F00
:10252000B00DA11D621F839FA00D611D221F749F0E
:102530003327A00D611D231F849F600D211D822F55
:10254000762F6A2F11249F5750409AF0F1F088237C
:102550004AF0EE0FFF1FBB1F661F771F881F9150A9
:102560005040A9F79E3F510580F00C94CC120C947A
:1025700054125F3FE4F3983ED4F3869577956795C0
:10258000B795F795E7959F5FC1F7FE2B880F911DD3
:102590009695879597F9089597F99F6780E870E079
:1025A00060E008959FEF80EC089500240A941616C9
:1025B000170618060906089500240A941216130631
:1025C000140605060895092E0394000C11F48823BF
:1025D00052F0BB0F40F4BF2B11F460FF04C06F5FDB
:1025E0007F4F8F4F9F4F0895A8E1B0E042E050E049
:1025F0000C94FC12DC01CB01FC01F999FECF06C062
:10260000F2BDE1BDF89A319600B40D9241505040B0
:08261000B8F70895F894FFCF1C
:1026180001140177306B793C5D5F707F7D010000AC
:10262800C6CC183066C600527CC6CEDEF6E67C0004
:10263800307030303030FC0078CC0C3860CCFC0086
:1026480078CC0C380CCC78001C3C6CCCFE0C1E00F2
:10265800FCC0F80C0CCC78003860C0F8CCCC780002
:10266800FCCC0C183030300078CCCC78CCCC78004E
:1026780078CCCC7C0C187000303132333435363796
:0A2688003839414243444546000042
:00000001FF
