:100000000C943D000C9465000C9465000C94650004
:100010000C9465000C9465000C9465000C946500CC
:100020000C9465000C9465000C9465000C944E04CF
:100030000C9465000C9465000C9494110C9465006C
:100040000C9465000C9465000C9465000C9465009C
:100050000C9465000C9465000C9465000C9465008C
:100060000C9465000C946500636D200020003A201C
:10007000000A202020200000DF1111241FBECFEF36
:10008000D8E0DEBFCDBF11E0A0E0B1E0E4E6F7E2EA
:1000900002C005900D92A837B107D9F721E0A8E773
:1000A000B1E001C01D92A73CB207E1F710E0CDE33B
:1000B000D0E004C02197FE010E944312CC33D10747
:1000C000C9F70E94D6110C94B0130C9400008091D3
:1000D000B0019091B1018093A701089581E090E073
:1000E0009093030180930201EFE9F1E08381828321
:1000F000158214821182108216820895000098E001
:100100002898000087FF06C02A9A289A880F9150E5
:10011000B9F708952A98F9CFFF920F931F93CF93C1
:10012000DF93C82FF62E142FD22F29980E947E001D
:100130008F2D0E947E008C2F0E947E00812F0E94B6
:100140007E008C2F0E947E008D2F0E947E008C2FBF
:100150000E947E00802F0E947E0082E085B9DF91A0
:10016000CF911F910F91FF9008950F931F9384B12A
:10017000876084B910E000E030E020E050E040E02B
:1001800070E060E089E00E948C0030E020E050E008
:1001900040E070E060E08AE00E948C0007E010E040
:1001A00027E030E047E050E067E070E08BE00E943D
:1001B0008C0001E010E021E030E041E050E061E03F
:1001C00070E08CE00E948C0010E000E030E020E065
:1001D00050E040E070E060E08FE00E948C001F91F2
:1001E0000F9108950F931F93CF93C1E010E000E0AB
:1001F00030E020E050E040E070E060E08C2F0E94B2
:100200008C00CF5FC93091F7CF911F910F91089566
:10021000559A569A579A08955F9A8AE18A95F1F706
:1002200000C05F988AE18A95F1F700C0089527E041
:1002300030E090E0AC01022E02C0559547950A943B
:10024000E2F740FF0FC05D9A5E9A4AE14A95F1F7E6
:1002500000C05E984AE14A95F1F700C0215031098B
:1002600048F708955D98F0CFCF92DF92EF92FF921A
:100270000F931F93CF93DF9300D000D0CDB7DEB79D
:100280001A821982042F10E02AE0C22ED12CE12C10
:10029000F12C29813A81201731076CF4A7019601CE
:1002A0000E940E12B901CA0129813A812F5F3F4F86
:1002B0003A832983EECF2AE030E040E050E00E940C
:1002C0000E1269837A838B839C83E981FA81EC5FC8
:1002D000FE4F80810F900F900F900F90DF91CF9184
:1002E0001F910F91FF90EF90DF90CF900895CF93E3
:1002F000DF9300D000D0CDB7DEB7262F853691052D
:1003000010F084E690E06AE070E00E94FA11CB0100
:1003100001966BE070E00E94FA1140E050E0BA01F3
:10032000815030F0440F551F661F771F4160F8CF92
:10033000DB01CA0104C0880F991FAA1FBB1F2A95A1
:10034000D2F7BC01CD010F900F900F900F90DF916D
:10035000CF91089530E020E090E0682F70E0AB018D
:10036000022E02C0559547950A94E2F74170990F05
:10037000942B2F5F3F4F2830310589F7892F08953F
:100380000F931F93CF93DF9300D000D000D0CDB751
:10039000DEB7809102019091030102E911E001971B
:1003A00011F40FE911E01E830D830E947411462F92
:1003B000572FBC0180918E0190918F01A0919001E7
:1003C000B0919101892B8A2B8B2B91F180918E0119
:1003D00090918F01A0919001B09191018A019B01B0
:1003E000081B190B2A0B3B0BAD81BE8115968C9116
:1003F000159715961C92811116C084EF91E0A0E02C
:10040000B0E0081719072A073B0790F480918D0187
:1004100026960FB6F894DEBF0FBECDBFDF91CF9109
:100420001F910F91089584E690E0A0E0B0E0E9CF3D
:1004300040938E0150938F016093900170939101CE
:1004400080910201909103010197E1F48091AC0148
:100450008823C1F0109203011092020180939A0147
:100460008091AD018093AC018091AE018093AD018C
:100470008091AF018093AE011092AF0102E911E0CB
:100480001E830D83AD81BE818D919C91119781302A
:100490009105E9F08230910509F454C0892B89F463
:1004A0001996ED91FC91309709F00995ED81FE8147
:1004B0008381828381E090E091838083848387813C
:1004C0008683ED81FE81868180938D01A1CFAD81F0
:1004D000BE8114968C911497882351F016961C9225
:1004E000169714961C92149781E015968C93E9CF79
:1004F00081E0ED81FE81848342818085082F10E0B8
:1005000030E020E009831A832B833C83C901B801C2
:100510000E943401AD81BE8116968C931697129677
:100520008C911297811108C082E090E011969C9303
:100530008E9314961C92C5CFED81FE8182818150ED
:100540008283BFCFAD81BE8113968C911397129693
:100550008C93129715961C92159714961C921497CB
:1005600011961C921E9216961C9216971B96ED9150
:10057000FC91309709F4A5CF0995A3CFCF92DF92D4
:10058000EF92FF928091B0019091B10167E00E94DB
:1005900077016B017C010E94C001C82A8D2D0E9449
:1005A000AA010E9417018C2D0E941701E0FE07C0CE
:1005B0005C9AFF90EF90DF90CF900C940C015C98C8
:1005C000F8CF0F931F93CF93DF93CDB7DEB72D975F
:1005D0000FB6F894DEBF0FBECDBF8C01CE010196E1
:1005E0000E9424079C0121602F3F3F4181F4D801E4
:1005F0008D939C9390E080E02D960FB6F894DEBF2B
:100600000FBECDBFDF91CF911F910F9108956AE08A
:1006100070E00E94FA11F80171836083B0E0A0E0FD
:10062000CD010E94670F88E690E00E94510F81E0A3
:1006300090E0E2CF9B01FC0170E060E090E080E0A0
:100640006217730739F041915191840F951F6F5FC5
:100650007F4FF6CF0E94FA11CB0108958F929F929F
:10066000BF92CF92DF92EF92FF920F931F93CF939F
:10067000DF93CDB7DEB72A970FB6F894DEBF0FBE73
:10068000CDBF7C01D62E809178018F5F8093780159
:10069000843121F4109278010E94B500BFB6F8941D
:1006A0008EE091E09A8389832AE030E0C701B901A6
:1006B0000E94FA1143E0880F991F4A95E1F7895E7D
:1006C0009E4F9C838B83CB01B9010E94FA1153E0AA
:1006D000880F991F5A95E1F7895E9E4F9E838D83FF
:1006E000C70164E670E00E94FA11CB01B9010E94D3
:1006F000FA1163E0880F991F6A95E1F7895E9E4FB2
:1007000098878F83C70168EE73E00E94FA11CB01CE
:10071000B9010E94FA1173E0880F991F7A95E1F7E9
:10072000895E9E4F9A87898781E0D11080E0C82E2C
:10073000D12CCC0CDD1C81E090E08C0F9D1FC80EED
:10074000D91EF12CE12C4601D6011696ED91FC91B3
:100750001797EE0DFF1D008110E01496ED91FC91AE
:100760001597EE0DFF1D208130E01296ED91FC9162
:10077000EE0DFF1D408150E0D401ED91FC91EE0D96
:10078000FF1D608170E081E08E0D0E948C00BFEF44
:10079000EB1AFB0A88E0E816F104B1F6BFBE2A9610
:1007A0000FB6F894DEBF0FBECDBFDF91CF911F9182
:1007B0000F91FF90EF90DF90CF90BF909F908F9020
:1007C000089560E00E942E032FEF89E698E1215002
:1007D00080409040E1F700C000000E94F2002FEF3F
:1007E00081EE94E0215080409040E1F700C000008D
:1007F00008958093B40008958BE08093810082EE89
:1008000094E0909389008093880082E080936F0049
:100810000895539A83E28093B00081E08093B10001
:100820001092B40008950E942A0FE1ECF0E080815C
:100830008F7E808382E08AB9549A0E94BF100E9402
:100840006B110E94FC030E9409040E9408018EE6BD
:1008500090E090939E0180939D0187E690E09093B5
:10086000A9018093A8017894089590910101809145
:100870000101953610F4843128F4809100018195AE
:10088000809300018091000190910101890F809374
:100890000101809101018093B40008951F920F928D
:1008A0000FB60F9211242F933F934F935F936F9343
:1008B0007F938F939F93AF93BF93EF93FF930E9488
:1008C00035040E94BE02FF91EF91BF91AF919F91BD
:1008D0008F917F916F915F914F913F912F910F90E9
:1008E0000FBE0F901F901895ECEAF1E09281938370
:1008F0009181928390819183808308950F931F93B8
:100900000097B9F00197B0E0A0E050E040E08C0122
:100910009D010027012B022B032B39F0B695A795DB
:10092000979587954F5F5F4FF2CF342F2227822B09
:10093000932B1F910F910895CF93DF93D82FC62F3C
:10094000809116010E94C5108D2F0E9427118C2FB7
:100950000E942711DF91CF910C941B111F93CF930D
:10096000DF93182FEB01809116010E94C510812F93
:100970000E9427118D2F0E9427118C2F0E94271172
:10098000DF91CF911F910C941B11FF920F931F9336
:10099000CF93DF93F82EEA01162F072F80911601CF
:1009A0000E94C5108F2D0E942711802F0E942711B1
:1009B000812F0E9427118D2F0E9427118C2F0E94BA
:1009C0002711DF91CF911F910F91FF900C941B1174
:1009D000CF93C82F809116010E94C5108C2F0E94C2
:1009E00027118091160181600E9419110E944E11F9
:1009F000C82F0E941B118C2FCF910895CF93DF93A6
:100A0000C82F809116010E94C5108C2F0E942711BB
:100A10008091160181600E9419110E943E11C82F19
:100A2000D0E0DC2FCC270E944E11C82B0E941B1156
:100A3000CE01DF91CF910895CF92DF92EF92FF9296
:100A4000CF93DF9300D000D0CDB7DEB789838091FC
:100A500016010E94C51089810E94271180911601FC
:100A600081600E9419110E943E1190E0B0E0A0E068
:100A7000F82EEE24DD24CC240E943E11E82A0E94A8
:100A80003E1189830E944E11C82AD701C6012981CF
:100A9000922B89839A83AB83BC830E941B1169814B
:100AA0007A818B819C810F900F900F900F90DF9136
:100AB000CF91FF90EF90DF90CF900895FF920F932A
:100AC0001F93CF93DF93C82FF62E072F142F8091FB
:100AD00016010E94C5108C2F0E942711115040F062
:100AE000CF2DD02F89910E942711FC2E0D2FF6CFEC
:100AF000DF91CF911F910F91FF900C941B11EF92FA
:100B0000FF920F931F93CF93DF93082FEB01142FC6
:100B1000809116010E94C510802F0E94271180919C
:100B2000160181600E941911112379F07E018FEF67
:100B3000E81AF80A123030F00E943E1188831150F2
:100B4000E701F2CF0E944E11F9CFDF91CF911F91B3
:100B50000F91FF90EF900C941B11CF93C82F682F2B
:100B600066958AE80E949C04C0931601CF9108956F
:100B70008091160108950F931F93CF93DF9300D0B8
:100B800000D000D0CDB7DEB78B018E839D8320E0EF
:100B900030E0A90169831A838B839C8369817A8100
:100BA0008B819C810E94581287FD2FC028EB3EEF5D
:100BB0004FEF53E469817A818B819C810E941613E7
:100BC00018161CF120E030E040E053E469817A819E
:100BD0008B819C810E941B1369837A838B839C8306
:100BE00069817A818B819C810E945D1284E40E94DC
:100BF000AE0481E026960FB6F894DEBF0FBECDBFDF
:100C0000DF91CF911F910F91089580E0F3CFCF93A3
:100C1000DF9300D000D0CDB7DEB784E40E94FE049D
:100C20009C0150E040E029833A834B835C83CA01F6
:100C3000B9010E948C1220E030E040E05CE369835F
:100C40007A838B839C8369817A818B819C810E94CA
:100C50001B1369837A838B839C8369817A818B815F
:100C60009C810F900F900F900F90DF91CF9108957E
:100C70009C0180E52115310521F02130310531F449
:100C800080E70E94E8048F5F880F08958FEF089532
:100C9000CF92DF92EF92FF926B017C0161E080E8DE
:100CA0000E949C0461E08FEF0E949C0460E080E061
:100CB0000E949C046091BC0181E90E949C0461E057
:100CC00080E00E949C0460E08FEF0E949C0460E042
:100CD00080E80E949C0462E0C114D104E104F104A4
:100CE00091F088EF0E94FE04DC01892B31F0A7010E
:100CF00096010E9430126B017C01B701A60184E0CD
:100D00000E94C50464E080E0FF90EF90DF90CF90F8
:100D10000C949C0461E080E00E949C0461E08FEFF1
:100D20000E949C0460E080E00E949C0460E081E9F5
:100D30000E949C0461E080E00E949C0460E08FEFD0
:100D40000C949C04EF92FF920F931F93CF93DF9329
:100D5000CDB7DEB760970FB6F894DEBF0FBECDBF3C
:100D60007C010E9474117093BE016093BD0183E108
:100D70000E94E804877079F58091C0019091C101CB
:100D8000892BA9F30E9474116D877E878F87988BBA
:100D90008091BD019091BE012D853E85281B390BA8
:100DA000C9012091C0013091C10128173907F8F617
:100DB00081E08093BF010FEF1FEFC80160960FB66F
:100DC000F894DEBF0FBECDBFDF91CF911F910F9181
:100DD000FF90EF900895E114F10449F48EE10E9430
:100DE000FE048C0161E08BE00E949C04E6CF4CE0A5
:100DF000BE016F5F7F4F84E10E947F05898190E093
:100E000023E0959587952A95E1F7F70180878B81F7
:100E10009C81982789279827978386838F81988537
:100E20009827892798279383828389859A8598278D
:100E300089279827958384830B851C851027012794
:100E4000102711830083CECFCF93DF9300D000D043
:100E500000D0CDB7DEB78E839D8361E080E80E942D
:100E60009C0461E08FEF0E949C0460E080E00E949F
:100E70009C046091BC0181E90E949C0461E080E0D7
:100E80000E949C0460E08FEF0E949C0460E080E878
:100E90000E949C0461E080E00E949C040E94741106
:100EA0007093BE016093BD0180E00E94E80480FF62
:100EB0002AC08091C0019091C101892BA9F30E94A1
:100EC000741169837A838B839C838091BD01909197
:100ED000BE0129813A81281B390BC9012091C0012B
:100EE0003091C10128173907F8F681E08093BF01DE
:100EF0008FEF9FEF26960FB6F894DEBF0FBECDBFE3
:100F0000DF91CF9108958E819D8126960FB6F8943A
:100F1000DEBF0FBECDBFDF91CF910C94A2068091B2
:100F2000BF011092BF0108959093C1018093C00149
:100F300008958091C0019091C1010895EF92FF92B0
:100F40000F931F93CF93DF9300D000D00F92CDB7B4
:100F5000DEB77C018B0161E080E80E949C0461E0C7
:100F60008FEF0E949C0460E080E00E949C0466E099
:100F70008FEF0E949C0483E80E94E804682F64605D
:100F800083E80E949C0467E08FEF0E949C0461E06C
:100F900081E80E949C0461E080E80E949C046BE66A
:100FA00084E90E949C0460E083E80E949C040E9403
:100FB00074117093BE016093BD0183E80E94E80440
:100FC0008D83811129C08091C0019091C101892B2D
:100FD000A1F30E94741169837A838B839C8380912F
:100FE000BD019091BE0129813A81281B390BC901AD
:100FF0002091C0013091C10128173907F0F68D8189
:101000000F900F900F900F900F90DF91CF911F9145
:101010000F91FF90EF90089561E083E80E949C0497
:1010200082E90E94E804982F9F77F7019083881F38
:101030008827881FF801808360E081E80E949C0473
:1010400066E08FEF0E949C0483E80E94E804682F0A
:101050006B7F83E80E949C0461E08FEF0E949C04F8
:1010600061E080E00E949C0460E08FEF0E949C049D
:1010700060E080E80E949C04F1E0FD83C0CFCF9344
:10108000DF93EC0181E00E94E80484FB992790F94A
:10109000988383FB992790F99A8382FB992790F98B
:1010A000998386FB992790F99B83881F8827881F3F
:1010B0008C83DF91CF9108954F925F926F927F92D0
:1010C0008F929F92AF92BF92EF92FF920F931F93D6
:1010D000CF93DF93CDB7DEB72A970FB6F894DEBF74
:1010E0000FBECDBF8C0169877A8790E080E00E94B7
:1010F000380690E0A985BA858D939C9386E40E947A
:10110000E804E82EF12CBFEFEB1AFB0AE985FA851B
:10111000F582E482A081B0E020E03FE24AE350E0C3
:101120000E943012DC01CB018C509E4FAF4FBF4F5D
:1011300089839A83AB83BC8338EE832E33E0932E6E
:10114000A12CB12CBC01CD01A50194010E940E126D
:10115000D7010E943B126D837E838F83988740ED79
:10116000442E47E0542E612C712C69817A818B8149
:101170009C81A30192010E940E128D819E81AF81FC
:10118000B885820F931FA41FB51F8D839E83AF83E5
:10119000B887BC01CD01A50194010E940E12A9855A
:1011A000BA851A962D933D934D935C931D9781E5D7
:1011B0000E94FE04E82EF12C02C0EE0CFF1C9A9552
:1011C000E2F7BFEFEB1AFB0AE985FA85F782E682C0
:1011D000A081B0E020E03FE24AE350E00E943012FC
:1011E000DC01CB018C509E4FAF4FBF4F89839A8358
:1011F000AB83BC83BC01CD01A50194010E940E12FA
:10120000D7010E9430126D837E838F839887698116
:101210007A818B819C81A30192010E940E128D81A3
:101220009E81AF81B885820F931FA41FB51F8D8348
:101230009E83AF83B887BC01CD01A50194010E94B4
:101240000E12A985BA851E962D933D934D935C93FE
:10125000519780E70E94E8048F5F880F90E0E9854E
:10126000FA859383828381E70E94FE04292F90E010
:1012700002C0880F991F2A95E2F70196A985BA85C1
:1012800019969C938E931897F8012381222351F08D
:1012900016962D913C911797821B930B19969C9350
:1012A0008E931897E985FA85A281B0E020E03FE2AD
:1012B0004AE350E00E943012DC01CB018C509E4F7B
:1012C000AF4FBF4F89839A83AB83BC8328EE822EB6
:1012D00023E0922EA12CB12CBC01CD01A5019401DB
:1012E0000E940E12E985FA85A085B1850E94301210
:1012F0006D837E838F83988769817A818B819C81BE
:1013000020ED37E040E050E00E940E128D819E817A
:10131000AF81B885820F931FA41FB51FBC01CD01FB
:10132000A50194010E940E12A985BA8552962D93AB
:101330003D934D935C9355972A960FB6F894DEBF74
:101340000FBECDBFDF91CF911F910F91FF90EF9016
:10135000BF90AF909F908F907F906F905F904F90D5
:1013600008958F929F92AF92BF92CF92DF92EF92A9
:10137000FF921F93CF93DF93CDB7DEB7A3970FB63E
:10138000F894DEBF0FBECDBF4B015C0120E2821698
:101390002EE49206A104B10408F4CCC0CE01479615
:1013A0000E943F08BE016F5F7F4FCE0147960E94AB
:1013B0005C088F89882309F4ABC08B859C85AD853B
:1013C000BE858A5C944FAF4FBF4F298D222309F40D
:1013D000A4C04B855C856D857E854E545D4F6F4FF7
:1013E0007F4F440F551F661F771F840F951FA61F41
:1013F000B71F1A8D112361F04F85588969897A8941
:101400004C565D4F6F4F7F4F840F951FA61FB71F20
:101410002B8D222309F469C06C017D0126E2C20EE6
:1014200022E0D21EE11CF11C8C149D04AE04BF040A
:1014300008F480C0AB81B0E020E03FE24AE350E036
:101440000E943012DC01CB018C509E4FAF4FBF4F3A
:101450008C8F9D8FAE8FBF8FA50194012C193D09F4
:101460004E095F09A8EEB3E00E94301268A379A389
:101470008AA39BA36C8D7D8D8E8D9F8D20ED37E093
:1014800040E050E00E940E1288A199A1AAA1BBA140
:10149000820F931FA41FB51F88A399A3AAA3BBA360
:1014A0006C8D7D8D8E8D9F8D28EE33E040E050E079
:1014B0000E940E1268A179A18AA19BA10E940E121E
:1014C000C901112321F08F819885820F931F0E94FB
:1014D0007E04BC0181E70E94AE048092B801909224
:1014E000B901A092BA01B092BB0181E0A3960FB6F8
:1014F000F894DEBF0FBECDBFDF91CF911F91FF905B
:10150000EF90DF90CF90BF90AF909F908F90089515
:1015100088EE98E0A0E0B0E058CF288D222309F4AF
:1015200068CF4B855C856D857E854C565D4F6F4FD2
:101530007F4F5BCF80E0DACF0F931F93CF93DF9382
:10154000CDB7DEB76B970FB6F894DEBF0FBECDBF39
:10155000CE0147960E943F08BE016F5F7F4FCE01CC
:1015600047960E945C088F89882309F44DC06B85DB
:101570007C858D859E856C57724F8F4F9F4F298D2F
:10158000222309F446C00B851C852D853E850E540B
:101590001D4F2F4F3F4F000F111F221F331F600F92
:1015A000711F821F931F2A8D222361F00F851889D6
:1015B00029893A890C561D4F2F4F3F4F600F711FDD
:1015C000821F931F2B8D222361F00B891C892D898B
:1015D0003E890A5D1D4F2F4F3F4F600F711F821FC5
:1015E000931F6093B8017093B9018093BA019093EF
:1015F000BB016B960FB6F894DEBF0FBECDBFDF9177
:10160000CF911F910F91089566E37BE080E090E019
:10161000B6CF288D222339F20B851C852D853E857A
:101620000C561D4F2F4F3F4FBACFCF93DF9300D0B3
:1016300000D00F92CDB7DEB7682F616080E00E94C6
:101640009C040E9474117093BE016093BD0183E1FC
:101650000E94E80487708D83811125C08091C001AC
:101660009091C101892B99F30E94741169837A8347
:101670008B839C838091BD019091BE0129813A8129
:10168000281B390BC9012091C0013091C1012817D5
:101690003907E8F68D810F900F900F900F900F9003
:1016A000DF91CF91089561E08BE00E949C0460E09F
:1016B00080E00E949C0431E03D83ECCF0F931F93A8
:1016C000CF93DF93CDB7DEB72C970FB6F894DEBF7C
:1016D0000FBECDBF882341F089E80E94E804682F3F
:1016E000616089E80E949C0460E088E80E949C0494
:1016F00061E080E80E949C0461E08FEF0E949C04FE
:1017000060E080E00E949C0481E90E94E8048093EC
:10171000BC0161E080E00E949C0460E08FEF0E94C9
:101720009C0460E080E80E949C0480E60E94E8043B
:10173000682F626180E60E949C0460E270E084E4AD
:101740000E94AE046FEF81E00E949C04BE01695FBD
:101750007F4FCE0108960E949E0781110CC080E049
:101760002C960FB6F894DEBF0FBECDBFDF91CF91A0
:101770001F910F91089546E0BE016F5F7F4F80EB90
:101780000E947F0561E08FEF0E949C0460E08FE47F
:101790000E949C046CE28EE40E949C0460E08FEF47
:1017A0000E949C0464EB86EB0E949C049F81911133
:1017B0009CE0B88580E0A0E001E010E0482F46956D
:1017C0004695469550E021E030E02C0F3D1F240F58
:1017D000351FF9012081682F6770891710F0BA133F
:1017E0009FC1E1E0F0E0EC0FFD1F4E0F5F1FF8011D
:1017F00002C0EE0FFF1F6A95E2F7BF016095262336
:10180000FA0120838F5F8033C9F646E0BE016F5F27
:101810007F4F80EB0E945E0561E08FEF0E949C0489
:1018200060E080E00E949C0460E08FEF0E949C04D6
:1018300060E089E00E949C0460E080E10E949C04DA
:1018400060E081E10E949C0461E084E20E949C04CB
:101850006FEF85E20E949C0460E085E70E949C0493
:1018600061E08FEF0E949C046CE28EE40E949C0475
:1018700060E088E40E949C0460E280E30E949C0493
:1018800060E08FEF0E949C0469E080E30E949C046A
:1018900060E084E50E949C0464E081E30E949C0473
:1018A00063E082E30E949C0463E880E40E949C045D
:1018B00065E286E40E949C0460E080E60E949C044D
:1018C00060E087E20E949C0466E080E50E949C0440
:1018D00060E081E50E949C0466E982E50E949C0428
:1018E00068E086E50E949C0460E387E50E949C0412
:1018F00060E081E60E949C0460E082E60E949C0415
:1019000060E084E60E949C0460E085E60E949C04FE
:1019100060EA86E60E949C0461E08FEF0E949C04CE
:1019200062E382E20E949C0464E187E40E949C04DA
:101930006FEF89E40E949C0460E08AE40E949C04AA
:1019400060E08FEF0E949C046AE08AE70E949C049A
:1019500060E08BE70E949C0461E288E70E949C049F
:1019600061E08FEF0E949C0464E383E20E949C0488
:1019700060E082E40E949C046FEF84E40E949C0477
:1019800066E285E40E949C0465E086E40E949C0473
:1019900060E480E40E949C0466E08EE00E949C0467
:1019A0006AE180E20E949C0460E483E40E949C045B
:1019B00060E08FEF0E949C0463E084E30E949C043B
:1019C00064E485E30E949C0461E08FEF0E949C0424
:1019D00064E081E30E949C0469E08BE40E949C0423
:1019E00065E08CE40E949C0464E08DE40E949C0409
:1019F00060E08FEF0E949C0460E084E40E949C04FD
:101A000060E285E40E949C0468E087E40E949C04F4
:101A100068E288E40E949C0460E087E60E949C04DF
:101A200064E080E70E949C0461E081E70E949C04DE
:101A30006EEF82E70E949C0460E086E70E949C04AF
:101A400060E087E70E949C0461E08FEF0E949C04A5
:101A500061E08DE00E949C0460E08FEF0E949C0496
:101A600061E080E80E949C0468EF81E00E949C0491
:101A700061E08FEF0E949C0461E08EE80E949C046C
:101A800061E080E00E949C0460E08FEF0E949C0473
:101A900060E080E80E949C0464E08AE00E949C046C
:101AA00084E80E94E804682F6F7E84E80E949C040A
:101AB00061E08BE00E949C040E949C0A6093B80144
:101AC0007093B9018093BA019093BB0168EE81E0F5
:101AD0000E949C048091B8019091B901A091BA0133
:101AE000B091BB01BC01CD010E94B10961E081E070
:101AF0000E949C0480E40E94150B882309F42FCED9
:101B000062E081E00E949C0480E00E94150B882323
:101B100009F425CE68EE81E00E949C0481E020CE8D
:101B200030E002C0359527956A95E2F720FF6ACE2E
:101B3000AF5F68CE8F929F92AF92BF92CF92DF92AB
:101B4000EF92FF920F931F93CF93DF93CDB7DEB742
:101B5000A3970FB6F894DEBF0FBECDBF7C01162F42
:101B6000062F06950150CE0147960E943F08BE0100
:101B70006F5F7F4FCE0147960E945C08E114F1042D
:101B800009F0B3C0103109F4AEC040F41C3009F4C0
:101B9000A8C060E31E3029F080E090C060E51231FB
:101BA000D9F787E50E949C0468E086E50E949C04C2
:101BB000602F80E50E949C04A12FB0E020E03FE26E
:101BC0004AE350E00E943012DC01CB018C509E4F62
:101BD000AF4FBF4F8C8F9D8FAE8FBF8FBC01CD019C
:101BE00028EE33E040E050E00E940E1249015A0115
:101BF0006C8D7D8D8E8D9F8D20ED37E040E050E027
:101C00000E940E1269017A012F85388949895A8903
:101C1000A8EEB3E00E943012DC01CB018C0D9D1DBB
:101C2000AE1DBF1D8C8F9D8FAE8FBF8FBC01CD01B0
:101C3000A50194010E940E12C9010E947E04BC01FC
:101C400081E50E94AE042B853C854D855E85A8EE1E
:101C5000B3E00E943012DC01CB018C0D9D1DAE1D46
:101C6000BF1DBC01CD01A50194010E940E122130BF
:101C700091E0390710F020E031E06FEF620F86E469
:101C80000E949C048091B8019091B901A091BA0181
:101C9000B091BB01BC01CD010E94B10981E00E945D
:101CA000E804182F62E081E00E949C0480E00E941A
:101CB000150B612F81E00E949C0481E0A3960FB672
:101CC000F894DEBF0FBECDBFDF91CF911F910F9172
:101CD000FF90EF90DF90CF90BF90AF909F908F904C
:101CE000089568E15ECF60E45CCFEA94EF2809F0E4
:101CF00053CF1C3009F4A0C0D8F4183051F11A3079
:101D000009F04ACF68E288E40E949C0468E087E416
:101D10000E949C0463E082E30E949C0469E080E3EB
:101D20000E949C0461E08FEF0E949C0460E226C048
:101D30001E3009F031CF68E488E40E949C0468E01A
:101D400087E40E949C0463E082E30E949C0467E0B5
:101D5000E6CF60E188E40E949C0468E087E40E948A
:101D60009C0462E082E30E949C046CE080E30E9499
:101D70009C0461E08FEF0E949C0460E380E30E947A
:101D80009C0460E08FEF0E949C04602F80E70E941B
:101D90009C04A12FB0E020E03FE24AE350E00E9423
:101DA0003012DC01CB018C509E4FAF4FBF4F8C8F58
:101DB0009D8FAE8FBF8F2B893C894D895E89A8EEA0
:101DC000B3E00E94301268A379A38AA39BA36C8D11
:101DD0007D8D8E8D9F8D20ED37E040E050E00E949C
:101DE0000E1288A199A1AAA1BBA1820F931FA41FC3
:101DF000B51F88A399A3AAA3BBA36C8D7D8D8E8DDF
:101E00009F8D28EE33E040E050E00E940E1268A162
:101E100079A18AA19BA10E940E12C9016A8D662335
:101E200021F08F819885820F931F0E947E04BC0150
:101E300081E70E94AE0426CF68E388E40E949C04F8
:101E400068E087E40E949C0463E082E30E949C04B3
:101E500068E065CFE4E6F0E080818D7F8083E1EC8F
:101E6000F0E08081886180831092C50088E08093D3
:101E7000C400E0ECF0E0808182608083089590915E
:101E8000C00095FFFCCF8093C60008959FE9980F8E
:101E9000963010F48755089580538A3008F08FEFFC
:101EA00008951F93CF93DF93EC01FE01149111234A
:101EB00051F0812F0E943F0F1A3019F48DE00E94DB
:101EC0003F0F2196F2CFDF91CF911F9108958F920E
:101ED0009F92AF92BF92EF92FF920F931F93CF9377
:101EE000DF93CDB7DEB72E970FB6F894DEBF0FBEE7
:101EF000CDBF6B877C878D879E878E010F5F1F4FBD
:101F000078018AE0882E912CA12CB12C8B859C85A0
:101F1000AD85BE85892B8A2B8B2B19F4E016F10633
:101F200081F46B857C858D859E85A50194010E9439
:101F30000E12D8016D938D012B873C874D875E87EC
:101F4000E5CFF80182918F01805D0E943F0FE0167E
:101F5000F106B9F72E960FB6F894DEBF0FBECDBFCF
:101F6000DF91CF911F910F91FF90EF90BF90AF90B5
:101F70009F908F9008958F929F92AF92BF92CF9231
:101F8000DF92EF92FF92CF93DF9300D000D000D08A
:101F9000CDB7DEB76B017C01842F90E09E838D83EB
:101FA00088248394912C042E02C0880C991C0A94D6
:101FB000E2F791E0891A9108092C000CAA08BB08E5
:101FC000D701CB0104C0B695A795979587954A95FB
:101FD000D2F7BC01CD010E94670F8EE20E943F0F35
:101FE000A50194012C213D214E215F2121153105B0
:101FF00041055105F1F0AAE0B0E00E94301269837A
:102000007A838B839C83DC01CB010D8004C0B69561
:10201000A795979587950A94D2F7805D0E943F0F08
:1020200029813A814B815C81282139214A215B2118
:10203000DDCF26960FB6F894DEBF0FBECDBFDF9181
:10204000CF91FF90EF90DF90CF90BF90AF909F9097
:102050008F900895CF92DF92EF92FF92CF93DF930C
:102060006B017C01842F8150990BEC01CC0FDD1F9B
:10207000CC0FDD1FD7FD16C0D701C6010C2E04C042
:10208000B695A795979587950A94D2F78F7099275B
:10209000AA27BB2789599E4FFC0180810E943F0FD0
:1020A0002497E8CFDF91CF91FF90EF90DF90CF9012
:1020B0000895EF92FF920F931F93CF93DF93CDB7C5
:1020C000DEB72A970FB6F894DEBF0FBECDBF8C01E6
:1020D0007B0119821A821B821C8289819A818E154A
:1020E0009F0508F03FC021E1E216F10498F08F70DF
:1020F0009927892B79F481E790E00E94510F44E001
:1021000069817A818B819C810E942A108EE690E001
:102110000E94510F09871A87A985BA858D91BA87C0
:10212000A987282F30E050E040E02D833E834F8385
:10213000588742E06D817E818F8198850E942A10A8
:102140008CE690E00E94510F89819A81AB81BC811D
:102150000196A11DB11D89839A83AB83BC83098538
:102160001A85BBCF2A960FB6F894DEBF0FBECDBF3F
:10217000DF91CF911F910F91FF90EF9008951092F2
:10218000B90082E08093B800089594EA9093BC006F
:102190002FEF3FEF2150310911F481E00895909124
:1021A000BC0097FFF7CF9091B900987F983011F05D
:1021B000903199F78093BB0084E88093BC008FEF47
:1021C0009FEF019751F32091BC0027FFFACF909128
:1021D000B900987F983119F081E0903411F480E0D3
:1021E0000895089524EA34E844E92093BC009091CE
:1021F000BC0097FFFCCF9091B900987F983011F008
:10220000903199F78093BB003093BC009091BC0053
:1022100097FFFCCF9091B900987F903211F09835DC
:1022200039F44093BC009091BC0094FDFCCFDDCF0D
:1022300008950C94C51084E98093BC008FEF9FEF44
:10224000019721F02091BC0024FDFACF08958093DE
:10225000BB0084E88093BC008FEF9FEF019761F093
:102260002091BC0027FFFACF9091B900987F81E0C0
:10227000983209F480E0089581E0089584EC809319
:10228000BC008FEF9FEF019739F02091BC0027FF32
:10229000FACF8091BB00089580E0089584E8809390
:1022A000BC008FEF9FEF019739F02091BC0027FF12
:1022B000FACF8091BB00089580E00895CF93C0E0ED
:1022C0008C2F880F0E94C5100E941B11CF5FC03851
:1022D000B9F7CF91089582E084BD95E095BD9AE766
:1022E00097BD80936E000895CF93DF9300D000D008
:1022F000CDB7DEB78FB7F8942091C2013091C301FA
:102300004091C4015091C50129833A834B835C837A
:102310008FBF69817A818B819C810F900F900F9084
:102320000F90DF91CF9108951F921FB61F92112435
:102330008F939F93AF93BF938091C2019091C301FC
:10234000A091C401B091C5010F96A11DB11D80934C
:10235000C2019093C301A093C401B093C5018091C1
:10236000C6019DE5980F9D3750F49093C601BF912B
:10237000AF919F918F911F901FBE1F901895805213
:102380008093C6018091C2019091C301A091C401C4
:10239000B091C5010196A11DB11D8093C20190931A
:1023A000C301A093C401B093C501E1CF0E941304FF
:1023B0000E94B50082ED94E00E94E103FBCFEFE9BB
:1023C000F1E082E0838383E78783838182831582C0
:1023D0001482118210821682E2E9F1E081E08383A7
:1023E00081E7878383818283158214821182108220
:1023F00016820895AA1BBB1B51E107C0AA1FBB1F71
:10240000A617B70710F0A61BB70B881F991F5A9580
:10241000A9F780959095BC01CD010895A1E21A2EEF
:10242000AA1BBB1BFD010DC0AA1FBB1FEE1FFF1F78
:10243000A217B307E407F50720F0A21BB30BE40BC8
:10244000F50B661F771F881F991F1A9469F760950F
:102450007095809590959B01AC01BD01CF010895C9
:102460000E944912A59F900DB49F900DA49F800DCE
:10247000911D11240895B7FF0C9430120E94301260
:10248000821B930B0895EE0FFF1F0590F491E02D32
:102490000994A29FB001B39FC001A39F700D811D3D
:1024A0001124911DB29F700D811D1124911D08955D
:1024B0000E94C91208F481E008950E94F51288F084
:1024C0009F5798F0B92F9927B751B0F0E1F0660FF8
:1024D000771F881F991F1AF0BA95C9F714C0B13039
:1024E00091F00E940F13B1E008950C940F13672F21
:1024F000782F8827B85F39F0B93FCCF38695779568
:102500006795B395D9F73EF4909580957095619550
:102510007F4F8F4F9F4F0895E89409C097FB3EF47B
:1025200090958095709561957F4F8F4F9F4F992320
:10253000A9F0F92F96E9BB279395F695879577959E
:102540006795B795F111F8CFFAF4BB0F11F460FF5E
:102550001BC06F5F7F4F8F4F9F4F16C0882311F0B6
:1025600096E911C0772321F09EE8872F762F05C0CA
:10257000662371F096E8862F70E060E02AF09A9565
:10258000660F771F881FDAF7880F9695879597F95A
:102590000895990F0008550FAA0BE0E8FEEF1616F4
:1025A0001706E807F907C0F012161306E407F50747
:1025B00098F0621B730B840B950B39F40A2661F0BB
:1025C000232B242B252B21F408950A2609F4A1405E
:1025D000A6958FEF811D811D089557FD9058440FDA
:1025E000551F59F05F3F71F04795880F97FB991F72
:1025F00061F09F3F79F0879508951216130614062F
:10260000551FF2CF4695F1DF08C0161617061806BB
:10261000991FF1CF86957105610508940895E89496
:10262000BB2766277727CB0197F908950E94C91227
:1026300008F48FEF08950E942E130C949F130E94AC
:10264000911338F00E94981320F0952311F00C9408
:1026500088130C948E1311240C9410130E94ED1205
:1026600070F3959FC1F3950F50E0551F629FF001E5
:10267000729FBB27F00DB11D639FAA27F00DB11DFE
:10268000AA1F649F6627B00DA11D661F829F222787
:10269000B00DA11D621F739FB00DA11D621F839F0E
:1026A000A00D611D221F749F3327A00D611D231FE4
:1026B000849F600D211D822F762F6A2F11249F5732
:1026C00050409AF0F1F088234AF0EE0FFF1FBB1F35
:1026D000661F771F881F91505040A9F79E3F5105F4
:1026E00080F00C9488130C9410135F3FE4F3983E31
:1026F000D4F3869577956795B795F795E7959F5F9E
:10270000C1F7FE2B880F911D9695879597F908952F
:1027100097F99F6780E870E060E008959FEF80EC94
:10272000089500240A941616170618060906089537
:1027300000240A9412161306140605060895092E9D
:102740000394000C11F4882352F0BB0F40F4BF2B0C
:1027500011F460FF04C06F5F7F4F8F4F9F4F08954C
:04276000F894FFCF1B
:10276400011401003F065B4F666D7D077F6F00C655
:10277400CC183066C600527CC6CEDEF6E67C00304D
:102784007030303030FC0078CC0C3860CCFC0078F1
:10279400CC0C380CCC78001C3C6CCCFE0C1E00FC21
:1027A400C0F80C0CCC78003860C0F8CCCC7800FCB5
:1027B400CC0C183030300078CCCC78CCCC78007885
:1027C400CCCC7C0C18700030313233343536373889
:0827D40039414243444546002F
:00000001FF
