:100000000BC024C023C022C021C020C0A8C01EC075
:100010001DC01CC01BC01AC011241FBECFEDCDBF18
:1000200010E0A0E6B0E0EAEEF6E003C0C895319635
:100030000D92AA3BB107D1F710E0AAEBB0E001C0E6
:100040001D92AA3CB107E1F755D24DC3D9CF0000AC
:1000500090E0C198000087FF02C0C09A01C0C0981C
:10006000C19A9F5F983011F0880FF3CF0895DF9207
:10007000EF92FF920F931F93182FF62EE42ED22E9D
:10008000C298E5DF8F2DE3DF812FE1DF8E2DDFDFEB
:10009000812FDDDF8D2DDBDF812FD9DF802FD7DFB3
:1000A00084E088BB1F910F91FF90EF90DF9008953F
:1000B0000F931F93DF93CF930F92CDB7DEB791E0ED
:1000C000892F60E070E040E050E020E030E000E0A8
:1000D00010E09983CCDF99819F5F993089F70F9069
:1000E000CF91DF911F910F9108950F931F9387E098
:1000F00087BB89E060E070E040E050E020E030E065
:1001000000E010E0B4DF8AE060E070E040E050E042
:1001100020E030E0ACDF8BE067E070E047E050E0EB
:1001200027E030E007E010E0A2DF8CE061E070E063
:1001300041E050E021E030E001E010E098DF8FE0A6
:1001400060E070E040E050E020E030E000E010E0EF
:100150008EDF1F910F91089581E083BF08951F9254
:100160000F920FB60F9211248F939F93AF93BF936B
:100170008091BE009091BF00A091C000B091C100DD
:100180000196A11DB11D8093BE009093BF00A09366
:10019000C000B093C100BF91AF919F918F910F901C
:1001A0000FBE0F901F90189582E089BF7894089534
:1001B00086B38295869586958170089586B38295DB
:1001C000869586958370809581700895C39A8AE19B
:1001D0008A95F1F788B318BA0895C39A8AE18A9587
:1001E000F1F788B318BAB69BFECF12BE1092BE00CC
:1001F0001092BF001092C0001092C100B69B0DC0BB
:100200008091BE009091BF00A091C000B091C1004C
:100210008C5B9240A040B04089F782B78093B800D1
:1002200022B78091BE009091BF00A091C000B09114
:10023000C100BA2FA92F982F8827820F911DA11DC9
:10024000B11D8093C6009093C700A093C800B093DF
:10025000C9006091C6007091C7008091C80090915C
:10026000C90022ED31E040E050E0EFD1842F952F1E
:10027000622F732F08959F92AF92BF92CF92DF9219
:10028000EF92FF920F931F93DF93CF93CDB7DEB71B
:100290002A970FB6F894DEBF0FBECDBFE62EF72E1D
:1002A000082F192F9FB6F894442319F0AA24BB24D1
:1002B00003C0A2E0AA2EB12C80EB90E09A83898340
:1002C000912F802F7F2D6E2D2AE030E040E050E00E
:1002D000BCD1F3E0660F771FFA95E1F7605A7F4FC4
:1002E0007C836B83912F802F7F2D6E2D2AE030E051
:1002F00040E050E0AAD1952F842F732F622F2AE07F
:1003000030E040E050E0A1D1E3E0660F771FEA95CE
:10031000E1F7605A7F4F7E836D83912F802F7F2D71
:100320006E2D24E630E040E050E08FD1952F842FF1
:10033000732F622F2AE030E040E050E086D153E096
:10034000660F771F5A95E1F7605A7F4F78876F8362
:10035000912F802F7F2D6E2D28EE33E040E050E06E
:1003600074D1952F842F732F622F2AE030E040E064
:1003700050E06BD143E0660F771F4A95E1F7605A72
:100380007F4F7A876987CC2EDD2E0894C11CD11C43
:10039000CA0CDB1CEE24FF24AC2DBD2DED91FC918D
:1003A0001197EE0DFF1D60811296ED91FC91139750
:1003B000EE0DFF1D40811496ED91FC911597EE0D09
:1003C000FF1D20811696ED91FC911797EE0DFF1DF4
:1003D00000818E2D8F5F70E050E030E010E047DE4E
:1003E0000894E11CF11CB8E0EB16F104A9F69FBEDD
:1003F0002A960FB6F894DEBF0FBECDBFCF91DF9126
:100400001F910F91FF90EF90DF90CF90BF90AF9032
:100410009F900895EF92FF920F931F93CF93DF93D6
:10042000E82EF92E00E010E0C8ECD0E0912F802FEC
:100430007F2D6E2D40E01FDF80E197E2EC2FFD2F36
:100440003197F1F70197D1F7F1CF40E014DF80E168
:1004500097E228EC30E0E22FF32F3197F1F7019784
:10046000D1F726DE80ED97E028EC30E0E22FF32F85
:100470003197F1F70197D1F70895AFDE6093C2008D
:100480007093C3008093C4009093C5008091C20014
:100490009091C300A091C400B091C500893C910522
:1004A000A105B10518F029EE33E021C08091C2000A
:1004B0009091C300A091C400B091C50088539F4F94
:1004C000AF4FBF4F8093BA009093BB00A093BC0086
:1004D000B093BD004091BA005091BB006091BC0048
:1004E0007091BD0080E090E0DAD020E030E0822F13
:1004F000932F0895EF92FF920F931F93CF93DF9363
:10050000F4DDBB9A80E090E0C7D06093BA007093AE
:10051000BB008093BC009093BD006091BA007091C5
:10052000BB008091BC009091BD008FDF81E083BF54
:1005300082E089BF7894A1DF009709F06BDF6091BA
:10054000C2007091C3008091C4009091C5007DDF0E
:100550006091BA007091BB008091BC009091BD0089
:1005600074DFC8ECD0E039DE6093C2007093C30042
:100570008093C4009093C5006091BA007091BB0055
:100580008091BC009091BD002091C2003091C300C9
:100590004091C4005091C500E090BA00F090BB00BB
:1005A0000091BC001091BD00621B730B840B950B76
:1005B00024E630E040E050E02DD0512F402F3F2D79
:1005C0002E2D43D025363105B0F08091C200909198
:1005D000C300A091C400B091C50088539F4FAF4F96
:1005E000BF4F8093BA009093BB00A093BC00B09320
:1005F000BD0024E630E0622F732F80E090E041E000
:100600003ADE80E197E2EC2FFD2F3197F1F7019769
:10061000D1F7A9CFFF27EE27BB27AA2760FF04C089
:10062000A20FB31FE41FF51F220F331F441F551FD6
:10063000969587957795679589F70097760771F76F
:100640009F2F8E2F7B2F6A2F0895A1E21A2EAA1BAF
:10065000BB1BEA2FFB2F0DC0AA1FBB1FEE1FFF1FE6
:10066000A217B307E407F50720F0A21BB30BE40BB6
:10067000F50B661F771F881F991F1A9469F76095FD
:10068000709580959095262F372F482F592F6A2FD8
:100690007B2F8E2F9F2F0895A6E144E00AC0242FC0
:1006A00016D0252F14D000C011D0272F10C0A82F8E
:1006B000862FE82FE199FECF1FBA05C0EEBBE09A66
:1006C000E3950DB20D924150C8F70895262FE19998
:1006D000FECF1FBA8EBB2DBB0FB6F894E29AE19AFB
:0A06E0000FBE01960895F894FFCFB5
:1006EA007CC6CEDEF6E67C00307030303030FC005E
:1006FA0078CC0C3860CCFC0078CC0C380CCC780068
:10070A001C3C6CCCFE0C1E00FCC0F80C0CCC780017
:10071A003860C0F8CCCC7800FCCC0C1830303000F3
:10072A0078CCCC78CCCC780078CCCC7C0C18700007
:0A073A0000C6CC183066C6000500AA
:00000001FF
