:100000000BC024C023C022C021C020C0A5C01EC078
:100010001DC01CC01BC01AC011241FBECFEDCDBF18
:1000200010E0A0E6B0E0E8E4F7E003C0C895319640
:100030000D92AA3BB107D1F710E0AAEBB0E001C0E6
:100040001D92AC3CB107E1F721D27CC3D9CF0000AF
:1000500090E0C198000087FF02C0C09A01C0C0981C
:10006000C19A9F5F983011F0880FF3CF0895DF9207
:10007000EF92FF920F931F93182FF62EE42ED22E9D
:10008000C298E5DF8F2DE3DF812FE1DF8E2DDFDFEB
:10009000812FDDDF8D2DDBDF812FD9DF802FD7DFB3
:1000A00084E088BB1F910F91FF90EF90DF9008953F
:1000B0000F931F93DF93CF930F92CDB7DEB791E0ED
:1000C000892F60E070E040E050E020E030E000E0A8
:1000D00010E09983CCDF99819F5F993089F70F9069
:1000E000CF91DF911F910F9108950F931F9387E098
:1000F00087BB89E060E070E040E050E020E030E065
:1001000000E010E0B4DF8AE060E070E040E050E042
:1001100020E030E0ACDF8BE067E070E047E050E0EB
:1001200027E030E007E010E0A2DF8CE061E070E063
:1001300041E050E021E030E001E010E098DF8FE0A6
:1001400060E070E040E050E020E030E000E010E0EF
:100150008EDF1F910F9108951F920F920FB60F928D
:1001600011248F939F93AF93BF938091BE00909182
:10017000BF00A091C000B091C1000196A11DB11DAA
:100180008093BE009093BF00A093C000B093C100C5
:10019000BF91AF919F918F910F900FBE0F901F90C5
:1001A0001895C39A8AE18A95F1F788B318BA20E0C6
:1001B00030E02130310521F12130310520F02230AD
:1001C0003105B9F72FC08091BE009091BF00A0917A
:1001D000C000B091C1008C5B9240A040B04011F4CF
:1001E00022E030E0B69BE5CF12BE1092BE00109226
:1001F000BF001092C0001092C10021E030E0D9CFC2
:10020000B69B0DC08091BE009091BF00A091C00030
:10021000B091C1008C5B9240A040B04051F622E00A
:1002200030E0C7CF3093C7002093C60082B78093D9
:10023000B80022B78091BE009091BF00A091C0008D
:10024000B091C100BA2FA92F982F8827820F911D36
:10025000A11DB11D8093C8009093C900A093CA004E
:10026000B093CB006091C8007091C9008091CA0022
:100270009091CB0022ED31E040E050E015D2842F88
:10028000952F622F732F08959F92AF92BF92CF92B6
:10029000DF92EF92FF920F931F93DF93CF93CDB72F
:1002A000DEB72A970FB6F894DEBF0FBECDBFE62E9D
:1002B000F72E082F192F9FB6F894442319F0AA247B
:1002C000BB2403C0A2E0AA2EB12C80EB90E09A835D
:1002D0008983912F802F7F2D6E2D2AE030E040E022
:1002E00050E0E2D1F3E0660F771FFA95E1F7605A2C
:1002F0007F4F7C836B83912F802F7F2D6E2D2AE083
:1003000030E040E050E0D0D1952F842F732F622F42
:100310002AE030E040E050E0C7D1E3E0660F771F0D
:10032000EA95E1F7605A7F4F7E836D83912F802F8E
:100330007F2D6E2D24E630E040E050E0B5D1952FC2
:10034000842F732F622F2AE030E040E050E0ACD1E0
:1003500053E0660F771F5A95E1F7605A7F4F788711
:100360006F83912F802F7F2D6E2D28EE33E040E09C
:1003700050E09AD1952F842F732F622F2AE030E01E
:1003800040E050E091D143E0660F771F4A95E1F7D6
:10039000605A7F4F7A876987CC2EDD2E0894C11C66
:1003A000D11CCA0CDB1CEE24FF24AC2DBD2DED911D
:1003B000FC911197EE0DFF1D60811296ED91FC915D
:1003C0001397EE0DFF1D40811496ED91FC9115974A
:1003D000EE0DFF1D20811696ED91FC911797EE0D05
:1003E000FF1D00818E2D8F5F70E050E030E010E047
:1003F0003EDE0894E11CF11CB8E0EB16F104A9F60E
:100400009FBE2A960FB6F894DEBF0FBECDBFCF9128
:10041000DF911F910F91FF90EF90DF90CF90BF90F1
:10042000AF909F900895EF92FF920F931F93CF93F9
:10043000DF93E82EF92E00E010E0C8ECD0E0912F19
:10044000802F7F2D6E2D40E01FDF80E197E2EC2FA3
:10045000FD2F3197F1F70197D1F7F1CF40E014DF8D
:1004600080E197E228EC30E0E22FF32F3197F1F7AB
:100470000197D1F71DDE80ED97E028EC30E0E22F08
:10048000F32F3197F1F70197D1F70895EF92FF928B
:100490000F931F93CF93DF9328DEBB9A80E090E009
:1004A0002AD16093BA007093BB008093BC009093F4
:1004B000BD006091BA007091BB008091BC0090912A
:1004C000BD00CCDF81E083BF82E089BF789469DE24
:1004D0006093C2007093C3008093C4009093C500E2
:1004E0008091C2009091C300A091C400B091C5005A
:1004F000893C9105A105B10578F58091C2009091E4
:10050000C300A091C400B091C5000A97A105B10530
:1005100018F48AEE93E022C08091C2009091C3004B
:10052000A091C400B091C50088539F4FAF4FBF4FFB
:100530008093BA009093BB00A093BC00B093BD0021
:100540004091BA005091BB006091BC007091BD0019
:1005500080E090E0D3D003C089EE93E064DF609147
:10056000C2007091C3008091C4009091C50076DFF5
:100570006091BA007091BB008091BC009091BD0069
:100580006DDFC8ECD0E00DDE6093C2007093C30055
:100590008093C4009093C5008091C2009091C300E5
:1005A000A091C400B091C500893C9105A105B10599
:1005B00060F48091C2009091C300A091C400B091FA
:1005C000C5000A97A105B10530F469EE73E080E03B
:1005D00090E044DFD8CF6091BA007091BB00809169
:1005E000BC009091BD002091C2003091C3004091A9
:1005F000C4005091C500E090BA00F090BB0000919B
:10060000BC001091BD00621B730B840B950B24E69C
:1006100030E040E050E02DD0512F402F3F2D2E2DC7
:1006200043D025363105B0F08091C2009091C300CF
:10063000A091C400B091C50088539F4FAF4FBF4FEA
:100640008093BA009093BB00A093BC00B093BD0010
:1006500024E630E0622F732F80E090E041E014DE6A
:1006600080E197E2EC2FFD2F3197F1F70197D1F759
:100670008ACFFF27EE27BB27AA2760FF04C0A20F5F
:10068000B31FE41FF51F220F331F441F551F9695FC
:1006900087957795679589F70097760771F79F2F6C
:1006A0008E2F7B2F6A2F0895A1E21A2EAA1BBB1B47
:1006B000EA2FFB2F0DC0AA1FBB1FEE1FFF1FA217A3
:1006C000B307E407F50720F0A21BB30BE40BF50B0F
:1006D000661F771F881F991F1A9469F76095709598
:1006E00080959095262F372F482F592F6A2F7B2FD3
:1006F0008E2F9F2F0895A6E144E00AC0242F16D024
:10070000252F14D000C011D0272F10C0A82F862F5E
:10071000E82FE199FECF1FBA05C0EEBBE09AE39542
:100720000DB20D924150C8F70895262FE199FECFE2
:100730001FBA8EBB2DBB0FB6F894E29AE19A0FBE9A
:0807400001960895F894FFCF23
:100748007CC6CEDEF6E67C00307030303030FC00FF
:1007580078CC0C3860CCFC0078CC0C380CCC780009
:100768001C3C6CCCFE0C1E00FCC0F80C0CCC7800B9
:100778003860C0F8CCCC7800FCCC0C183030300095
:1007880078CCCC78CCCC780078CCCC7C0C187000A9
:0A07980000C6CC183066C60005004C
:00000001FF
