:100000000C943D000C945A000C945A000C945A0025
:100010000C945A000C945A000C945A000C945A00F8
:100020000C945A000C945A000C945A000C945A00E8
:100030000C945A000C945A000C94640F0C945A00BF
:100040000C945A000C945A000C945A000C945A00C8
:100050000C945A000C945A000C945A000C945A00B8
:100060000C945A000C945A00252000636D20002047
:10007000003A20000A202020200011241FBECFEFCC
:10008000D8E0DEBFCDBF11E0A0E0B1E0EEE9F3E2E1
:1000900002C005900D92AA36B107D9F721E0AAE671
:1000A000B1E001C01D92AE37B207E1F70E94A60F82
:1000B0000C94CD110C940000000098E028980000EA
:1000C00087FF06C02A9A289A880F9150B9F7089599
:1000D0002A98F9CFFF920F931F93CF93DF93C82FE6
:1000E000F62E142FD22F29980E945C008F2D0E948B
:1000F0005C008C2F0E945C00812F0E945C008C2F82
:100100000E945C008D2F0E945C008C2F0E945C007E
:10011000802F0E945C0082E085B9DF91CF911F9112
:100120000F91FF9008950F931F9384B1876084B956
:1001300010E000E030E020E050E040E070E060E0FF
:1001400089E00E946A0030E020E050E040E070E08A
:1001500060E08AE00E946A0007E010E027E030E0FB
:1001600047E050E067E070E08BE00E946A0001E049
:1001700010E021E030E041E050E061E070E08CE030
:100180000E946A0010E000E030E020E050E040E033
:1001900070E060E08FE00E946A001F910F91089567
:1001A0000F931F93CF93C1E010E000E030E020E018
:1001B00050E040E070E060E08C2F0E946A00CF5F6A
:1001C000C93091F7CF911F910F9108950F931F930D
:1001D000CF93DF93CDB7DEB72D970FB6F894DEBF80
:1001E0000FBECDBF0AE010E0CE0101960E94F404DC
:1001F000B8010E94071070936C0160936B018091AD
:100200006B0190916C0181608F3F9F4169F38091F8
:100210006B0190916C019C0150E040E02A873B8784
:100220004C875D87CA01B9010E94370D8BE690E0CB
:100230000E94210D80916B0190916C012D960FB65B
:10024000F894DEBF0FBECDBFDF91CF911F910F910C
:1002500008958F929F92BF92CF92DF92EF92FF927A
:100260000F931F93CF93DF93CDB7DEB72A970FB6C7
:10027000F894DEBF0FBECDBF7C01D62E80916A01FF
:100280008F5F80936A01843121F410926A010E9489
:100290009300BFB6F89480E091E09A8389832AE0C6
:1002A00030E0C701B9010E94071043E0880F991F91
:1002B0004A95E1F7875F9E4F9C838B83CB01B90101
:1002C0000E94071053E0880F991F5A95E1F7875F46
:1002D0009E4F9E838D83C70164E670E00E940710E5
:1002E000CB01B9010E94071063E0880F991F6A953E
:1002F000E1F7875F9E4F98878F83C70168EE73E0B1
:100300000E940710CB01B9010E94071073E0880F0B
:10031000991F7A95E1F7875F9E4F9A87898781E0D9
:10032000D11080E0C82ED12CCC0CDD1C81E090E0F7
:100330008C0F9D1FC80ED91EF12CE12C4601D60151
:100340001696ED91FC911797EE0DFF1D008110E0C0
:100350001496ED91FC911597EE0DFF1D208130E074
:100360001296ED91FC91EE0DFF1D408150E0D401FD
:10037000ED91FC91EE0DFF1D608170E081E08E0D2E
:100380000E946A00BFEFEB1AFB0A88E0E816F1044E
:10039000B1F6BFBE2A960FB6F894DEBF0FBECDBF32
:1003A000DF91CF911F910F91FF90EF90DF90CF9051
:1003B000BF909F908F900895D82FC92F60E08D2F08
:1003C0009C2F0E9429012FEF89E698E1215080405F
:1003D0009040E1F700C00000F1CF60E00E942901E9
:1003E0002FEF89E698E1215080409040E1F700C06E
:1003F00000000E94D0002FEF81EE94E02150804059
:100400009040E1F700C0000008950F931F93CF9331
:10041000DF93D0E0C0E010E000E00E94E60090939F
:100420006C0180936B0180916B0190916C01823E15
:10043000910588F089EE93E00E94ED01C530D10569
:1004400061F7C801BE010E940710CB01DF91CF9177
:100450001F910F91089580916B0190916C010A9703
:1004600048F380916B0190916C01080F191F8FEC7C
:1004700097E00197F1F700C000002196DFCF0E94BE
:10048000FA0CE1ECF0E080818F7E808382E08AB913
:100490000E948F0E0E943B0F789408950F931F9334
:1004A0000097B9F00197B0E0A0E050E040E08C0187
:1004B0009D010027012B022B032B39F0B695A79540
:1004C000979587954F5F5F4FF2CF342F2227822B6E
:1004D000932B1F910F910895CF93DF93D82FC62FA1
:1004E000809108010E94950E8D2F0E94F70E8C2F8F
:1004F0000E94F70EDF91CF910C94EB0E1F93CF93D8
:10050000DF93182FEB01809108010E94950E812F37
:100510000E94F70E8D2F0E94F70E8C2F0E94F70E6F
:10052000DF91CF911F910C94EB0EFF920F931F93CD
:10053000CF93DF93F82EEA01162F072F8091080141
:100540000E94950E8F2D0E94F70E802F0E94F70EAD
:10055000812F0E94F70E8D2F0E94F70E8C2F0E9484
:10056000F70EDF91CF911F910F91FF900C94EB0E3E
:10057000CF93C82F809108010E94950E8C2F0E9466
:10058000F70E8091080181600E94E90E0E941E0F03
:10059000C82F0E94EB0E8C2FCF910895CF93DF933D
:1005A000C82F809108010E94950E8C2F0E94F70E93
:1005B0008091080181600E94E90E0E940E0FC82FF1
:1005C000D0E0DC2FCC270E941E0FC82B0E94EB0E20
:1005D000CE01DF91CF910895CF92DF92EF92FF92FB
:1005E000CF93DF9300D000D0CDB7DEB78983809161
:1005F00008010E94950E89810E94F70E80910801E2
:1006000081600E94E90E0E940E0F90E0B0E0A0E031
:10061000F82EEE24DD24CC240E940E0FE82A0E943E
:100620000E0F89830E941E0FC82AD701C601298197
:10063000922B89839A83AB83BC830E94EB0E6981E2
:100640007A818B819C810F900F900F900F90DF919A
:10065000CF91FF90EF90DF90CF900895FF920F938E
:100660001F93CF93DF93C82FF62E072F142F80915F
:1006700008010E94950E8C2F0E94F70E115040F039
:10068000CF2DD02F89910E94F70EFC2E0D2FF6CF83
:10069000DF91CF911F910F91FF900C94EB0EEF9291
:1006A000FF920F931F93CF93DF93082FEB01142F2B
:1006B000809108010E94950E802F0E94F70E809174
:1006C000080181600E94E90E112379F07E018FEF0D
:1006D000E81AF80A123030F00E940E0F8883115089
:1006E000E701F2CF0E941E0FF9CFDF91CF911F914A
:1006F0000F91FF90EF900C94EB0ECF93C82F682FC3
:1007000066958AE80E946C02C0930801CF91089513
:100710008091080108950F931F93CF93DF9300D02A
:1007200000D000D0CDB7DEB78B018E839D8320E053
:1007300030E0A90169831A838B839C8369817A8164
:100740008B819C810E945F1087FD2FC028EB3EEFBC
:100750004FEF53E469817A818B819C810E941D1146
:1007600018161CF120E030E040E053E469817A8102
:100770008B819C810E94221169837A838B839C8365
:1007800069817A818B819C810E94641084E40E943B
:100790007E0281E026960FB6F894DEBF0FBECDBF75
:1007A000DF91CF911F910F91089580E0F3CFCF9308
:1007B000DF9300D000D0CDB7DEB784E40E94CE0234
:1007C0009C0150E040E029833A834B835C83CA015B
:1007D000B9010E94931020E030E040E05CE36983BF
:1007E0007A838B839C8369817A818B819C810E942F
:1007F000221169837A838B839C8369817A818B81BF
:100800009C810F900F900F900F90DF91CF910895E2
:100810009C0180E52115310521F02130310531F4AD
:1008200080E70E94B8028F5F880F08958FEF0895C8
:10083000CF92DF92EF92FF926B017C0161E080E842
:100840000E946C0261E08FEF0E946C0260E080E029
:100850000E946C026091730181E90E946C0261E068
:1008600080E00E946C0260E08FEF0E946C0260E00A
:1008700080E80E946C0262E0C114D104E104F1043A
:1008800091F088EF0E94CE02DC01892B31F0A701A4
:1008900096010E943D106B017C01B701A60184E026
:1008A0000E94950264E080E0FF90EF90DF90CF908F
:1008B0000C946C0261E080E00E946C0261E08FEFBA
:1008C0000E946C0260E080E00E946C0260E081E9BE
:1008D0000E946C0261E080E00E946C0260E08FEF99
:1008E0000C946C02EF92FF920F931F93CF93DF93C0
:1008F000CDB7DEB760970FB6F894DEBF0FBECDBFA1
:100900007C010E94440F709375016093740183E130
:100910000E94B802877079F58091770190917801F3
:10092000892BA9F30E94440F6D877E878F87988B50
:1009300080917401909175012D853E85281B390B9E
:10094000C901209177013091780128173907F8F60D
:1009500081E0809376010FEF1FEFC80160960FB61C
:10096000F894DEBF0FBECDBFDF91CF911F910F91E5
:10097000FF90EF900895E114F10449F48EE10E9494
:10098000CE028C0161E08BE00E946C02E6CF4CE06D
:10099000BE016F5F7F4F84E10E944F03898190E029
:1009A00023E0959587952A95E1F7F70180878B815C
:1009B0009C81982789279827978386838F8198859C
:1009C0009827892798279383828389859A859827F2
:1009D00089279827958384830B851C8510270127F9
:1009E000102711830083CECFCF93DF9300D000D0A8
:1009F00000D0CDB7DEB78E839D8361E080E80E9492
:100A00006C0261E08FEF0E946C0260E080E00E9467
:100A10006C026091730181E90E946C0261E080E0E8
:100A20000E946C0260E08FEF0E946C0260E080E840
:100A30000E946C0261E080E00E946C020E94440F00
:100A4000709375016093740180E00E94B80280FF8A
:100A50002AC08091770190917801892BA9F30E9497
:100A6000440F69837A838B839C8380917401909176
:100A7000750129813A81281B390BC9012091770121
:100A80003091780128173907F8F681E080937601D4
:100A90008FEF9FEF26960FB6F894DEBF0FBECDBF47
:100AA000DF91CF9108958E819D8126960FB6F8949F
:100AB000DEBF0FBECDBFDF91CF910C947204809149
:100AC00076011092760108959093780180937701D2
:100AD000089580917701909178010895EF92FF92A7
:100AE0000F931F93CF93DF9300D000D00F92CDB719
:100AF000DEB77C018B0161E080E80E946C0261E05E
:100B00008FEF0E946C0260E080E00E946C0266E061
:100B10008FEF0E946C0283E80E94B802682F646025
:100B200083E80E946C0267E08FEF0E946C0261E034
:100B300081E80E946C0261E080E80E946C026BE632
:100B400084E90E946C0260E083E80E946C020E94CB
:100B5000440F709375016093740183E80E94B8029A
:100B60008D83811129C08091770190917801892B23
:100B7000A1F30E94440F69837A838B839C838091C5
:100B800074019091750129813A81281B390BC901A3
:100B9000209177013091780128173907F0F68D817F
:100BA0000F900F900F900F900F90DF91CF911F91AA
:100BB0000F91FF90EF90089561E083E80E946C022E
:100BC00082E90E94B802982F9F77F7019083881FCF
:100BD0008827881FF801808360E081E80E946C020A
:100BE00066E08FEF0E946C0283E80E94B802682FD3
:100BF0006B7F83E80E946C0261E08FEF0E946C02C1
:100C000061E080E00E946C0260E08FEF0E946C0265
:100C100060E080E80E946C02F1E0FD83C0CFCF93DA
:100C2000DF93EC0181E00E94B80284FB992790F9E0
:100C3000988383FB992790F99A8382FB992790F9EF
:100C4000998386FB992790F99B83881F8827881FA3
:100C50008C83DF91CF9108954F925F926F927F9234
:100C60008F929F92AF92BF92EF92FF920F931F933A
:100C7000CF93DF93CDB7DEB72A970FB6F894DEBFD8
:100C80000FBECDBF8C0169877A8790E080E00E941B
:100C9000080490E0A985BA858D939C9386E40E9410
:100CA000B802E82EF12CBFEFEB1AFB0AE985FA85B2
:100CB000F582E482A081B0E020E03FE24AE350E028
:100CC0000E943D10DC01CB018C509E4FAF4FBF4FB7
:100CD00089839A83AB83BC8338EE832E33E0932ED3
:100CE000A12CB12CBC01CD01A50194010E941B10C7
:100CF000D7010E9448106D837E838F83988740EDD3
:100D0000442E47E0542E612C712C69817A818B81AD
:100D10009C81A30192010E941B108D819E81AF8155
:100D2000B885820F931FA41FB51F8D839E83AF8349
:100D3000B887BC01CD01A50194010E941B10A985B3
:100D4000BA851A962D933D934D935C931D9781E53B
:100D50000E94CE02E82EF12C02C0EE0CFF1C9A95E8
:100D6000E2F7BFEFEB1AFB0AE985FA85F782E68224
:100D7000A081B0E020E03FE24AE350E00E943D1055
:100D8000DC01CB018C509E4FAF4FBF4F89839A83BC
:100D9000AB83BC83BC01CD01A50194010E941B1053
:100DA000D7010E943D106D837E838F839887698170
:100DB0007A818B819C81A30192010E941B108D81FD
:100DC0009E81AF81B885820F931FA41FB51F8D83AD
:100DD0009E83AF83B887BC01CD01A50194010E9419
:100DE0001B10A985BA851E962D933D934D935C9358
:100DF000519780E70E94B8028F5F880F90E0E985E5
:100E0000FA859383828381E70E94CE02292F90E0A6
:100E100002C0880F991F2A95E2F70196A985BA8525
:100E200019969C938E931897F8012381222351F0F1
:100E300016962D913C911797821B930B19969C93B4
:100E40008E931897E985FA85A281B0E020E03FE211
:100E50004AE350E00E943D10DC01CB018C509E4FD4
:100E6000AF4FBF4F89839A83AB83BC8328EE822E1A
:100E700023E0922EA12CB12CBC01CD01A50194013F
:100E80000E941B10E985FA85A085B1850E943D105E
:100E90006D837E838F83988769817A818B819C8122
:100EA00020ED37E040E050E00E941B108D819E81D4
:100EB000AF81B885820F931FA41FB51FBC01CD0160
:100EC000A50194010E941B10A985BA8552962D9305
:100ED0003D934D935C9355972A960FB6F894DEBFD9
:100EE0000FBECDBFDF91CF911F910F91FF90EF907B
:100EF000BF90AF909F908F907F906F905F904F903A
:100F000008958F929F92AF92BF92CF92DF92EF920D
:100F1000FF921F93CF93DF93CDB7DEB7A3970FB6A2
:100F2000F894DEBF0FBECDBF4B015C0120E28216FC
:100F30002EE49206A104B10408F4CCC0CE01479679
:100F40000E940F06BE016F5F7F4FCE0147960E9441
:100F50002C068F89882309F4ABC08B859C85AD85D1
:100F6000BE858A5C944FAF4FBF4F298D222309F471
:100F7000A4C04B855C856D857E854E545D4F6F4F5B
:100F80007F4F440F551F661F771F840F951FA61FA5
:100F9000B71F1A8D112361F04F85588969897A89A5
:100FA0004C565D4F6F4F7F4F840F951FA61FB71F85
:100FB0002B8D222309F469C06C017D0126E2C20E4B
:100FC00022E0D21EE11CF11C8C149D04AE04BF046F
:100FD00008F480C0AB81B0E020E03FE24AE350E09B
:100FE0000E943D10DC01CB018C509E4FAF4FBF4F94
:100FF0008C8F9D8FAE8FBF8FA50194012C193D0959
:101000004E095F09A8EEB3E00E943D1068A379A3E2
:101010008AA39BA36C8D7D8D8E8D9F8D20ED37E0F7
:1010200040E050E00E941B1088A199A1AAA1BBA199
:10103000820F931FA41FB51F88A399A3AAA3BBA3C4
:101040006C8D7D8D8E8D9F8D28EE33E040E050E0DD
:101050000E941B1068A179A18AA19BA10E941B106C
:10106000C901112321F08F819885820F931F0E945F
:101070004E02BC0181E70E947E0280926F01909235
:101080007001A0927101B092720181E0A3960FB637
:10109000F894DEBF0FBECDBFDF91CF911F91FF90BF
:1010A000EF90DF90CF90BF90AF909F908F9008957A
:1010B00088EE98E0A0E0B0E058CF288D222309F414
:1010C00068CF4B855C856D857E854C565D4F6F4F37
:1010D0007F4F5BCF80E0DACF0F931F93CF93DF93E7
:1010E000CDB7DEB76B970FB6F894DEBF0FBECDBF9E
:1010F000CE0147960E940F06BE016F5F7F4FCE0163
:1011000047960E942C068F89882309F44DC06B8571
:101110007C858D859E856C57724F8F4F9F4F298D93
:10112000222309F446C00B851C852D853E850E546F
:101130001D4F2F4F3F4F000F111F221F331F600FF6
:10114000711F821F931F2A8D222361F00F8518893A
:1011500029893A890C561D4F2F4F3F4F600F711F41
:10116000821F931F2B8D222361F00B891C892D89EF
:101170003E890A5D1D4F2F4F3F4F600F711F821F29
:10118000931F60936F01709370018093710190932E
:1011900072016B960FB6F894DEBF0FBECDBFDF9124
:1011A000CF911F910F91089566E37BE080E090E07E
:1011B000B6CF288D222339F20B851C852D853E85DF
:1011C0000C561D4F2F4F3F4FBACFCF93DF9300D018
:1011D00000D00F92CDB7DEB7682F616080E00E942B
:1011E0006C020E94440F709375016093740183E157
:1011F0000E94B80287708D83811125C0809177018C
:1012000090917801892B99F30E94440F69837A8326
:101210008B839C83809174019091750129813A811F
:10122000281B390BC90120917701309178012817CB
:101230003907E8F68D810F900F900F900F900F9067
:10124000DF91CF91089561E08BE00E946C0260E035
:1012500080E00E946C0231E03D83ECCF0F931F933E
:10126000CF93DF93CDB7DEB72C970FB6F894DEBFE0
:101270000FBECDBF882341F089E80E94B802682FD5
:10128000616089E80E946C0260E088E80E946C025C
:1012900061E080E80E946C0261E08FEF0E946C02C6
:1012A00060E080E00E946C0281E90E94B8028093B5
:1012B000730161E080E00E946C0260E08FEF0E94A9
:1012C0006C0260E080E80E946C0280E60E94B80236
:1012D000682F626180E60E946C0260E270E084E444
:1012E0000E947E026FEF81E00E946C02BE01695F86
:1012F0007F4FCE0108960E946E0581110CC080E0E0
:101300002C960FB6F894DEBF0FBECDBFDF91CF9104
:101310001F910F91089546E0BE016F5F7F4F80EBF4
:101320000E944F0361E08FEF0E946C0260E08FE447
:101330000E946C026CE28EE40E946C0260E08FEF0F
:101340000E946C0264EB86EB0E946C029F819111FB
:101350009CE0B88580E0A0E001E010E0482F4695D1
:101360004695469550E021E030E02C0F3D1F240FBC
:10137000351FF9012081682F6770891710F0BA13A3
:101380009FC1E1E0F0E0EC0FFD1F4E0F5F1FF80181
:1013900002C0EE0FFF1F6A95E2F7BF01609526239A
:1013A000FA0120838F5F8033C9F646E0BE016F5F8C
:1013B0007F4F80EB0E942E0361E08FEF0E946C0252
:1013C00060E080E00E946C0260E08FEF0E946C029F
:1013D00060E089E00E946C0260E080E10E946C02A3
:1013E00060E081E10E946C0261E084E20E946C0294
:1013F0006FEF85E20E946C0260E085E70E946C025C
:1014000061E08FEF0E946C026CE28EE40E946C023D
:1014100060E088E40E946C0260E280E30E946C025B
:1014200060E08FEF0E946C0269E080E30E946C0232
:1014300060E084E50E946C0264E081E30E946C023B
:1014400063E082E30E946C0263E880E40E946C0225
:1014500065E286E40E946C0260E080E60E946C0215
:1014600060E087E20E946C0266E080E50E946C0208
:1014700060E081E50E946C0266E982E50E946C02F0
:1014800068E086E50E946C0260E387E50E946C02DA
:1014900060E081E60E946C0260E082E60E946C02DD
:1014A00060E084E60E946C0260E085E60E946C02C7
:1014B00060EA86E60E946C0261E08FEF0E946C0297
:1014C00062E382E20E946C0264E187E40E946C02A3
:1014D0006FEF89E40E946C0260E08AE40E946C0273
:1014E00060E08FEF0E946C026AE08AE70E946C0263
:1014F00060E08BE70E946C0261E288E70E946C0268
:1015000061E08FEF0E946C0264E383E20E946C0250
:1015100060E082E40E946C026FEF84E40E946C023F
:1015200066E285E40E946C0265E086E40E946C023B
:1015300060E480E40E946C0266E08EE00E946C022F
:101540006AE180E20E946C0260E483E40E946C0223
:1015500060E08FEF0E946C0263E084E30E946C0203
:1015600064E485E30E946C0261E08FEF0E946C02EC
:1015700064E081E30E946C0269E08BE40E946C02EB
:1015800065E08CE40E946C0264E08DE40E946C02D1
:1015900060E08FEF0E946C0260E084E40E946C02C5
:1015A00060E285E40E946C0268E087E40E946C02BD
:1015B00068E288E40E946C0260E087E60E946C02A8
:1015C00064E080E70E946C0261E081E70E946C02A7
:1015D0006EEF82E70E946C0260E086E70E946C0278
:1015E00060E087E70E946C0261E08FEF0E946C026E
:1015F00061E08DE00E946C0260E08FEF0E946C025F
:1016000061E080E80E946C0268EF81E00E946C0259
:1016100061E08FEF0E946C0261E08EE80E946C0234
:1016200061E080E00E946C0260E08FEF0E946C023B
:1016300060E080E80E946C0264E08AE00E946C0234
:1016400084E80E94B802682F6F7E84E80E946C02D2
:1016500061E08BE00E946C020E946C0860936F0155
:1016600070937001809371019093720168EE81E034
:101670000E946C0280916F0190917001A0917101A4
:10168000B0917201BC01CD010E94810761E081E04F
:101690000E946C0280E40E94E508882309F42FCEA2
:1016A00062E081E00E946C0280E00E94E5088823ED
:1016B00009F425CE68EE81E00E946C0281E020CE24
:1016C00030E002C0359527956A95E2F720FF6ACE93
:1016D000AF5F68CE8F929F92AF92BF92CF92DF9210
:1016E000EF92FF920F931F93CF93DF93CDB7DEB7A7
:1016F000A3970FB6F894DEBF0FBECDBF7C01162FA7
:10170000062F06950150CE0147960E940F06BE0196
:101710006F5F7F4FCE0147960E942C06E114F104C3
:1017200009F0B3C0103109F4AEC040F41C3009F424
:10173000A8C060E31E3029F080E090C060E512315F
:10174000D9F787E50E946C0268E086E50E946C028A
:10175000602F80E50E946C02A12FB0E020E03FE204
:101760004AE350E00E943D10DC01CB018C509E4FBB
:10177000AF4FBF4F8C8F9D8FAE8FBF8FBC01CD0100
:1017800028EE33E040E050E00E941B1049015A016E
:101790006C8D7D8D8E8D9F8D20ED37E040E050E08B
:1017A0000E941B1069017A012F85388949895A895D
:1017B000A8EEB3E00E943D10DC01CB018C0D9D1D15
:1017C000AE1DBF1D8C8F9D8FAE8FBF8FBC01CD0115
:1017D000A50194010E941B10C9010E944E02BC0188
:1017E00081E50E947E022B853C854D855E85A8EEB5
:1017F000B3E00E943D10DC01CB018C0D9D1DAE1DA0
:10180000BF1DBC01CD01A50194010E941B10213018
:1018100091E0390710F020E031E06FEF620F86E4CD
:101820000E946C0280916F0190917001A0917101F2
:10183000B0917201BC01CD010E94810781E00E943C
:10184000B802182F62E081E00E946C0280E00E94E2
:10185000E508612F81E00E946C0281E0A3960FB63B
:10186000F894DEBF0FBECDBFDF91CF911F910F91D6
:10187000FF90EF90DF90CF90BF90AF909F908F90B0
:10188000089568E15ECF60E45CCFEA94EF2809F048
:1018900053CF1C3009F4A0C0D8F4183051F11A30DD
:1018A00009F04ACF68E288E40E946C0268E087E4AD
:1018B0000E946C0263E082E30E946C0269E080E3B4
:1018C0000E946C0261E08FEF0E946C0260E226C011
:1018D0001E3009F031CF68E488E40E946C0268E0B1
:1018E00087E40E946C0263E082E30E946C0267E07E
:1018F000E6CF60E188E40E946C0268E087E40E9421
:101900006C0262E082E30E946C026CE080E30E9461
:101910006C0261E08FEF0E946C0260E380E30E9442
:101920006C0260E08FEF0E946C02602F80E70E94E3
:101930006C02A12FB0E020E03FE24AE350E00E94B9
:101940003D10DC01CB018C509E4FAF4FBF4F8C8FB1
:101950009D8FAE8FBF8F2B893C894D895E89A8EE04
:10196000B3E00E943D1068A379A38AA39BA36C8D6A
:101970007D8D8E8D9F8D20ED37E040E050E00E9400
:101980001B1088A199A1AAA1BBA1820F931FA41F1C
:10199000B51F88A399A3AAA3BBA36C8D7D8D8E8D43
:1019A0009F8D28EE33E040E050E00E941B1068A1BC
:1019B00079A18AA19BA10E941B10C9016A8D66238F
:1019C00021F08F819885820F931F0E944E02BC01E7
:1019D00081E70E947E0226CF68E388E40E946C02C1
:1019E00068E087E40E946C0263E082E30E946C027C
:1019F00068E065CFE4E6F0E080818D7F8083E1ECF4
:101A0000F0E08081886180831092C50088E0809337
:101A1000C400E0ECF0E080818260808308959091C2
:101A2000C00095FFFCCF8093C60008959FE9980FF2
:101A3000963010F48755089580538A3008F08FEF60
:101A400008951F93CF93DF93EC01FE0114911123AE
:101A500051F0812F0E940F0D1A3019F48DE00E9471
:101A60000F0D2196F2CFDF91CF911F9108958F92A4
:101A70009F92AF92BF92EF92FF920F931F93CF93DB
:101A8000DF93CDB7DEB72E970FB6F894DEBF0FBE4B
:101A9000CDBF6B877C878D879E878E010F5F1F4F21
:101AA00078018AE0882E912CA12CB12C8B859C8505
:101AB000AD85BE85892B8A2B8B2B19F4E016F10698
:101AC00081F46B857C858D859E85A50194010E949E
:101AD0001B10D8016D938D012B873C874D875E8746
:101AE000E5CFF80182918F01805D0E940F0DE01615
:101AF000F106B9F72E960FB6F894DEBF0FBECDBF34
:101B0000DF91CF911F910F91FF90EF90BF90AF9019
:101B10009F908F9008958F929F92AF92BF92CF9295
:101B2000DF92EF92FF92CF93DF9300D000D000D0EE
:101B3000CDB7DEB76B017C01842F90E09E838D834F
:101B400088248394912C042E02C0880C991C0A943A
:101B5000E2F791E0891A9108092C000CAA08BB0849
:101B6000D701CB0104C0B695A795979587954A955F
:101B7000D2F7BC01CD010E94370D8EE20E940F0DFD
:101B8000A50194012C213D214E215F212115310514
:101B900041055105F1F0AAE0B0E00E943D106983D3
:101BA0007A838B839C83DC01CB010D8004C0B695C6
:101BB000A795979587950A94D2F7805D0E940F0D9F
:101BC00029813A814B815C81282139214A215B217D
:101BD000DDCF26960FB6F894DEBF0FBECDBFDF91E6
:101BE000CF91FF90EF90DF90CF90BF90AF909F90FC
:101BF0008F900895CF92DF92EF92FF92CF93DF9371
:101C00006B017C01842F8150990BEC01CC0FDD1FFF
:101C1000CC0FDD1FD7FD16C0D701C6010C2E04C0A6
:101C2000B695A795979587950A94D2F78F709927BF
:101C3000AA27BB27875A9E4FFC0180810E940F0D67
:101C40002497E8CFDF91CF91FF90EF90DF90CF9076
:101C50000895EF92FF920F931F93CF93DF93CDB729
:101C6000DEB72A970FB6F894DEBF0FBECDBF8C014A
:101C70007B0119821A821B821C8289819A818E15AE
:101C80009F0508F03FC021E1E216F10498F08F7043
:101C90009927892B79F484E790E00E94210D44E094
:101CA00069817A818B819C810E94FA0D81E790E0A5
:101CB0000E94210D09871A87A985BA858D91BA8757
:101CC000A987282F30E050E040E02D833E834F83EA
:101CD000588742E06D817E818F8198850E94FA0D40
:101CE0008FE690E00E94210D89819A81AB81BC81B1
:101CF0000196A11DB11D89839A83AB83BC8309859D
:101D00001A85BBCF2A960FB6F894DEBF0FBECDBFA3
:101D1000DF91CF911F910F91FF90EF900895109256
:101D2000B90082E08093B800089594EA9093BC00D3
:101D30002FEF3FEF2150310911F481E00895909188
:101D4000BC0097FFF7CF9091B900987F983011F0C1
:101D5000903199F78093BB0084E88093BC008FEFAB
:101D60009FEF019751F32091BC0027FFFACF90918C
:101D7000B900987F983119F081E0903411F480E037
:101D80000895089524EA34E844E92093BC00909132
:101D9000BC0097FFFCCF9091B900987F983011F06C
:101DA000903199F78093BB003093BC009091BC00B8
:101DB00097FFFCCF9091B900987F903211F0983541
:101DC00039F44093BC009091BC0094FDFCCFDDCF72
:101DD00008950C94950E84E98093BC008FEF9FEFDB
:101DE000019721F02091BC0024FDFACF0895809343
:101DF000BB0084E88093BC008FEF9FEF019761F0F8
:101E00002091BC0027FFFACF9091B900987F81E024
:101E1000983209F480E0089581E0089584EC80937D
:101E2000BC008FEF9FEF019739F02091BC0027FF96
:101E3000FACF8091BB00089580E0089584E88093F4
:101E4000BC008FEF9FEF019739F02091BC0027FF76
:101E5000FACF8091BB00089580E00895CF93C0E051
:101E60008C2F880F0E94950E0E94EB0ECF5FC0381A
:101E7000B9F7CF91089582E084BD95E095BD9AE7CA
:101E800097BD80936E000895CF93DF9300D000D06C
:101E9000CDB7DEB78FB7F8942091790130917A01F0
:101EA00040917B0150917C0129833A834B835C8371
:101EB0008FBF69817A818B819C810F900F900F90E9
:101EC0000F90DF91CF9108951F921FB61F9211249A
:101ED0008F939F93AF93BF938091790190917A01F3
:101EE000A0917B01B0917C010F96A11DB11D809343
:101EF000790190937A01A0937B01B0937C0180914A
:101F00007D019DE5980F9D3750F490937D01BF9121
:101F1000AF919F918F911F901FBE1F901895805277
:101F200080937D018091790190917A01A0917B014C
:101F3000B0917C010196A11DB11D80937901909310
:101F40007A01A0937B01B0937C01E1CF00D000D057
:101F5000CDB7DEB70E943F0280E00E942E090E94AA
:101F600093006DEC7CEC8CEC9DE30E948B0362E1B2
:101F700090E080E00E946A0B6EE081E090E00E94B9
:101F80006A0B60E271EA87E090E00E94810780E0DE
:101F900090E00E94B71190936E0180936D0114E65A
:101FA0000E9405029C0140916D0150916E01481BF9
:101FB000590B149FC001159F900D1124863F4AE4D0
:101FC0009407E0F46EEB70E00E940710CB01B0E0E4
:101FD000A0E089839A83AB83BC83CD010E94370D37
:101FE00088E690E00E94210D9FEFA4E3BCE09150B1
:101FF000A040B040E1F700C00000D2CF22543F4FD4
:1020000030936E0120936D0164E670E0DFCFAA1B70
:10201000BB1B51E107C0AA1FBB1FA617B70710F0D3
:10202000A61BB70B881F991F5A95A9F78095909505
:10203000BC01CD010895A1E21A2EAA1BBB1BFD0114
:102040000DC0AA1FBB1FEE1FFF1FA217B307E40797
:10205000F50720F0A21BB30BE40BF50B661F771FEF
:10206000881F991F1A9469F76095709580959095CF
:102070009B01AC01BD01CF0108950E945010A59FA6
:10208000900DB49F900DA49F800D911D1124089573
:10209000B7FF0C943D100E943D10821B930B0895D6
:1020A000A29FB001B39FC001A39F700D811D112499
:1020B000911DB29F700D811D1124911D08950E94E4
:1020C000D01008F481E008950E94FC1088F09F571A
:1020D00098F0B92F9927B751B0F0E1F0660F771F4C
:1020E000881F991F1AF0BA95C9F714C0B13091F042
:1020F0000E941611B1E008950C941611672F782FE5
:102100008827B85F39F0B93FCCF386957795679506
:10211000B395D9F73EF490958095709561957F4F72
:102120008F4F9F4F0895E89409C097FB3EF4909518
:102130008095709561957F4F8F4F9F4F9923A9F0A0
:10214000F92F96E9BB279395F6958795779567952F
:10215000B795F111F8CFFAF4BB0F11F460FF1BC073
:102160006F5F7F4F8F4F9F4F16C0882311F096E906
:1021700011C0772321F09EE8872F762F05C06623B4
:1021800071F096E8862F70E060E02AF09A95660F6D
:10219000771F881FDAF7880F9695879597F9089526
:1021A000990F0008550FAA0BE0E8FEEF1616170668
:1021B000E807F907C0F012161306E407F50798F0D0
:1021C000621B730B840B950B39F40A2661F0232BE9
:1021D000242B252B21F408950A2609F4A140A69565
:1021E0008FEF811D811D089557FD9058440F551F95
:1021F00059F05F3F71F04795880F97FB991F61F089
:102200009F3F79F087950895121613061406551FFF
:10221000F2CF4695F1DF08C0161617061806991F6B
:10222000F1CF86957105610508940895E894BB2760
:1022300066277727CB0197F908950E94D01008F4FC
:102240008FEF08950E9435110C94A6110E949811E9
:1022500038F00E949F1120F0952311F00C948F11FB
:102260000C94951111240C9417110E94F41070F322
:10227000959FC1F3950F50E0551F629FF001729F2B
:10228000BB27F00DB11D639FAA27F00DB11DAA1F3A
:10229000649F6627B00DA11D661F829F2227B00D87
:1022A000A11D621F739FB00DA11D621F839FA00D12
:1022B000611D221F749F3327A00D611D231F849F62
:1022C000600D211D822F762F6A2F11249F575040B9
:1022D0009AF0F1F088234AF0EE0FFF1FBB1F661F34
:1022E000771F881F91505040A9F79E3F510580F0FD
:1022F0000C948F110C9417115F3FE4F3983ED4F3C4
:10230000869577956795B795F795E7959F5FC1F7A0
:10231000FE2B880F911D9695879597F9089597F94B
:102320009F6780E870E060E008959FEF80EC08957B
:1023300000240A94161617061806090608950024A4
:102340000A9412161306140605060895092E03941E
:10235000000C11F4882352F0BB0F40F4BF2B11F492
:1023600060FF04C06F5F7F4F8F4F9F4F0895A8E1BC
:10237000B0E042E050E00C94BF11DC01CB01FC0165
:10238000F999FECF06C0F2BDE1BDF89A319600B4CE
:0E2390000D9241505040B8F70895F894FFCFD9
:10239E0000C6CC183066C600527CC6CEDEF6E67C91
:1023AE0000307030303030FC0078CC0C3860CCFC13
:1023BE000078CC0C380CCC78001C3C6CCCFE0C1E7F
:1023CE0000FCC0F80C0CCC78003860C0F8CCCC788F
:1023DE0000FCCC0C183030300078CCCC78CCCC78DB
:1023EE000078CCCC7C0C187000303132333435365A
:0A23FE003738394142434445460098
:00000001FF
