:100000000C943E000C9466000C9466000C94660000
:100010000C9466000C9466000C9466000C946600C8
:100020000C9466000C9466000C9466000C943804E2
:100030000C9466000C9466000C947E110C9466007F
:100040000C9466000C9466000C9466000C94660098
:100050000C9466000C9466000C9466000C94660088
:100060000C9466000C946600252000636D2000202F
:10007000003A20000A2020202000421211241FBE36
:10008000CFEFD8E0DEBFCDBF11E0A0E0B1E0EAE401
:10009000F8E202C005900D92A837B107D9F721E028
:1000A000A8E7B1E001C01D92A13BB207E1F710E063
:1000B000CEE3D0E004C02197FE010E94A012CD3310
:1000C000D107C9F70E94C0110C9423140C940000AE
:1000D00080919A0190919B01809391010895E6E9A6
:1000E000F1E0818180838281818383818283138295
:1000F00081E090E09093030180930201EAE8F1E04F
:10010000838182831582148211821082168208955F
:10011000000098E02898000087FF06C02A9A289AD5
:10012000880F9150B9F708952A98F9CFFF920F934D
:100130001F93CF93DF93C82FF62E142FD22F299819
:100140000E9488008F2D0E9488008C2F0E948800BA
:10015000812F0E9488008C2F0E9488008D2F0E9482
:1001600088008C2F0E948800802F0E94880082E0E7
:1001700085B9DF91CF911F910F91FF9008950F9353
:100180001F9384B1876084B910E000E030E020E084
:1001900050E040E070E060E089E00E94960030E0CE
:1001A00020E050E040E070E060E08AE00E949600CD
:1001B00007E010E027E030E047E050E067E070E063
:1001C0008BE00E94960001E010E021E030E041E089
:1001D00050E061E070E08CE00E94960010E000E0EA
:1001E00030E020E050E040E070E060E08FE00E940E
:1001F00096001F910F9108950F931F93CF93C1E025
:1002000010E000E030E020E050E040E070E060E02E
:100210008C2F0E949600CF5FC93091F7CF911F912C
:100220000F910895559A569A579A08955F9A8AE1C0
:100230008A95F1F700C05F988AE18A95F1F700C0CE
:10024000089527E030E090E0AC01022E02C0559501
:1002500047950A94E2F740FF0FC05D9A5E9A4AE123
:100260004A95F1F700C05E984AE14A95F1F700C05F
:100270002150310948F708955D98F0CFCF92DF9271
:10028000EF92FF920F931F93CF93DF9300D000D094
:10029000CDB7DEB71A821982042F10E02AE0C22EF1
:1002A000D12CE12CF12C29813A81201731076CF4F3
:1002B000A70196010E946B12B901CA0129813A81F6
:1002C0002F5F3F4F3A832983EECF2AE030E040E0B2
:1002D00050E00E946B1269837A838B839C83E9814F
:1002E000FA81EC5FFE4F80810F900F900F900F907E
:1002F000DF91CF911F910F91FF90EF90DF90CF9002
:100300000895CF93DF9300D000D0CDB7DEB7262F6E
:100310008536910510F084E690E06AE070E00E9476
:100320005712CB0101966BE070E00E94571240E03B
:1003300050E0BA01815030F0440F551F661F771FFF
:100340004160F8CFDB01CA0104C0880F991FAA1FC2
:10035000BB1F2A95D2F7BC01CD010F900F900F90D3
:100360000F90DF91CF910895982F28E030E080E042
:10037000880F492F4170842B969521503109C1F780
:1003800008950F931F93CF93DF9300D000D00F9267
:10039000CDB7DEB78091020190910301892B49F41A
:1003A0008CE0EEE7F1E0AAE8B1E001900D928A95C9
:1003B000E1F70E945E11462F572FBC0180917A0110
:1003C00090917B01A0917C01B0917D01892B8A2BBA
:1003D0008B2B71F180917A0190917B01A0917C012E
:1003E000B0917D018A019B01081B190B2A0B3B0B65
:1003F00080918F0110928F01811115C084EF91E0DF
:10040000A0E0B0E0081719072A073B0788F480919D
:1004100079010F900F900F900F900F90DF91CF9177
:100420001F910F91089584E690E0A0E0B0E0EACF3C
:1004300040937A0150937B0160937C0170937D011E
:100440008091020190910301019799F480919601A6
:10045000882379F0109203011092020180938501A4
:100460008CE0EEE7F1E0AAE8B1E001900D928A9508
:10047000E1F780918A0190918B018130910509F11A
:100480008230910509F453C0892BB1F4E0919401B5
:10049000F0919501309709F0099580918D01809335
:1004A0008C0181E090E090938B0180938A0180938E
:1004B0008E0181E780939001809190018093790172
:1004C000A8CF80918E01882341F010929001109264
:1004D0008E0181E080938F01EFCF81E080938E01C8
:1004E00020918C012D8380919101282F30E050E0E4
:1004F00040E029833A834B835C834D8169817A8113
:100500008B819C810E943E01809390013D8131113D
:1005100009C082E090E090938B0180938A01109251
:100520008E01CACF4D81415040938C01C5CF80913F
:100530008D0180938C0110928F0110928E01109288
:100540008B0110928A0110929001E0919201F0913A
:100550009301309709F4B0CF0995AECFCF92DF92D7
:10056000EF92FF9280919A0190919B0167E00E9427
:1005700081016B017C010E94C101C82A8D2D0E945E
:10058000B4010E9421018C2D0E942101E0FE07C0D0
:100590005C9AFF90EF90DF90CF900C9416015C98DE
:1005A000F8CFCF93DF93CDB7DEB72D970FB6F89482
:1005B000DEBF0FBECDBFCE0101960E940E076AE0DE
:1005C00070E00E94571270939D0160939C0180918E
:1005D0009C0190919D019C0150E040E02A873B875F
:1005E0004C875D87CA01B9010E94510F8BE690E0EC
:1005F0000E943B0F80919C0190919D012D960FB61A
:10060000F894DEBF0FBECDBFDF91CF9108958F92DA
:100610009F92BF92CF92DF92EF92FF920F931F9320
:10062000CF93DF93CDB7DEB72A970FB6F894DEBF2E
:100630000FBECDBF7C01D62E809178018F5F809355
:100640007801843121F4109278010E94BF00BFB676
:10065000F8948EE091E09A8389832AE030E0C70124
:10066000B9010E94571243E0880F991F4A95E1F79C
:10067000895E9E4F9C838B83CB01B9010E945712E8
:1006800053E0880F991F5A95E1F7895E9E4F9E832C
:100690008D83C70164E670E00E945712CB01B90157
:1006A0000E94571263E0880F991F6A95E1F7895EEF
:1006B0009E4F98878F83C70168EE73E00E945712A0
:1006C000CB01B9010E94571273E0880F991F7A95E8
:1006D000E1F7895E9E4F9A87898781E0D11080E09B
:1006E000C82ED12CCC0CDD1C81E090E08C0F9D1F1E
:1006F000C80ED91EF12CE12C4601D6011696ED91BB
:10070000FC911797EE0DFF1D008110E01496ED91FE
:10071000FC911597EE0DFF1D208130E01296ED91B2
:10072000FC91EE0DFF1D408150E0D401ED91FC9154
:10073000EE0DFF1D608170E081E08E0D0E9496003D
:10074000BFEFEB1AFB0A88E0E816F104B1F6BFBE72
:100750002A960FB6F894DEBF0FBECDBFDF91CF91C2
:100760001F910F91FF90EF90DF90CF90BF909F90DF
:100770008F900895D82FC92F60E08D2F9C2F0E9455
:1007800007032FEF89E698E1215080409040E1F780
:1007900000C00000F1CF60E00E9407032FEF89E660
:1007A00098E1215080409040E1F700C000000E9495
:1007B000FC002FEF81EE94E0215080409040E1F763
:1007C00000C0000008958093B40008958BE08093EA
:1007D000810082EE94E0909389008093880082E00B
:1007E00080936F000895539A83E28093B00081E074
:1007F0008093B1001092B40008950E94140FE1ECB0
:10080000F0E080818F7E808382E08AB9549A0E94D2
:10081000A9100E9455110E94E6030E94F3030E9452
:1008200012018FE690E0909387018093860188E61D
:1008300090E090939501809394017894089590911D
:10084000010180910101953610F4843128F48091E2
:100850000001819580930001809100019091010138
:10086000890F80930101809101018093B400089564
:100870001F920F920FB60F9211242F933F934F9315
:100880005F936F937F938F939F93AF93BF93EF93F8
:10089000FF930E941F040E94AE02FF91EF91BF914F
:1008A000AF919F918F917F916F915F914F913F9108
:1008B0002F910F900FBE0F901F901895E6E9F1E071
:1008C0009281938391819283908191838083089513
:1008D0000F931F930097B9F00197B0E0A0E050E0AC
:1008E00040E08C019D010027012B022B032B39F0E6
:1008F000B695A795979587954F5F5F4FF2CF342FA9
:100900002227822B932B1F910F910895CF93DF9372
:10091000D82FC62F809116010E94AF108D2F0E94F4
:1009200011118C2F0E941111DF91CF910C940511A0
:100930001F93CF93DF93182FEB01809116010E9434
:10094000AF10812F0E9411118D2F0E9411118C2F39
:100950000E941111DF91CF911F910C940511FF920C
:100960000F931F93CF93DF93F82EEA01162F072FD3
:10097000809116010E94AF108F2D0E941111802FBF
:100980000E941111812F0E9411118D2F0E941111AF
:100990008C2F0E941111DF91CF911F910F91FF9029
:1009A0000C940511CF93C82F809116010E94AF10AF
:1009B0008C2F0E9411118091160181600E940311F9
:1009C0000E943811C82F0E9405118C2FCF910895D5
:1009D000CF93DF93C82F809116010E94AF108C2F08
:1009E0000E9411118091160181600E9403110E94E2
:1009F0002811C82FD0E0DC2FCC270E943811C82B3B
:100A00000E940511CE01DF91CF910895CF92DF9220
:100A1000EF92FF92CF93DF9300D000D0CDB7DEB737
:100A20008983809116010E94AF1089810E94111163
:100A30008091160181600E9403110E94281190E0AC
:100A4000B0E0A0E0F82EEE24DD24CC240E94281192
:100A5000E82A0E94281189830E943811C82AD701E8
:100A6000C6012981922B89839A83AB83BC830E9420
:100A7000051169817A818B819C810F900F900F9075
:100A80000F90DF91CF91FF90EF90DF90CF9008957E
:100A9000FF920F931F93CF93DF93C82FF62E072F4C
:100AA000142F809116010E94AF108C2F0E941111FB
:100AB000115040F0CF2DD02F89910E941111FC2EA2
:100AC0000D2FF6CFDF91CF911F910F91FF900C94D6
:100AD0000511EF92FF920F931F93CF93DF93082F8F
:100AE000EB01142F809116010E94AF10802F0E94FD
:100AF00011118091160181600E940311112379F078
:100B00007E018FEFE81AF80A123030F00E942811A7
:100B100088831150E701F2CF0E943811F9CFDF919D
:100B2000CF911F910F91FF90EF900C940511CF93EF
:100B3000C82F682F66958AE80E948604C093160124
:100B4000CF9108958091160108950F931F93CF932D
:100B5000DF9300D000D000D0CDB7DEB78B018E83FD
:100B60009D8320E030E0A90169831A838B839C83F5
:100B700069817A818B819C810E94B51287FD2FC08B
:100B800028EB3EEF4FEF53E469817A818B819C81A2
:100B90000E94731318161CF120E030E040E053E48B
:100BA00069817A818B819C810E94781369837A8321
:100BB0008B839C8369817A818B819C810E94BA128C
:100BC00084E40E94980481E026960FB6F894DEBF74
:100BD0000FBECDBFDF91CF911F910F91089580E09F
:100BE000F3CFCF93DF9300D000D0CDB7DEB784E44E
:100BF0000E94E8049C0150E040E029833A834B8343
:100C00005C83CA01B9010E94E91220E030E040E0B3
:100C10005CE369837A838B839C8369817A818B818E
:100C20009C810E94781369837A838B839C8369817A
:100C30007A818B819C810F900F900F900F90DF91A4
:100C4000CF9108959C0180E52115310521F02130D7
:100C5000310531F480E70E94D2048F5F880F089538
:100C60008FEF0895CF92DF92EF92FF926B017C019C
:100C700061E080E80E94860461E08FEF0E948604B4
:100C800060E080E00E9486046091A60181E90E94F4
:100C9000860461E080E00E94860460E08FEF0E949D
:100CA000860460E080E80E94860462E0C114D104FA
:100CB000E104F10491F088EF0E94E804DC01892B43
:100CC00031F0A70196010E948D126B017C01B701E2
:100CD000A60184E00E94AF0464E080E0FF90EF9002
:100CE000DF90CF900C94860461E080E00E9486043F
:100CF00061E08FEF0E94860460E080E00E9486043D
:100D000060E081E90E94860461E080E00E94860440
:100D100060E08FEF0C948604EF92FF920F931F9385
:100D2000CF93DF93CDB7DEB760970FB6F894DEBFF1
:100D30000FBECDBF7C010E945E117093A80160932D
:100D4000A70183E10E94D204877079F58091AA01FE
:100D50009091AB01892BA9F30E945E116D877E876C
:100D60008F87988B8091A7019091A8012D853E8552
:100D7000281B390BC9012091AA013091AB0128171A
:100D80003907F8F681E08093A9010FEF1FEFC80142
:100D900060960FB6F894DEBF0FBECDBFDF91CF9146
:100DA0001F910F91FF90EF900895E114F10449F421
:100DB0008EE10E94E8048C0161E08BE00E948604D1
:100DC000E6CF4CE0BE016F5F7F4F84E10E94690572
:100DD000898190E023E0959587952A95E1F7F701C1
:100DE00080878B819C819827892798279783868382
:100DF0008F8198859827892798279383828389856F
:100E00009A85982789279827958384830B851C8545
:100E100010270127102711830083CECFCF93DF93B4
:100E200000D000D000D0CDB7DEB78E839D8361E0C7
:100E300080E80E94860461E08FEF0E94860460E0F3
:100E400080E00E9486046091A60181E90E948604E8
:100E500061E080E00E94860460E08FEF0E948604DB
:100E600060E080E80E94860461E080E00E948604E1
:100E70000E945E117093A8016093A70180E00E9418
:100E8000D20480FF2AC08091AA019091AB01892BE6
:100E9000A9F30E945E1169837A838B839C8380917E
:100EA000A7019091A80129813A81281B390BC9011A
:100EB0002091AA013091AB0128173907F8F681E09B
:100EC0008093A9018FEF9FEF26960FB6F894DEBFAF
:100ED0000FBECDBFDF91CF9108958E819D81269663
:100EE0000FB6F894DEBF0FBECDBFDF91CF910C944B
:100EF0008C068091A9011092A90108959093AB01ED
:100F00008093AA0108958091AA019091AB01089560
:100F1000EF92FF920F931F93CF93DF9300D000D0F7
:100F20000F92CDB7DEB77C018B0161E080E80E94B3
:100F3000860461E08FEF0E94860460E080E00E94FA
:100F4000860466E08FEF0E94860483E80E94D20444
:100F5000682F646083E80E94860467E08FEF0E9438
:100F6000860461E081E80E94860461E080E80E94D6
:100F700086046BE684E90E94860460E083E80E94B0
:100F800086040E945E117093A8016093A70183E814
:100F90000E94D2048D83811129C08091AA01909171
:100FA000AB01892BA1F30E945E1169837A838B8345
:100FB0009C838091A7019091A80129813A81281BE7
:100FC000390BC9012091AA013091AB0128173907CB
:100FD000F0F68D810F900F900F900F900F90DF9192
:100FE000CF911F910F91FF90EF90089561E083E8FA
:100FF0000E94860482E90E94D204982F9F77F7010D
:101000009083881F8827881FF801808360E081E82B
:101010000E94860466E08FEF0E94860483E80E94A7
:10102000D204682F6B7F83E80E94860461E08FEF13
:101030000E94860461E080E00E94860460E08FEFF9
:101040000E94860460E080E80E948604F1E0FD834F
:10105000C0CFCF93DF93EC0181E00E94D20484FBE8
:10106000992790F9988383FB992790F99A8382FBBB
:10107000992790F9998386FB992790F99B83881F7C
:101080008827881F8C83DF91CF9108954F925F92BC
:101090006F927F928F929F92AF92BF92EF92FF9248
:1010A0000F931F93CF93DF93CDB7DEB72A970FB679
:1010B000F894DEBF0FBECDBF8C0169877A8790E0C0
:1010C00080E00E94220690E0A985BA858D939C93CA
:1010D00086E40E94D204E82EF12CBFEFEB1AFB0A43
:1010E000E985FA85F582E482A081B0E020E03FE264
:1010F0004AE350E00E948D12DC01CB018C509E4FE0
:10110000AF4FBF4F89839A83AB83BC8338EE832E66
:1011100033E0932EA12CB12CBC01CD01A50194018B
:101120000E946B12D7010E9498126D837E838F8379
:10113000988740ED442E47E0542E612C712C698134
:101140007A818B819C81A30192010E946B128D8117
:101150009E81AF81B885820F931FA41FB51F8D8319
:101160009E83AF83B887BC01CD01A50194010E9485
:101170006B12A985BA851A962D933D934D935C9376
:101180001D9781E50E94E804E82EF12C02C0EE0CC8
:10119000FF1C9A95E2F7BFEFEB1AFB0AE985FA8587
:1011A000F782E682A081B0E020E03FE24AE350E02F
:1011B0000E948D12DC01CB018C509E4FAF4FBF4F70
:1011C00089839A83AB83BC83BC01CD01A5019401C3
:1011D0000E946B12D7010E948D126D837E838F83D4
:1011E000988769817A818B819C81A30192010E94F9
:1011F0006B128D819E81AF81B885820F931FA41FD2
:10120000B51F8D839E83AF83B887BC01CD01A50137
:1012100094010E946B12A985BA851E962D933D9369
:101220004D935C93519780E70E94D2048F5F880FA3
:1012300090E0E985FA859383828381E70E94E80440
:10124000292F90E002C0880F991F2A95E2F7019696
:10125000A985BA8519969C938E931897F8012381D6
:10126000222351F016962D913C911797821B930BD8
:1012700019969C938E931897E985FA85A281B0E020
:1012800020E03FE24AE350E00E948D12DC01CB01F6
:101290008C509E4FAF4FBF4F89839A83AB83BC83E3
:1012A00028EE822E23E0922EA12CB12CBC01CD0180
:1012B000A50194010E946B12E985FA85A085B1858C
:1012C0000E948D126D837E838F83988769817A81D6
:1012D0008B819C8120ED37E040E050E00E946B1252
:1012E0008D819E81AF81B885820F931FA41FB51F8A
:1012F000BC01CD01A50194010E946B12A985BA859C
:1013000052962D933D934D935C9355972A960FB625
:10131000F894DEBF0FBECDBFDF91CF911F910F912B
:10132000FF90EF90BF90AF909F908F907F906F90C5
:101330005F904F9008958F929F92AF92BF92CF92FD
:10134000DF92EF92FF921F93CF93DF93CDB7DEB77B
:10135000A3970FB6F894DEBF0FBECDBF4B015C0163
:1013600020E282162EE49206A104B10408F4CCC057
:10137000CE0147960E942908BE016F5F7F4FCE01C4
:1013800047960E9446088F89882309F4ABC08B8555
:101390009C85AD85BE858A5C944FAF4FBF4F298D2C
:1013A000222309F4A4C04B855C856D857E854E544F
:1013B0005D4F6F4F7F4F440F551F661F771F840F80
:1013C000951FA61FB71F1A8D112361F04F855889ED
:1013D00069897A894C565D4F6F4F7F4F840F951FF7
:1013E000A61FB71F2B8D222309F469C06C017D0154
:1013F00026E2C20E22E0D21EE11CF11C8C149D04D8
:10140000AE04BF0408F480C0AB81B0E020E03FE24E
:101410004AE350E00E948D12DC01CB018C509E4FBC
:10142000AF4FBF4F8C8F9D8FAE8FBF8FA5019401A3
:101430002C193D094E095F09A8EEB3E00E948D12F8
:1014400068A379A38AA39BA36C8D7D8D8E8D9F8DC0
:1014500020ED37E040E050E00E946B1288A199A196
:10146000AAA1BBA1820F931FA41FB51F88A399A394
:10147000AAA3BBA36C8D7D8D8E8D9F8D28EE33E04E
:1014800040E050E00E946B1268A179A18AA19BA163
:101490000E946B12C901112321F08F819885820F60
:1014A000931F0E946804BC0181E70E949804809207
:1014B000A2019092A301A092A401B092A50181E0A3
:1014C000A3960FB6F894DEBF0FBECDBFDF91CF91CC
:1014D0001F91FF90EF90DF90CF90BF90AF909F90C3
:1014E0008F90089588EE98E0A0E0B0E058CF288D66
:1014F000222309F468CF4B855C856D857E854C562B
:101500005D4F6F4F7F4F5BCF80E0DACF0F931F931C
:10151000CF93DF93CDB7DEB76B970FB6F894DEBFEE
:101520000FBECDBFCE0147960E942908BE016F5F56
:101530007F4FCE0147960E9446088F89882309F481
:101540004DC06B857C858D859E856C57724F8F4F06
:101550009F4F298D222309F446C00B851C852D85BC
:101560003E850E541D4F2F4F3F4F000F111F221F5E
:10157000331F600F711F821F931F2A8D222361F07A
:101580000F85188929893A890C561D4F2F4F3F4FD7
:10159000600F711F821F931F2B8D222361F00B8917
:1015A0001C892D893E890A5D1D4F2F4F3F4F600FCB
:1015B000711F821F931F6093A2017093A3018093F8
:1015C000A4019093A5016B960FB6F894DEBF0FBEF1
:1015D000CDBFDF91CF911F910F91089566E37BE01E
:1015E00080E090E0B6CF288D222339F20B851C8550
:1015F0002D853E850C561D4F2F4F3F4FBACFCF93B1
:10160000DF9300D000D00F92CDB7DEB7682F6160B6
:1016100080E00E9486040E945E117093A80160938E
:10162000A70183E10E94D20487708D83811125C0B8
:101630008091AA019091AB01892B99F30E945E11D0
:1016400069837A838B839C838091A7019091A80101
:1016500029813A81281B390BC9012091AA013091B7
:10166000AB0128173907E8F68D810F900F900F9086
:101670000F900F90DF91CF91089561E08BE00E9471
:10168000860460E080E00E94860431E03D83ECCF78
:101690000F931F93CF93DF93CDB7DEB72C970FB681
:1016A000F894DEBF0FBECDBF882341F089E80E94C9
:1016B000D204682F616089E80E94860460E088E8AF
:1016C0000E94860461E080E80E94860461E08FEF5A
:1016D0000E94860460E080E00E94860481E90E9406
:1016E000D2048093A60161E080E00E94860460E05D
:1016F0008FEF0E94860460E080E80E94860480E606
:101700000E94D204682F626180E60E94860460E233
:1017100070E084E40E9498046FEF81E00E948604E8
:10172000BE01695F7F4FCE0108960E948807811134
:101730000CC080E02C960FB6F894DEBF0FBECDBF74
:10174000DF91CF911F910F91089546E0BE016F5F29
:101750007F4F80EB0E94690561E08FEF0E94860455
:1017600060E08FE40E9486046CE28EE40E948604AE
:1017700060E08FEF0E94860464EB86EB0E94860493
:101780009F8191119CE0B88580E0A0E001E010E02D
:10179000482F46954695469550E021E030E02C0FC5
:1017A0003D1F240F351FF9012081682F67708917AD
:1017B00010F0BA139FC1E1E0F0E0EC0FFD1F4E0FF7
:1017C0005F1FF80102C0EE0FFF1F6A95E2F7BF012D
:1017D00060952623FA0120838F5F8033C9F646E0A7
:1017E000BE016F5F7F4F80EB0E94480561E08FEF85
:1017F0000E94860460E080E00E94860460E08FEF33
:101800000E94860460E089E00E94860460E080E136
:101810000E94860460E081E10E94860461E084E227
:101820000E9486046FEF85E20E94860460E085E7EF
:101830000E94860461E08FEF0E9486046CE28EE4D1
:101840000E94860460E088E40E94860460E280E3EF
:101850000E94860460E08FEF0E94860469E080E3C6
:101860000E94860460E084E50E94860464E081E3CF
:101870000E94860463E082E30E94860463E880E4B9
:101880000E94860465E286E40E94860460E080E6A9
:101890000E94860460E087E20E94860466E080E59C
:1018A0000E94860460E081E50E94860466E982E584
:1018B0000E94860468E086E50E94860460E387E56E
:1018C0000E94860460E081E60E94860460E082E671
:1018D0000E94860460E084E60E94860460E085E65B
:1018E0000E94860460EA86E60E94860461E08FEF2B
:1018F0000E94860462E382E20E94860464E187E437
:101900000E9486046FEF89E40E94860460E08AE406
:101910000E94860460E08FEF0E9486046AE08AE7F6
:101920000E94860460E08BE70E94860461E288E7FB
:101930000E94860461E08FEF0E94860464E383E2E4
:101940000E94860460E082E40E9486046FEF84E4D3
:101950000E94860466E285E40E94860465E086E4CF
:101960000E94860460E480E40E94860466E08EE0C3
:101970000E9486046AE180E20E94860460E483E4B7
:101980000E94860460E08FEF0E94860463E084E397
:101990000E94860464E485E30E94860461E08FEF80
:1019A0000E94860464E081E30E94860469E08BE47F
:1019B0000E94860465E08CE40E94860464E08DE465
:1019C0000E94860460E08FEF0E94860460E084E459
:1019D0000E94860460E285E40E94860468E087E451
:1019E0000E94860468E288E40E94860460E087E63C
:1019F0000E94860464E080E70E94860461E081E73B
:101A00000E9486046EEF82E70E94860460E086E70B
:101A10000E94860460E087E70E94860461E08FEF01
:101A20000E94860461E08DE00E94860460E08FEFF2
:101A30000E94860461E080E80E94860468EF81E0ED
:101A40000E94860461E08FEF0E94860461E08EE8C8
:101A50000E94860461E080E00E94860460E08FEFCF
:101A60000E94860460E080E80E94860464E08AE0C8
:101A70000E94860484E80E94D204682F6F7E84E866
:101A80000E94860461E08BE00E9486040E94860A20
:101A90006093A2017093A3018093A4019093A50188
:101AA00068EE81E00E9486048091A2019091A301DA
:101AB000A091A401B091A501BC01CD010E949B0998
:101AC00061E081E00E94860480E40E94FF0A88238E
:101AD00009F42FCE62E081E00E94860480E00E943B
:101AE000FF0A882309F425CE68EE81E00E9486046F
:101AF00081E020CE30E002C0359527956A95E2F767
:101B000020FF6ACEAF5F68CE8F929F92AF92BF9256
:101B1000CF92DF92EF92FF920F931F93CF93DF93B9
:101B2000CDB7DEB7A3970FB6F894DEBF0FBECDBF1B
:101B30007C01162F062F06950150CE0147960E9474
:101B40002908BE016F5F7F4FCE0147960E9446086D
:101B5000E114F10409F0B3C0103109F4AEC040F44F
:101B60001C3009F4A8C060E31E3029F080E090C06A
:101B700060E51231D9F787E50E94860468E086E5C2
:101B80000E948604602F80E50E948604A12FB0E0A9
:101B900020E03FE24AE350E00E948D12DC01CB01DD
:101BA0008C509E4FAF4FBF4F8C8F9D8FAE8FBF8F8E
:101BB000BC01CD0128EE33E040E050E00E946B1202
:101BC00049015A016C8D7D8D8E8D9F8D20ED37E002
:101BD00040E050E00E946B1269017A012F8538893C
:101BE00049895A89A8EEB3E00E948D12DC01CB012D
:101BF0008C0D9D1DAE1DBF1D8C8F9D8FAE8FBF8F19
:101C0000BC01CD01A50194010E946B12C9010E9483
:101C10006804BC0181E50E9498042B853C854D85B4
:101C20005E85A8EEB3E00E948D12DC01CB018C0D25
:101C30009D1DAE1DBF1DBC01CD01A50194010E94DB
:101C40006B12213091E0390710F020E031E06FEFA6
:101C5000620F86E40E9486048091A2019091A30104
:101C6000A091A401B091A501BC01CD010E949B09E6
:101C700081E00E94D204182F62E081E00E94860475
:101C800080E00E94FF0A612F81E00E94860481E0CB
:101C9000A3960FB6F894DEBF0FBECDBFDF91CF91F4
:101CA0001F910F91FF90EF90DF90CF90BF90AF907A
:101CB0009F908F90089568E15ECF60E45CCFEA94D6
:101CC000EF2809F053CF1C3009F4A0C0D8F4183025
:101CD00051F11A3009F04ACF68E288E40E94860484
:101CE00068E087E40E94860463E082E30E94860441
:101CF00069E080E30E94860461E08FEF0E94860421
:101D000060E226C01E3009F031CF68E488E40E940A
:101D1000860468E087E40E94860463E082E30E9410
:101D2000860467E0E6CF60E188E40E94860468E00C
:101D300087E40E94860462E082E30E9486046CE0ED
:101D400080E30E94860461E08FEF0E94860460E3D6
:101D500080E30E94860460E08FEF0E948604602F7B
:101D600080E70E948604A12FB0E020E03FE24AE332
:101D700050E00E948D12DC01CB018C509E4FAF4F82
:101D8000BF4F8C8F9D8FAE8FBF8F2B893C894D8924
:101D90005E89A8EEB3E00E948D1268A379A38AA39E
:101DA0009BA36C8D7D8D8E8D9F8D20ED37E040E067
:101DB00050E00E946B1288A199A1AAA1BBA1820F39
:101DC000931FA41FB51F88A399A3AAA3BBA36C8DBF
:101DD0007D8D8E8D9F8D28EE33E040E050E00E9497
:101DE0006B1268A179A18AA19BA10E946B12C90103
:101DF0006A8D662321F08F819885820F931F0E9440
:101E00006804BC0181E70E94980426CF68E388E457
:101E10000E94860468E087E40E94860463E082E30F
:101E20000E94860468E065CFE4E6F0E080818D7F63
:101E30008083E1ECF0E08081886180831092C500AE
:101E400088E08093C400E0ECF0E0808182608083D1
:101E500008959091C00095FFFCCF8093C60008952F
:101E60009FE9980F963010F48755089580538A3073
:101E700008F08FEF08951F93CF93DF93EC01FE01DD
:101E80001491112351F0812F0E94290F1A3019F457
:101E90008DE00E94290F2196F2CFDF91CF911F9103
:101EA00008958F929F92AF92BF92EF92FF920F93FD
:101EB0001F93CF93DF93CDB7DEB72E970FB6F8946D
:101EC000DEBF0FBECDBF6B877C878D879E878E015F
:101ED0000F5F1F4F78018AE0882E912CA12CB12C26
:101EE0008B859C85AD85BE85892B8A2B8B2B19F420
:101EF000E016F10681F46B857C858D859E85A501B4
:101F000094010E946B12D8016D938D012B873C8741
:101F10004D875E87E5CFF80182918F01805D0E9439
:101F2000290FE016F106B9F72E960FB6F894DEBF2A
:101F30000FBECDBFDF91CF911F910F91FF90EF901A
:101F4000BF90AF909F908F9008958F929F92AF9285
:101F5000BF92CF92DF92EF92FF92CF93DF9300D0A8
:101F600000D000D0CDB7DEB76B017C01842F90E0AC
:101F70009E838D8388248394912C042E02C0880C28
:101F8000991C0A94E2F791E0891A9108092C000C37
:101F9000AA08BB08D701CB0104C0B695A7959795B1
:101FA00087954A95D2F7BC01CD010E94510F8EE270
:101FB0000E94290FA50194012C213D214E215F2172
:101FC0002115310541055105F1F0AAE0B0E00E946C
:101FD0008D1269837A838B839C83DC01CB010D8016
:101FE00004C0B695A795979587950A94D2F7805D1A
:101FF0000E94290F29813A814B815C812821392156
:102000004A215B21DDCF26960FB6F894DEBF0FBEC6
:10201000CDBFDF91CF91FF90EF90DF90CF90BF9039
:10202000AF909F908F900895CF92DF92EF92FF92A2
:10203000CF93DF936B017C01842F8150990BEC01CE
:10204000CC0FDD1FCC0FDD1FD7FD16C0D701C60199
:102050000C2E04C0B695A795979587950A94D2F74C
:102060008F709927AA27BB2789599E4FFC01808131
:102070000E94290F2497E8CFDF91CF91FF90EF9036
:10208000DF90CF900895EF92FF920F931F93CF931D
:10209000DF93CDB7DEB72A970FB6F894DEBF0FBE39
:1020A000CDBF8C017B0119821A821B821C8289811F
:1020B0009A818E159F0508F03FC021E1E216F104D8
:1020C00098F08F709927892B79F484E790E00E942B
:1020D0003B0F44E069817A818B819C810E941410BE
:1020E00081E790E00E943B0F09871A87A985BA858E
:1020F0008D91BA87A987282F30E050E040E02D83EA
:102100003E834F83588742E06D817E818F81988521
:102110000E9414108FE690E00E943B0F89819A8103
:10212000AB81BC810196A11DB11D89839A83AB83CC
:10213000BC8309851A85BBCF2A960FB6F894DEBFFB
:102140000FBECDBFDF91CF911F910F91FF90EF9008
:1021500008951092B90082E08093B800089594EA3F
:102160009093BC002FEF3FEF2150310911F481E033
:1021700008959091BC0097FFF7CF9091B900987F98
:10218000983011F0903199F78093BB0084E88093E8
:10219000BC008FEF9FEF019751F32091BC0027FF08
:1021A000FACF9091B900987F983119F081E090347E
:1021B00011F480E00895089524EA34E844E9209376
:1021C000BC009091BC0097FFFCCF9091B900987F24
:1021D000983011F0903199F78093BB003093BC0098
:1021E0009091BC0097FFFCCF9091B900987F9032FE
:1021F00011F0983539F44093BC009091BC0094FDE7
:10220000FCCFDDCF08950C94AF1084E98093BC001F
:102210008FEF9FEF019721F02091BC0024FDFACFB2
:1022200008958093BB0084E88093BC008FEF9FEFFC
:10223000019761F02091BC0027FFFACF9091B9007F
:10224000987F81E0983209F480E0089581E0089554
:1022500084EC8093BC008FEF9FEF019739F02091C1
:10226000BC0027FFFACF8091BB00089580E008955D
:1022700084E88093BC008FEF9FEF019739F02091A5
:10228000BC0027FFFACF8091BB00089580E008953D
:10229000CF93C0E08C2F880F0E94AF100E940511D1
:1022A000CF5FC038B9F7CF91089582E084BD95E043
:1022B00095BD9AE797BD80936E000895CF93DF9305
:1022C00000D000D0CDB7DEB78FB7F8942091AC0125
:1022D0003091AD014091AE015091AF0129833A8315
:1022E0004B835C838FBF69817A818B819C810F9046
:1022F0000F900F900F90DF91CF9108951F921FB60E
:102300001F9211248F939F93AF93BF938091AC0141
:102310009091AD01A091AE01B091AF010F96A11DBA
:10232000B11D8093AC019093AD01A093AE01B09329
:10233000AF018091B0019DE5980F9D3750F49093C7
:10234000B001BF91AF919F918F911F901FBE1F90C1
:10235000189580528093B0018091AC019091AD01AD
:10236000A091AE01B091AF010196A11DB11D809366
:10237000AC019093AD01A093AE01B093AF01E1CF5A
:1023800000D000D0CDB7DEB70E94FD0380E00E94F0
:10239000480B0E94BF006DEC7CEC8CEC9DE30E942E
:1023A000A50562E190E080E00E94840D6EE081E08E
:1023B00090E00E94840D60E271EA87E090E00E9464
:1023C0009B0980E090E00E940D1490939F01809300
:1023D0009E0180919E0190919F010E94CB0384E613
:1023E000F82E04E610E00E94D1029C0181608F3F2C
:1023F0009F4129F48CE5820F0E945E04F4CF809106
:102400009E0190919F01AC01421B530BF49EC001B1
:10241000F59E900D11246EEB70E00E9457127093A0
:102420009B0160939A0180919A0190919B0185365E
:10243000910520F010939B0100939A0180919A01DD
:1024400090919B019C0150E040E029833A834B83AB
:102450005C83CA01B9010E94510F88E690E00E9496
:102460003B0F80919A0190919B0161E00E940703CC
:102470003FEF41EE54E0315040405040E1F700C0A2
:102480000000B1CFEAE8F1E082E083838283158225
:102490001482118210821682EEE7F1E081E08383DC
:1024A0008283158214821182108216820895AA1BDB
:1024B000BB1B51E107C0AA1FBB1FA617B70710F02F
:1024C000A61BB70B881F991F5A95A9F78095909561
:1024D000BC01CD010895A1E21A2EAA1BBB1BFD0170
:1024E0000DC0AA1FBB1FEE1FFF1FA217B307E407F3
:1024F000F50720F0A21BB30BE40BF50B661F771F4B
:10250000881F991F1A9469F760957095809590952A
:102510009B01AC01BD01CF0108950E94A612A59FA9
:10252000900DB49F900DA49F800D911D11240895CE
:10253000B7FF0C948D120E948D12821B930B08958D
:10254000EE0FFF1F0590F491E02D0994A29FB001BA
:10255000B39FC001A39F700D811D1124911DB29FD7
:10256000700D811D1124911D08950E94261308F4F9
:1025700081E008950E94521388F09F5798F0B92F78
:102580009927B751B0F0E1F0660F771F881F991FA8
:102590001AF0BA95C9F714C0B13091F00E946C13CB
:1025A000B1E008950C946C13672F782F8827B85FDB
:1025B00039F0B93FCCF3869577956795B395D9F700
:1025C0003EF490958095709561957F4F8F4F9F4F0A
:1025D0000895E89409C097FB3EF490958095709516
:1025E00061957F4F8F4F9F4F9923A9F0F92F96E95F
:1025F000BB279395F695879577956795B795F111D4
:10260000F8CFFAF4BB0F11F460FF1BC06F5F7F4F70
:102610008F4F9F4F16C0882311F096E911C0772382
:1026200021F09EE8872F762F05C0662371F096E88B
:10263000862F70E060E02AF09A95660F771F881F5A
:10264000DAF7880F9695879597F90895990F0008FE
:10265000550FAA0BE0E8FEEF16161706E807F90774
:10266000C0F012161306E407F50798F0621B730B0F
:10267000840B950B39F40A2661F0232B242B252B90
:1026800021F408950A2609F4A140A6958FEF811D33
:10269000811D089557FD9058440F551F59F05F3F15
:1026A00071F04795880F97FB991F61F09F3F79F074
:1026B00087950895121613061406551FF2CF4695F6
:1026C000F1DF08C0161617061806991FF1CF869578
:1026D0007105610508940895E894BB27662777275C
:1026E000CB0197F908950E94261308F48FEF0895FF
:1026F0000E948B130C94FC130E94EE1338F00E947E
:10270000F51320F0952311F00C94E5130C94EB13C2
:1027100011240C946D130E944A1370F3959FC1F31A
:10272000950F50E0551F629FF001729FBB27F00D7F
:10273000B11D639FAA27F00DB11DAA1F649F6627D4
:10274000B00DA11D661F829F2227B00DA11D621F23
:10275000739FB00DA11D621F839FA00D611D221FDD
:10276000749F3327A00D611D231F849F600D211DC1
:10277000822F762F6A2F11249F5750409AF0F1F044
:1027800088234AF0EE0FFF1FBB1F661F771F881FAD
:1027900091505040A9F79E3F510580F00C94E513ED
:1027A0000C946D135F3FE4F3983ED4F386957795D0
:1027B0006795B795F795E7959F5FC1F7FE2B880F53
:1027C000911D9695879597F9089597F99F6780E8E9
:1027D00070E060E008959FEF80EC089500240A9473
:1027E0001616170618060906089500240A941216EC
:1027F0001306140605060895092E0394000C11F41F
:10280000882352F0BB0F40F4BF2B11F460FF04C0CB
:102810006F5F7F4F8F4F9F4F0895A8E1B0E042E078
:1028200050E00C941514DC01CB01FC01F999FECFAA
:1028300006C0F2BDE1BDF89A319600B40D92415048
:0A2840005040B8F70895F894FFCF58
:10284A00011401003F065B4F666D7D077F6F00C66E
:10285A00CC183066C600527CC6CEDEF6E67C003066
:10286A007030303030FC0078CC0C3860CCFC00780A
:10287A00CC0C380CCC78001C3C6CCCFE0C1E00FC3A
:10288A00C0F80C0CCC78003860C0F8CCCC7800FCCE
:10289A00CC0C183030300078CCCC78CCCC7800789E
:1028AA00CCCC7C0C187000303132333435363738A2
:0828BA00394142434445460048
:00000001FF
