:100000000BC024C023C022C021C020C0A6C01EC077
:100010001DC01CC01BC01AC011241FBECFEDCDBF18
:1000200010E0A0E6B0E0E8E5F6E003C0C895319640
:100030000D92A83BB107D1F710E0A8EBB0E001C0EA
:100040001D92A13CB107E1F727D204C3D9CF00002C
:1000500090E0C098000087FF02C0C29A01C0C29819
:10006000C09A9F5F983011F0880FF3CF0895DF9208
:10007000EF92FF920F931F93182FF62EE42ED22E9D
:10008000C198E5DF8F2DE3DF812FE1DF8E2DDFDFEC
:10009000812FDDDF8D2DDBDF812FD9DF802FD7DFB3
:1000A00082E088BB1F910F91FF90EF90DF90089541
:1000B0000F931F93DF93CF930F92CDB7DEB791E0ED
:1000C000892F60E070E040E050E020E030E000E0A8
:1000D00010E09983CCDF99819F5F993089F70F9069
:1000E000CF91DF911F910F9108950F931F9387B3C5
:1000F000876087BB89E060E070E040E050E020E08E
:1001000030E000E010E0B3DF8AE060E070E040E063
:1001100050E020E030E0ABDF8BE067E070E047E0EC
:1001200050E027E030E007E010E0A1DF8CE061E084
:1001300070E041E050E021E030E001E010E097DFC6
:100140008FE060E070E040E050E020E030E000E070
:1001500010E08DDF1F910F9108951F920F920FB63F
:100160000F9211248F939F93AF93BF938091BA0006
:100170009091BB00A091BC00B091BD000196A11D63
:10018000B11D8093BA009093BB00A093BC00B093C4
:10019000BD00BF91AF919F918F910F900FBE0F90B7
:1001A0001F9018951F93C39A8AE18A95F1F788B337
:1001B00018BA1092BA001092BB001092BC001092B4
:1001C000BD00B69BFECF8091BA009091BB00A0917C
:1001D000BC00B091BD008C5B9240A040B04089F360
:1001E00012BE1092BA001092BB001092BC00109286
:1001F000BD00B69B0DC08091BA009091BB00A0914C
:10020000BC00B091BD008C5B9240A040B04089F72B
:1002100012B76091BA007091BB008091BC009091C0
:10022000BD002FEF30E040E050E0AAD1610F711D1A
:10023000811D911D22ED31E040E050E0D2D1822FAE
:10024000932F1F910895BF92CF92DF92EF92FF926A
:100250000F931F93DF93CF93CDB7DEB72A970FB6D7
:10026000F894DEBF0FBECDBF082F192FF62E809158
:10027000BE008F5F8093BE008091BE00843119F470
:100280001092BE0032DFBFB6F894FF2019F020E0D4
:1002900030E002C022E030E080EB90E09A83898376
:1002A000802F912F6AE070E086D173E0880F991F4C
:1002B0007A95E1F7805A9F4F9C838B83802F912FF3
:1002C0006AE070E078D1862F972F6AE070E073D1F2
:1002D00063E0880F991F6A95E1F7805A9F4F9E83CC
:1002E0008D83802F912F64E670E065D1862F972F44
:1002F0006AE070E060D153E0880F991F5A95E1F7EA
:10030000805A9F4F98878F83802F912F68EE73E0DC
:1003100052D1862F972F6AE070E04DD143E0880FCD
:10032000991F4A95E1F7805A9F4F9A878987CC2E6B
:10033000DD2E0894C11CD11CC20ED31EEE24FF2456
:10034000AC2DBD2DED91FC911197EE0DFF1D60813F
:100350001296ED91FC911397EE0DFF1D40811496BE
:10036000ED91FC911597EE0DFF1D20811696ED91F4
:10037000FC911797EE0DFF1D00818E2D8F5F70E0B1
:1003800050E030E010E073DE0894E11CF11CB8E0AE
:10039000EB16F104A9F6BFBE2A960FB6F894DEBF9D
:1003A0000FBECDBFCF91DF911F910F91FF90EF90C6
:1003B000DF90CF90BF9008950F931F93CF93DF935B
:1003C000C82FD92F08EC10E08C2F9D2F60E03BDF69
:1003D00080E197E2E02FF12F3197F1F70197D1F704
:1003E000F3CF60E030DF80E197E228EC30E0E22FED
:1003F000F32F3197F1F70197D1F75ADE80ED97E0AF
:1004000028EC30E0E22FF32F3197F1F70197D1F785
:100410000895EF92FF920F931F93CF93DF9300E025
:1004200010E0C0E0D0E0E8ECEE2EF12CBBDE9093C3
:10043000C0008093BF008091BF009091C000833DB9
:10044000910530F48091BF009091C0000A9720F48C
:1004500089EE93E0C6DF0FC02091BF003091C0004D
:1004600084EF91E0EE2DFF2D3197F1F70197D1F751
:10047000020F131F2196C431D105C4F2802F912F92
:1004800064E170E098D0862F972FDF91CF911F9174
:100490000F91FF90EF900895EF92FF920F931F93AB
:1004A000CF93DF9322DEBB9A88B3807488BB81E050
:1004B00083BF82E089BF789480E090E0B9D09093C8
:1004C000B9008093B8008091B8009091B90089DF9D
:1004D000C0E0D0E004E610E0F8ECEF2EF12C99DF5C
:1004E000282F392F8C2F9D2F05968217930730F0D8
:1004F0008C2F9D2F05972817390718F58091B80084
:100500009091B900821B930B64E670E027D06EEBEC
:1005100070E051D0862F972F082F192F0E7F0536A8
:10052000110518F4C22FD32F0CC022543F4F309323
:10053000B9002093B8002E5B3040C22FD32F04E6C1
:1005400010E0802F912F61E07EDE88E893E1EE2DB0
:10055000FF2D3197F1F70197D1F7C1CF552700242F
:1005600080FF02C0060E571F660F771F61157105C9
:1005700021F096958795009799F7952F802D0895EE
:10058000FF27EE27BB27AA2760FF04C0A20FB31FD7
:10059000E41FF51F220F331F441F551F96958795A3
:1005A0007795679589F70097760771F79F2F8E2FBC
:1005B0007B2F6A2F0895AA1BBB1B51E107C0AA1FFE
:1005C000BB1FA617B70710F0A61BB70B881F991FF4
:1005D0005A95A9F780959095682F792F8A2F9B2F90
:1005E0000895A1E21A2EAA1BBB1BEA2FFB2F0DC0F8
:1005F000AA1FBB1FEE1FFF1FA217B307E407F507D3
:1006000020F0A21BB30BE40BF50B661F771F881FAE
:10061000991F1A9469F76095709580959095262F8B
:10062000372F482F592F6A2F7B2F8E2F9F2F0895FA
:10063000A8E142E002C0A82F862FE82FE199FECF63
:100640001FBA05C0EEBBE09AE3950DB20D92415082
:08065000C8F70895F894FFCFEC
:100658007CC6CEDEF6E67C00307030303030FC00F0
:1006680078CC0C3860CCFC0078CC0C380CCC7800FA
:100678001C3C6CCCFE0C1E00FCC0F80C0CCC7800AA
:100688003860C0F8CCCC7800FCCC0C183030300086
:1006980078CCCC78CCCC780078CCCC7C0C1870009A
:0806A80000C6CC183066C60044
:00000001FF
