:100000000C943E000C9466000C9466000C94660000
:100010000C9466000C9466000C9466000C946600C8
:100020000C9466000C9466000C9466000C944004DA
:100030000C9466000C9466000C9486110C94660077
:100040000C9466000C9466000C9466000C94660098
:100050000C9466000C9466000C9466000C94660088
:100060000C9466000C946600252000636D2000202F
:10007000003A20000A20202020004A1211241FBE2E
:10008000CFEFD8E0DEBFCDBF11E0A0E0B1E0E6E603
:10009000F8E202C005900D92A837B107D9F721E028
:1000A000A8E7B1E001C01D92A33BB207E1F710E061
:1000B000CEE3D0E004C02197FE010E94AE12CD3302
:1000C000D107C9F70E94C8110C9431140C94000098
:1000D00080919C0190919D0180939301089581E00E
:1000E00090E09093030180930201EBE8F1E08381BB
:1000F0008283158214821182108216820895000074
:1001000098E02898000087FF06C02A9A289A880F4E
:100110009150B9F708952A98F9CFFF920F931F9342
:10012000CF93DF93C82FF62E142FD22F29980E9439
:100130007F008F2D0E947F008C2F0E947F00812FD7
:100140000E947F008C2F0E947F008D2F0E947F00D5
:100150008C2F0E947F00802F0E947F0082E085B953
:10016000DF91CF911F910F91FF9008950F931F93EF
:1001700084B1876084B910E000E030E020E050E016
:1001800040E070E060E089E00E948D0030E020E017
:1001900050E040E070E060E08AE00E948D0007E0FF
:1001A00010E027E030E047E050E067E070E08BE0EF
:1001B0000E948D0001E010E021E030E041E050E0DD
:1001C00061E070E08CE00E948D0010E000E030E023
:1001D00020E050E040E070E060E08FE00E948D00A1
:1001E0001F910F9108950F931F93CF93C1E010E0DB
:1001F00000E030E020E050E040E070E060E08C2F74
:100200000E948D00CF5FC93091F7CF911F910F9160
:100210000895559A569A579A08955F9A8AE18A9551
:10022000F1F700C05F988AE18A95F1F700C0089560
:1002300027E030E090E0AC01022E02C055954795D2
:100240000A94E2F740FF0FC05D9A5E9A4AE14A9530
:10025000F1F700C05E984AE14A95F1F700C02150DD
:10026000310948F708955D98F0CFCF92DF92EF9271
:10027000FF920F931F93CF93DF9300D000D0CDB7A1
:10028000DEB71A821982042F10E02AE0C22ED12C88
:10029000E12CF12C29813A81201731076CF4A70158
:1002A00096010E947912B901CA0129813A812F5F12
:1002B0003F4F3A832983EECF2AE030E040E050E020
:1002C0000E94791269837A838B839C83E981FA8106
:1002D000EC5FFE4F80810F900F900F900F90DF9199
:1002E000CF911F910F91FF90EF90DF90CF900895E5
:1002F000CF93DF9300D000D0CDB7DEB7262F853661
:10030000910510F084E690E06AE070E00E946512CA
:10031000CB0101966BE070E00E94651240E050E076
:10032000BA01815030F0440F551F661F771F41609E
:10033000F8CFDB01CA0104C0880F991FAA1FBB1F99
:100340002A95D2F7BC01CD010F900F900F900F901E
:10035000DF91CF910895982F28E030E080E0880F5A
:10036000492F4170842B969521503109C1F708958A
:100370000F931F93CF93DF9300D000D000D0CDB761
:10038000DEB780910201909103010EE711E0019721
:1003900011F40BE811E01E830D830E946611462FB5
:1003A000572FBC0180917A0190917B01A0917C0133
:1003B000B0917D01892B8A2B8B2B91F180917A0151
:1003C00090917B01A0917C01B0917D018A019B01FC
:1003D000081B190B2A0B3B0BAD81BE8115968C9126
:1003E000159715961C92811116C084EF91E0A0E03C
:1003F000B0E0081719072A073B0790F480917901AC
:1004000026960FB6F894DEBF0FBECDBFDF91CF9119
:100410001F910F91089584E690E0A0E0B0E0E9CF4D
:1004200040937A0150937B0160937C0170937D012E
:1004300080910201909103010197E1F4809198016C
:100440008823C1F01092030110920201809386016B
:10045000809199018093980180919A0180939901EC
:1004600080919B0180939A0110929B010EE711E00D
:100470001E830D83AD81BE818D919C91119781303A
:100480009105E9F08230910509F454C0892B89F473
:100490001996ED91FC91309709F00995ED81FE8157
:1004A0008381828381E090E091838083848387814C
:1004B0008683ED81FE81868180937901A1CFAD8114
:1004C000BE8114968C911497882351F016961C9235
:1004D000169714961C92149781E015968C93E9CF89
:1004E00081E0ED81FE81848342818085082F10E0C8
:1004F00030E020E009831A832B833C83C901B801D3
:100500000E943501AD81BE8116968C931697129686
:100510008C911297811108C082E090E011969C9313
:100520008E9314961C92C5CFED81FE8182818150FD
:100530008283BFCFAD81BE8113968C9113971296A3
:100540008C93129715961C92159714961C921497DB
:1005500011961C921E9216961C9216971B96ED9160
:10056000FC91309709F4A5CF0995A3CFCF92DF92E4
:10057000EF92FF9280919C0190919D0167E00E9413
:1005800078016B017C010E94B801C82A8D2D0E9460
:10059000AB010E9418018C2D0E941801E0FE07C0DB
:1005A0005C9AFF90EF90DF90CF900C940D015C98D7
:1005B000F8CFCF93DF93CDB7DEB72D970FB6F89472
:1005C000DEBF0FBECDBFCE0101960E9416076AE0C6
:1005D00070E00E94651270939F0160939E0180916C
:1005E0009E0190919F019C0150E040E02A873B874B
:1005F0004C875D87CA01B9010E94590F8BE690E0D4
:100600000E94430F80919E0190919F012D960FB6FD
:10061000F894DEBF0FBECDBFDF91CF9108958F92CA
:100620009F92BF92CF92DF92EF92FF920F931F9310
:10063000CF93DF93CDB7DEB72A970FB6F894DEBF1E
:100640000FBECDBF7C01D62E809178018F5F809345
:100650007801843121F4109278010E94B600BFB66F
:10066000F8948EE091E09A8389832AE030E0C70114
:10067000B9010E94651243E0880F991F4A95E1F77E
:10068000895E9E4F9C838B83CB01B9010E946512CA
:1006900053E0880F991F5A95E1F7895E9E4F9E831C
:1006A0008D83C70164E670E00E946512CB01B90139
:1006B0000E94651263E0880F991F6A95E1F7895ED1
:1006C0009E4F98878F83C70168EE73E00E94651282
:1006D000CB01B9010E94651273E0880F991F7A95CA
:1006E000E1F7895E9E4F9A87898781E0D11080E08B
:1006F000C82ED12CCC0CDD1C81E090E08C0F9D1F0E
:10070000C80ED91EF12CE12C4601D6011696ED91AA
:10071000FC911797EE0DFF1D008110E01496ED91EE
:10072000FC911597EE0DFF1D208130E01296ED91A2
:10073000FC91EE0DFF1D408150E0D401ED91FC9144
:10074000EE0DFF1D608170E081E08E0D0E948D0036
:10075000BFEFEB1AFB0A88E0E816F104B1F6BFBE62
:100760002A960FB6F894DEBF0FBECDBFDF91CF91B2
:100770001F910F91FF90EF90DF90CF90BF909F90CF
:100780008F900895D82FC92F60E08D2F9C2F0E9445
:100790000F032FEF89E698E1215080409040E1F768
:1007A00000C00000F1CF60E00E940F032FEF89E648
:1007B00098E1215080409040E1F700C000000E9485
:1007C000F3002FEF81EE94E0215080409040E1F75C
:1007D00000C0000008958093B40008958BE08093DA
:1007E000810082EE94E0909389008093880082E0FB
:1007F00080936F000895539A83E28093B00081E064
:100800008093B1001092B40008950E941C0FE1EC97
:10081000F0E080818F7E808382E08AB9549A0E94C2
:10082000B1100E945D110E94EE030E94FB030E9422
:1008300009018FE690E090938A018093890188E610
:1008400090E090939501809394017894089590910D
:10085000010180910101953610F4843128F48091D2
:100860000001819580930001809100019091010128
:10087000890F80930101809101018093B400089554
:100880001F920F920FB60F9211242F933F934F9305
:100890005F936F937F938F939F93AF93BF93EF93E8
:1008A000FF930E9427040E94B602FF91EF91BF912F
:1008B000AF919F918F917F916F915F914F913F91F8
:1008C0002F910F900FBE0F901F901895E8E9F1E05F
:1008D0009281938391819283908191838083089503
:1008E0000F931F930097B9F00197B0E0A0E050E09C
:1008F00040E08C019D010027012B022B032B39F0D6
:10090000B695A795979587954F5F5F4FF2CF342F98
:100910002227822B932B1F910F910895CF93DF9362
:10092000D82FC62F809116010E94B7108D2F0E94DC
:1009300019118C2F0E941911DF91CF910C940D1178
:100940001F93CF93DF93182FEB01809116010E9424
:10095000B710812F0E9419118D2F0E9419118C2F11
:100960000E941911DF91CF911F910C940D11FF92EC
:100970000F931F93CF93DF93F82EEA01162F072FC3
:10098000809116010E94B7108F2D0E941911802F9F
:100990000E941911812F0E9419118D2F0E94191187
:1009A0008C2F0E941911DF91CF911F910F91FF9011
:1009B0000C940D11CF93C82F809116010E94B7108F
:1009C0008C2F0E9419118091160181600E940B11D9
:1009D0000E944011C82F0E940D118C2FCF910895B5
:1009E000CF93DF93C82F809116010E94B7108C2FF0
:1009F0000E9419118091160181600E940B110E94C2
:100A00003011C82FD0E0DC2FCC270E944011C82B1A
:100A10000E940D11CE01DF91CF910895CF92DF9208
:100A2000EF92FF92CF93DF9300D000D0CDB7DEB727
:100A30008983809116010E94B71089810E94191143
:100A40008091160181600E940B110E94301190E08C
:100A5000B0E0A0E0F82EEE24DD24CC240E9430117A
:100A6000E82A0E94301189830E944011C82AD701C8
:100A7000C6012981922B89839A83AB83BC830E9410
:100A80000D1169817A818B819C810F900F900F905D
:100A90000F90DF91CF91FF90EF90DF90CF9008956E
:100AA000FF920F931F93CF93DF93C82FF62E072F3C
:100AB000142F809116010E94B7108C2F0E941911DB
:100AC000115040F0CF2DD02F89910E941911FC2E8A
:100AD0000D2FF6CFDF91CF911F910F91FF900C94C6
:100AE0000D11EF92FF920F931F93CF93DF93082F77
:100AF000EB01142F809116010E94B710802F0E94E5
:100B000019118091160181600E940B11112379F057
:100B10007E018FEFE81AF80A123030F00E9430118F
:100B200088831150E701F2CF0E944011F9CFDF9185
:100B3000CF911F910F91FF90EF900C940D11CF93D7
:100B4000C82F682F66958AE80E948E04C09316010C
:100B5000CF9108958091160108950F931F93CF931D
:100B6000DF9300D000D000D0CDB7DEB78B018E83ED
:100B70009D8320E030E0A90169831A838B839C83E5
:100B800069817A818B819C810E94C31287FD2FC06D
:100B900028EB3EEF4FEF53E469817A818B819C8192
:100BA0000E94811318161CF120E030E040E053E46D
:100BB00069817A818B819C810E94861369837A8303
:100BC0008B839C8369817A818B819C810E94C8126E
:100BD00084E40E94A00481E026960FB6F894DEBF5C
:100BE0000FBECDBFDF91CF911F910F91089580E08F
:100BF000F3CFCF93DF9300D000D0CDB7DEB784E43E
:100C00000E94F0049C0150E040E029833A834B832A
:100C10005C83CA01B9010E94F71220E030E040E095
:100C20005CE369837A838B839C8369817A818B817E
:100C30009C810E94861369837A838B839C8369815C
:100C40007A818B819C810F900F900F900F90DF9194
:100C5000CF9108959C0180E52115310521F02130C7
:100C6000310531F480E70E94DA048F5F880F089520
:100C70008FEF0895CF92DF92EF92FF926B017C018C
:100C800061E080E80E948E0461E08FEF0E948E0494
:100C900060E080E00E948E046091A80181E90E94DA
:100CA0008E0461E080E00E948E0460E08FEF0E947D
:100CB0008E0460E080E80E948E0462E0C114D104DA
:100CC000E104F10491F088EF0E94F004DC01892B2B
:100CD00031F0A70196010E949B126B017C01B701C4
:100CE000A60184E00E94B70464E080E0FF90EF90EA
:100CF000DF90CF900C948E0461E080E00E948E041F
:100D000061E08FEF0E948E0460E080E00E948E041C
:100D100060E081E90E948E0461E080E00E948E0420
:100D200060E08FEF0C948E04EF92FF920F931F936D
:100D3000CF93DF93CDB7DEB760970FB6F894DEBFE1
:100D40000FBECDBF7C010E9466117093AA01609313
:100D5000A90183E10E94DA04877079F58091AC01E2
:100D60009091AD01892BA9F30E9466116D877E8752
:100D70008F87988B8091A9019091AA012D853E853E
:100D8000281B390BC9012091AC013091AD01281706
:100D90003907F8F681E08093AB010FEF1FEFC80130
:100DA00060960FB6F894DEBF0FBECDBFDF91CF9136
:100DB0001F910F91FF90EF900895E114F10449F411
:100DC0008EE10E94F0048C0161E08BE00E948E04B1
:100DD000E6CF4CE0BE016F5F7F4F84E10E9471055A
:100DE000898190E023E0959587952A95E1F7F701B1
:100DF00080878B819C819827892798279783868372
:100E00008F8198859827892798279383828389855E
:100E10009A85982789279827958384830B851C8535
:100E200010270127102711830083CECFCF93DF93A4
:100E300000D000D000D0CDB7DEB78E839D8361E0B7
:100E400080E80E948E0461E08FEF0E948E0460E0D3
:100E500080E00E948E046091A80181E90E948E04C6
:100E600061E080E00E948E0460E08FEF0E948E04BB
:100E700060E080E80E948E0461E080E00E948E04C1
:100E80000E9466117093AA016093A90180E00E94FC
:100E9000DA0480FF2AC08091AC019091AD01892BCA
:100EA000A9F30E94661169837A838B839C83809166
:100EB000A9019091AA0129813A81281B390BC90106
:100EC0002091AC013091AD0128173907F8F681E087
:100ED0008093AB018FEF9FEF26960FB6F894DEBF9D
:100EE0000FBECDBFDF91CF9108958E819D81269653
:100EF0000FB6F894DEBF0FBECDBFDF91CF910C943B
:100F000094068091AB011092AB0108959093AD01CE
:100F10008093AC0108958091AC019091AD0108954A
:100F2000EF92FF920F931F93CF93DF9300D000D0E7
:100F30000F92CDB7DEB77C018B0161E080E80E94A3
:100F40008E0461E08FEF0E948E0460E080E00E94DA
:100F50008E0466E08FEF0E948E0483E80E94DA041C
:100F6000682F646083E80E948E0467E08FEF0E9420
:100F70008E0461E081E80E948E0461E080E80E94B6
:100F80008E046BE684E90E948E0460E083E80E9490
:100F90008E040E9466117093AA016093A90183E8F0
:100FA0000E94DA048D83811129C08091AC01909157
:100FB000AD01892BA1F30E94661169837A838B832B
:100FC0009C838091A9019091AA0129813A81281BD3
:100FD000390BC9012091AC013091AD0128173907B7
:100FE000F0F68D810F900F900F900F900F90DF9182
:100FF000CF911F910F91FF90EF90089561E083E8EA
:101000000E948E0482E90E94DA04982F9F77F701EC
:101010009083881F8827881FF801808360E081E81B
:101020000E948E0466E08FEF0E948E0483E80E9487
:10103000DA04682F6B7F83E80E948E0461E08FEFF3
:101040000E948E0461E080E00E948E0460E08FEFD9
:101050000E948E0460E080E80E948E04F1E0FD832F
:10106000C0CFCF93DF93EC0181E00E94DA0484FBD0
:10107000992790F9988383FB992790F99A8382FBAB
:10108000992790F9998386FB992790F99B83881F6C
:101090008827881F8C83DF91CF9108954F925F92AC
:1010A0006F927F928F929F92AF92BF92EF92FF9238
:1010B0000F931F93CF93DF93CDB7DEB72A970FB669
:1010C000F894DEBF0FBECDBF8C0169877A8790E0B0
:1010D00080E00E942A0690E0A985BA858D939C93B2
:1010E00086E40E94DA04E82EF12CBFEFEB1AFB0A2B
:1010F000E985FA85F582E482A081B0E020E03FE254
:101100004AE350E00E949B12DC01CB018C509E4FC1
:10111000AF4FBF4F89839A83AB83BC8338EE832E56
:1011200033E0932EA12CB12CBC01CD01A50194017B
:101130000E947912D7010E94A6126D837E838F834D
:10114000988740ED442E47E0542E612C712C698124
:101150007A818B819C81A30192010E9479128D81F9
:101160009E81AF81B885820F931FA41FB51F8D8309
:101170009E83AF83B887BC01CD01A50194010E9475
:101180007912A985BA851A962D933D934D935C9358
:101190001D9781E50E94F004E82EF12C02C0EE0CB0
:1011A000FF1C9A95E2F7BFEFEB1AFB0AE985FA8577
:1011B000F782E682A081B0E020E03FE24AE350E01F
:1011C0000E949B12DC01CB018C509E4FAF4FBF4F52
:1011D00089839A83AB83BC83BC01CD01A5019401B3
:1011E0000E947912D7010E949B126D837E838F83A8
:1011F000988769817A818B819C81A30192010E94E9
:1012000079128D819E81AF81B885820F931FA41FB3
:10121000B51F8D839E83AF83B887BC01CD01A50127
:1012200094010E947912A985BA851E962D933D934B
:101230004D935C93519780E70E94DA048F5F880F8B
:1012400090E0E985FA859383828381E70E94F00428
:10125000292F90E002C0880F991F2A95E2F7019686
:10126000A985BA8519969C938E931897F8012381C6
:10127000222351F016962D913C911797821B930BC8
:1012800019969C938E931897E985FA85A281B0E010
:1012900020E03FE24AE350E00E949B12DC01CB01D8
:1012A0008C509E4FAF4FBF4F89839A83AB83BC83D3
:1012B00028EE822E23E0922EA12CB12CBC01CD0170
:1012C000A50194010E947912E985FA85A085B1856E
:1012D0000E949B126D837E838F83988769817A81B8
:1012E0008B819C8120ED37E040E050E00E94791234
:1012F0008D819E81AF81B885820F931FA41FB51F7A
:10130000BC01CD01A50194010E947912A985BA857D
:1013100052962D933D934D935C9355972A960FB615
:10132000F894DEBF0FBECDBFDF91CF911F910F911B
:10133000FF90EF90BF90AF909F908F907F906F90B5
:101340005F904F9008958F929F92AF92BF92CF92ED
:10135000DF92EF92FF921F93CF93DF93CDB7DEB76B
:10136000A3970FB6F894DEBF0FBECDBF4B015C0153
:1013700020E282162EE49206A104B10408F4CCC047
:10138000CE0147960E943108BE016F5F7F4FCE01AC
:1013900047960E944E088F89882309F4ABC08B853D
:1013A0009C85AD85BE858A5C944FAF4FBF4F298D1C
:1013B000222309F4A4C04B855C856D857E854E543F
:1013C0005D4F6F4F7F4F440F551F661F771F840F70
:1013D000951FA61FB71F1A8D112361F04F855889DD
:1013E00069897A894C565D4F6F4F7F4F840F951FE7
:1013F000A61FB71F2B8D222309F469C06C017D0144
:1014000026E2C20E22E0D21EE11CF11C8C149D04C7
:10141000AE04BF0408F480C0AB81B0E020E03FE23E
:101420004AE350E00E949B12DC01CB018C509E4F9E
:10143000AF4FBF4F8C8F9D8FAE8FBF8FA501940193
:101440002C193D094E095F09A8EEB3E00E949B12DA
:1014500068A379A38AA39BA36C8D7D8D8E8D9F8DB0
:1014600020ED37E040E050E00E94791288A199A178
:10147000AAA1BBA1820F931FA41FB51F88A399A384
:10148000AAA3BBA36C8D7D8D8E8D9F8D28EE33E03E
:1014900040E050E00E94791268A179A18AA19BA145
:1014A0000E947912C901112321F08F819885820F42
:1014B000931F0E947004BC0181E70E94A0048092E7
:1014C000A4019092A501A092A601B092A70181E08B
:1014D000A3960FB6F894DEBF0FBECDBFDF91CF91BC
:1014E0001F91FF90EF90DF90CF90BF90AF909F90B3
:1014F0008F90089588EE98E0A0E0B0E058CF288D56
:10150000222309F468CF4B855C856D857E854C561A
:101510005D4F6F4F7F4F5BCF80E0DACF0F931F930C
:10152000CF93DF93CDB7DEB76B970FB6F894DEBFDE
:101530000FBECDBFCE0147960E943108BE016F5F3E
:101540007F4FCE0147960E944E088F89882309F469
:101550004DC06B857C858D859E856C57724F8F4FF6
:101560009F4F298D222309F446C00B851C852D85AC
:101570003E850E541D4F2F4F3F4F000F111F221F4E
:10158000331F600F711F821F931F2A8D222361F06A
:101590000F85188929893A890C561D4F2F4F3F4FC7
:1015A000600F711F821F931F2B8D222361F00B8907
:1015B0001C892D893E890A5D1D4F2F4F3F4F600FBB
:1015C000711F821F931F6093A4017093A5018093E4
:1015D000A6019093A7016B960FB6F894DEBF0FBEDD
:1015E000CDBFDF91CF911F910F91089566E37BE00E
:1015F00080E090E0B6CF288D222339F20B851C8540
:101600002D853E850C561D4F2F4F3F4FBACFCF93A0
:10161000DF9300D000D00F92CDB7DEB7682F6160A6
:1016200080E00E948E040E9466117093AA0160936C
:10163000A90183E10E94DA0487708D83811125C09E
:101640008091AC019091AD01892B99F30E946611B4
:1016500069837A838B839C838091A9019091AA01ED
:1016600029813A81281B390BC9012091AC013091A5
:10167000AD0128173907E8F68D810F900F900F9074
:101680000F900F90DF91CF91089561E08BE00E9461
:101690008E0460E080E00E948E0431E03D83ECCF58
:1016A0000F931F93CF93DF93CDB7DEB72C970FB671
:1016B000F894DEBF0FBECDBF882341F089E80E94B9
:1016C000DA04682F616089E80E948E0460E088E88F
:1016D0000E948E0461E080E80E948E0461E08FEF3A
:1016E0000E948E0460E080E00E948E0481E90E94E6
:1016F000DA048093A80161E080E00E948E0460E03B
:101700008FEF0E948E0460E080E80E948E0480E6E5
:101710000E94DA04682F626180E60E948E0460E213
:1017200070E084E40E94A0046FEF81E00E948E04C8
:10173000BE01695F7F4FCE0108960E94900781111C
:101740000CC080E02C960FB6F894DEBF0FBECDBF64
:10175000DF91CF911F910F91089546E0BE016F5F19
:101760007F4F80EB0E94710561E08FEF0E948E0435
:1017700060E08FE40E948E046CE28EE40E948E048E
:1017800060E08FEF0E948E0464EB86EB0E948E0473
:101790009F8191119CE0B88580E0A0E001E010E01D
:1017A000482F46954695469550E021E030E02C0FB5
:1017B0003D1F240F351FF9012081682F677089179D
:1017C00010F0BA139FC1E1E0F0E0EC0FFD1F4E0FE7
:1017D0005F1FF80102C0EE0FFF1F6A95E2F7BF011D
:1017E00060952623FA0120838F5F8033C9F646E097
:1017F000BE016F5F7F4F80EB0E94500561E08FEF6D
:101800000E948E0460E080E00E948E0460E08FEF12
:101810000E948E0460E089E00E948E0460E080E116
:101820000E948E0460E081E10E948E0461E084E207
:101830000E948E046FEF85E20E948E0460E085E7CF
:101840000E948E0461E08FEF0E948E046CE28EE4B1
:101850000E948E0460E088E40E948E0460E280E3CF
:101860000E948E0460E08FEF0E948E0469E080E3A6
:101870000E948E0460E084E50E948E0464E081E3AF
:101880000E948E0463E082E30E948E0463E880E499
:101890000E948E0465E286E40E948E0460E080E689
:1018A0000E948E0460E087E20E948E0466E080E57C
:1018B0000E948E0460E081E50E948E0466E982E564
:1018C0000E948E0468E086E50E948E0460E387E54E
:1018D0000E948E0460E081E60E948E0460E082E651
:1018E0000E948E0460E084E60E948E0460E085E63B
:1018F0000E948E0460EA86E60E948E0461E08FEF0B
:101900000E948E0462E382E20E948E0464E187E416
:101910000E948E046FEF89E40E948E0460E08AE4E6
:101920000E948E0460E08FEF0E948E046AE08AE7D6
:101930000E948E0460E08BE70E948E0461E288E7DB
:101940000E948E0461E08FEF0E948E0464E383E2C4
:101950000E948E0460E082E40E948E046FEF84E4B3
:101960000E948E0466E285E40E948E0465E086E4AF
:101970000E948E0460E480E40E948E0466E08EE0A3
:101980000E948E046AE180E20E948E0460E483E497
:101990000E948E0460E08FEF0E948E0463E084E377
:1019A0000E948E0464E485E30E948E0461E08FEF60
:1019B0000E948E0464E081E30E948E0469E08BE45F
:1019C0000E948E0465E08CE40E948E0464E08DE445
:1019D0000E948E0460E08FEF0E948E0460E084E439
:1019E0000E948E0460E285E40E948E0468E087E431
:1019F0000E948E0468E288E40E948E0460E087E61C
:101A00000E948E0464E080E70E948E0461E081E71A
:101A10000E948E046EEF82E70E948E0460E086E7EB
:101A20000E948E0460E087E70E948E0461E08FEFE1
:101A30000E948E0461E08DE00E948E0460E08FEFD2
:101A40000E948E0461E080E80E948E0468EF81E0CD
:101A50000E948E0461E08FEF0E948E0461E08EE8A8
:101A60000E948E0461E080E00E948E0460E08FEFAF
:101A70000E948E0460E080E80E948E0464E08AE0A8
:101A80000E948E0484E80E94DA04682F6F7E84E846
:101A90000E948E0461E08BE00E948E040E948E0AF8
:101AA0006093A4017093A5018093A6019093A70170
:101AB00068EE81E00E948E048091A4019091A501BE
:101AC000A091A601B091A701BC01CD010E94A3097C
:101AD00061E081E00E948E0480E40E94070B88236D
:101AE00009F42FCE62E081E00E948E0480E00E9423
:101AF000070B882309F425CE68EE81E00E948E044E
:101B000081E020CE30E002C0359527956A95E2F756
:101B100020FF6ACEAF5F68CE8F929F92AF92BF9246
:101B2000CF92DF92EF92FF920F931F93CF93DF93A9
:101B3000CDB7DEB7A3970FB6F894DEBF0FBECDBF0B
:101B40007C01162F062F06950150CE0147960E9464
:101B50003108BE016F5F7F4FCE0147960E944E084D
:101B6000E114F10409F0B3C0103109F4AEC040F43F
:101B70001C3009F4A8C060E31E3029F080E090C05A
:101B800060E51231D9F787E50E948E0468E086E5AA
:101B90000E948E04602F80E50E948E04A12FB0E089
:101BA00020E03FE24AE350E00E949B12DC01CB01BF
:101BB0008C509E4FAF4FBF4F8C8F9D8FAE8FBF8F7E
:101BC000BC01CD0128EE33E040E050E00E947912E4
:101BD00049015A016C8D7D8D8E8D9F8D20ED37E0F2
:101BE00040E050E00E94791269017A012F8538891E
:101BF00049895A89A8EEB3E00E949B12DC01CB010F
:101C00008C0D9D1DAE1DBF1D8C8F9D8FAE8FBF8F08
:101C1000BC01CD01A50194010E947912C9010E9465
:101C20007004BC0181E50E94A0042B853C854D8594
:101C30005E85A8EEB3E00E949B12DC01CB018C0D07
:101C40009D1DAE1DBF1DBC01CD01A50194010E94CB
:101C50007912213091E0390710F020E031E06FEF88
:101C6000620F86E40E948E048091A4019091A501E8
:101C7000A091A601B091A701BC01CD010E94A309CA
:101C800081E00E94DA04182F62E081E00E948E0455
:101C900080E00E94070B612F81E00E948E0481E0AA
:101CA000A3960FB6F894DEBF0FBECDBFDF91CF91E4
:101CB0001F910F91FF90EF90DF90CF90BF90AF906A
:101CC0009F908F90089568E15ECF60E45CCFEA94C6
:101CD000EF2809F053CF1C3009F4A0C0D8F4183015
:101CE00051F11A3009F04ACF68E288E40E948E046C
:101CF00068E087E40E948E0463E082E30E948E0421
:101D000069E080E30E948E0461E08FEF0E948E0400
:101D100060E226C01E3009F031CF68E488E40E94FA
:101D20008E0468E087E40E948E0463E082E30E94F0
:101D30008E0467E0E6CF60E188E40E948E0468E0EC
:101D400087E40E948E0462E082E30E948E046CE0CD
:101D500080E30E948E0461E08FEF0E948E0460E3B6
:101D600080E30E948E0460E08FEF0E948E04602F5B
:101D700080E70E948E04A12FB0E020E03FE24AE31A
:101D800050E00E949B12DC01CB018C509E4FAF4F64
:101D9000BF4F8C8F9D8FAE8FBF8F2B893C894D8914
:101DA0005E89A8EEB3E00E949B1268A379A38AA380
:101DB0009BA36C8D7D8D8E8D9F8D20ED37E040E057
:101DC00050E00E94791288A199A1AAA1BBA1820F1B
:101DD000931FA41FB51F88A399A3AAA3BBA36C8DAF
:101DE0007D8D8E8D9F8D28EE33E040E050E00E9487
:101DF000791268A179A18AA19BA10E947912C901D7
:101E00006A8D662321F08F819885820F931F0E942F
:101E10007004BC0181E70E94A00426CF68E388E437
:101E20000E948E0468E087E40E948E0463E082E3EF
:101E30000E948E0468E065CFE4E6F0E080818D7F4B
:101E40008083E1ECF0E08081886180831092C5009E
:101E500088E08093C400E0ECF0E0808182608083C1
:101E600008959091C00095FFFCCF8093C60008951F
:101E70009FE9980F963010F48755089580538A3063
:101E800008F08FEF08951F93CF93DF93EC01FE01CD
:101E90001491112351F0812F0E94310F1A3019F43F
:101EA0008DE00E94310F2196F2CFDF91CF911F91EB
:101EB00008958F929F92AF92BF92EF92FF920F93ED
:101EC0001F93CF93DF93CDB7DEB72E970FB6F8945D
:101ED000DEBF0FBECDBF6B877C878D879E878E014F
:101EE0000F5F1F4F78018AE0882E912CA12CB12C16
:101EF0008B859C85AD85BE85892B8A2B8B2B19F410
:101F0000E016F10681F46B857C858D859E85A501A3
:101F100094010E947912D8016D938D012B873C8723
:101F20004D875E87E5CFF80182918F01805D0E9429
:101F3000310FE016F106B9F72E960FB6F894DEBF12
:101F40000FBECDBFDF91CF911F910F91FF90EF900A
:101F5000BF90AF909F908F9008958F929F92AF9275
:101F6000BF92CF92DF92EF92FF92CF93DF9300D098
:101F700000D000D0CDB7DEB76B017C01842F90E09C
:101F80009E838D8388248394912C042E02C0880C18
:101F9000991C0A94E2F791E0891A9108092C000C27
:101FA000AA08BB08D701CB0104C0B695A7959795A1
:101FB00087954A95D2F7BC01CD010E94590F8EE258
:101FC0000E94310FA50194012C213D214E215F215A
:101FD0002115310541055105F1F0AAE0B0E00E945C
:101FE0009B1269837A838B839C83DC01CB010D80F8
:101FF00004C0B695A795979587950A94D2F7805D0A
:102000000E94310F29813A814B815C81282139213D
:102010004A215B21DDCF26960FB6F894DEBF0FBEB6
:10202000CDBFDF91CF91FF90EF90DF90CF90BF9029
:10203000AF909F908F900895CF92DF92EF92FF9292
:10204000CF93DF936B017C01842F8150990BEC01BE
:10205000CC0FDD1FCC0FDD1FD7FD16C0D701C60189
:102060000C2E04C0B695A795979587950A94D2F73C
:102070008F709927AA27BB2789599E4FFC01808121
:102080000E94310F2497E8CFDF91CF91FF90EF901E
:10209000DF90CF900895EF92FF920F931F93CF930D
:1020A000DF93CDB7DEB72A970FB6F894DEBF0FBE29
:1020B000CDBF8C017B0119821A821B821C8289810F
:1020C0009A818E159F0508F03FC021E1E216F104C8
:1020D00098F08F709927892B79F484E790E00E941B
:1020E000430F44E069817A818B819C810E941C109E
:1020F00081E790E00E94430F09871A87A985BA8576
:102100008D91BA87A987282F30E050E040E02D83D9
:102110003E834F83588742E06D817E818F81988511
:102120000E941C108FE690E00E94430F89819A81E3
:10213000AB81BC810196A11DB11D89839A83AB83BC
:10214000BC8309851A85BBCF2A960FB6F894DEBFEB
:102150000FBECDBFDF91CF911F910F91FF90EF90F8
:1021600008951092B90082E08093B800089594EA2F
:102170009093BC002FEF3FEF2150310911F481E023
:1021800008959091BC0097FFF7CF9091B900987F88
:10219000983011F0903199F78093BB0084E88093D8
:1021A000BC008FEF9FEF019751F32091BC0027FFF8
:1021B000FACF9091B900987F983119F081E090346E
:1021C00011F480E00895089524EA34E844E9209366
:1021D000BC009091BC0097FFFCCF9091B900987F14
:1021E000983011F0903199F78093BB003093BC0088
:1021F0009091BC0097FFFCCF9091B900987F9032EE
:1022000011F0983539F44093BC009091BC0094FDD6
:10221000FCCFDDCF08950C94B71084E98093BC0007
:102220008FEF9FEF019721F02091BC0024FDFACFA2
:1022300008958093BB0084E88093BC008FEF9FEFEC
:10224000019761F02091BC0027FFFACF9091B9006F
:10225000987F81E0983209F480E0089581E0089544
:1022600084EC8093BC008FEF9FEF019739F02091B1
:10227000BC0027FFFACF8091BB00089580E008954D
:1022800084E88093BC008FEF9FEF019739F0209195
:10229000BC0027FFFACF8091BB00089580E008952D
:1022A000CF93C0E08C2F880F0E94B7100E940D11B1
:1022B000CF5FC038B9F7CF91089582E084BD95E033
:1022C00095BD9AE797BD80936E000895CF93DF93F5
:1022D00000D000D0CDB7DEB78FB7F8942091AE0113
:1022E0003091AF014091B0015091B10129833A83FF
:1022F0004B835C838FBF69817A818B819C810F9036
:102300000F900F900F90DF91CF9108951F921FB6FD
:102310001F9211248F939F93AF93BF938091AE012F
:102320009091AF01A091B001B091B1010F96A11DA4
:10233000B11D8093AE019093AF01A093B001B09313
:10234000B1018091B2019DE5980F9D3750F49093B3
:10235000B201BF91AF919F918F911F901FBE1F90AF
:10236000189580528093B2018091AE019091AF0197
:10237000A091B001B091B1010196A11DB11D809352
:10238000AE019093AF01A093B001B093B101E1CF42
:1023900000D000D0CDB7DEB70E94050480E00E94D7
:1023A000500B0E94B6006DEC7CEC8CEC9DE30E941F
:1023B000AD0562E190E080E00E948C0D6EE081E06E
:1023C00090E00E948C0D60E271EA87E090E00E944C
:1023D000A30980E090E00E941B149093A1018093D8
:1023E000A0018091A0019091A1010E94D30384E6F5
:1023F000F82E04E610E00E94D9029C0181608F3F14
:102400009F4129F48CE5820F0E946604F4CF8091ED
:10241000A0019091A101AC01421B530BF49EC0019D
:10242000F59E900D11246EEB70E00E946512709382
:102430009D0160939C0180919C0190919D01853646
:10244000910520F010939D0100939C0180919C01C7
:1024500090919D019C0150E040E029833A834B8399
:102460005C83CA01B9010E94590F88E690E00E947E
:10247000430F80919C0190919D0161E00E940F03A8
:102480003FEF41EE54E0315040405040E1F700C092
:102490000000B1CFEBE8F1E082E0838383E787833C
:1024A0008381828315821482118210821682EEE764
:1024B000F1E081E0838381E78783838182831582D2
:1024C00014821182108216820895AA1BBB1B51E14F
:1024D00007C0AA1FBB1FA617B70710F0A61BB70B94
:1024E000881F991F5A95A9F780959095BC01CD0139
:1024F0000895A1E21A2EAA1BBB1BFD010DC0AA1F45
:10250000BB1FEE1FFF1FA217B307E407F50720F05C
:10251000A21BB30BE40BF50B661F771F881F991FD7
:102520001A9469F760957095809590959B01AC0120
:10253000BD01CF0108950E94B412A59F900DB49FD4
:10254000900DA49F800D911D11240895B7FF0C9448
:102550009B120E949B12821B930B0895EE0FFF1F8C
:102560000590F491E02D0994A29FB001B39FC001A2
:10257000A39F700D811D1124911DB29F700D811DAF
:102580001124911D08950E94341308F481E00895E8
:102590000E94601388F09F5798F0B92F9927B75180
:1025A000B0F0E1F0660F771F881F991F1AF0BA95F7
:1025B000C9F714C0B13091F00E947A13B1E00895C8
:1025C0000C947A13672F782F8827B85F39F0B93FBA
:1025D000CCF3869577956795B395D9F73EF49095AA
:1025E0008095709561957F4F8F4F9F4F0895E89428
:1025F00009C097FB3EF490958095709561957F4F4B
:102600008F4F9F4F9923A9F0F92F96E9BB279395F8
:10261000F695879577956795B795F111F8CFFAF408
:10262000BB0F11F460FF1BC06F5F7F4F8F4F9F4F39
:1026300016C0882311F096E911C0772321F09EE897
:10264000872F762F05C0662371F096E8862F70E0FD
:1026500060E02AF09A95660F771F881FDAF7880FD7
:102660009695879597F90895990F0008550FAA0B2D
:10267000E0E8FEEF16161706E807F907C0F0121695
:102680001306E407F50798F0621B730B840B950B98
:1026900039F40A2661F0232B242B252B21F40895ED
:1026A0000A2609F4A140A6958FEF811D811D08958A
:1026B00057FD9058440F551F59F05F3F71F04795F3
:1026C000880F97FB991F61F09F3F79F087950895D8
:1026D000121613061406551FF2CF4695F1DF08C0F7
:1026E000161617061806991FF1CF86957105610514
:1026F00008940895E894BB2766277727CB0197F9BC
:1027000008950E94341308F48FEF08950E949913DE
:102710000C940A140E94FC1338F00E94031420F059
:10272000952311F00C94F3130C94F91311240C94C9
:102730007B130E94581370F3959FC1F3950F50E0DF
:10274000551F629FF001729FBB27F00DB11D639F63
:10275000AA27F00DB11DAA1F649F6627B00DA11D09
:10276000661F829F2227B00DA11D621F739FB00DAF
:10277000A11D621F839FA00D611D221F749F33271F
:10278000A00D611D231F849F600D211D822F762FB8
:102790006A2F11249F5750409AF0F1F088234AF095
:1027A000EE0FFF1FBB1F661F771F881F9150504001
:1027B000A9F79E3F510580F00C94F3130C947B1302
:1027C0005F3FE4F3983ED4F3869577956795B79588
:1027D000F795E7959F5FC1F7FE2B880F911D9695A2
:1027E000879597F9089597F99F6780E870E060E012
:1027F00008959FEF80EC089500240A94161617069A
:1028000018060906089500240A94121613061406E1
:1028100005060895092E0394000C11F4882352F044
:10282000BB0F40F4BF2B11F460FF04C06F5F7F4FFC
:102830008F4F9F4F0895A8E1B0E042E050E00C9424
:102840002314DC01CB01FC01F999FECF06C0F2BDD7
:10285000E1BDF89A319600B40D9241505040B8F75E
:062860000895F894FFCF7B
:10286600011401003F065B4F666D7D077F6F00C652
:10287600CC183066C600527CC6CEDEF6E67C00304A
:102886007030303030FC0078CC0C3860CCFC0078EE
:10289600CC0C380CCC78001C3C6CCCFE0C1E00FC1E
:1028A600C0F80C0CCC78003860C0F8CCCC7800FCB2
:1028B600CC0C183030300078CCCC78CCCC78007882
:1028C600CCCC7C0C18700030313233343536373886
:0828D60039414243444546002C
:00000001FF
