:100000000C943D000C945A000C945A000C945A0025
:100010000C945A000C945A000C945A000C945A00F8
:100020000C945A000C945A000C945A000C944F04EF
:100030000C945A000C945A000C9495110C945A008C
:100040000C945A000C945A000C945A000C945A00C8
:100050000C945A000C945A000C945A000C945A00B8
:100060000C945A000C945A00252000636D20002047
:10007000003A20000A202020200011241FBECFEFCC
:10008000D8E0DEBFCDBF11E0A0E0B1E0E6E4F8E2E9
:1000900002C005900D92AA37B107D9F721E0AAE76F
:1000A000B1E001C01D92A13AB207E1F70E94D71159
:1000B0000C9421140C940000000098E02898000093
:1000C00087FF06C02A9A289A880F9150B9F7089599
:1000D0002A98F9CFFF920F931F93CF93DF93C82FE6
:1000E000F62E142FD22F29980E945C008F2D0E948B
:1000F0005C008C2F0E945C00812F0E945C008C2F82
:100100000E945C008D2F0E945C008C2F0E945C007E
:10011000802F0E945C0082E085B9DF91CF911F9112
:100120000F91FF9008950F931F9384B1876084B956
:1001300010E000E030E020E050E040E070E060E0FF
:1001400089E00E946A0030E020E050E040E070E08A
:1001500060E08AE00E946A0007E010E027E030E0FB
:1001600047E050E067E070E08BE00E946A0001E049
:1001700010E021E030E041E050E061E070E08CE030
:100180000E946A0010E000E030E020E050E040E033
:1001900070E060E08FE00E946A001F910F91089567
:1001A0000F931F93CF93C1E010E000E030E020E018
:1001B00050E040E070E060E08C2F0E946A00CF5F6A
:1001C000C93091F7CF911F910F910895559A569A82
:1001D000579A08955F9A8AE18A95F1F700C05F986F
:1001E0008AE18A95F1F700C0089527E030E090E0B9
:1001F000AC01022E02C0559547950A94E2F740FFE4
:100200000FC05D9A5E9A4AE14A95F1F700C05E9888
:100210004AE14A95F1F700C02150310948F70895A5
:100220005D98F0CFCF93DF9300D000D0CDB7DEB78D
:10023000262F8536910510F084E690E06AE070E0A4
:100240000E945B12CB0101966BE070E00E945B1292
:1002500040E050E0BA01815030F0440F551F661F56
:10026000771F4160F8CFDB01CA0104C0880F991FD6
:10027000AA1FBB1F2A95D2F7BC01CD010F900F908A
:100280000F900F90DF91CF910895982F28E030E0E4
:1002900080E0880F492F4170842B969521503109B9
:1002A000C1F70895CF92DF92EF92FF920F931F93C1
:1002B000CF93DF9300D000D0CDB7DEB71A8219827A
:1002C000042F10E02AE0C22ED12CE12CF12C298140
:1002D0003A81201731076CF4A70196010E946F1232
:1002E000B901CA0129813A812F5F3F4F3A8329839F
:1002F000EECF2AE030E040E050E00E946F126983C8
:100300007A838B839C83E981FA81ED5FFE4F808144
:100310000F900F900F900F90DF91CF911F910F9141
:10032000FF90EF90DF90CF9008950F931F93CF939E
:10033000DF9300D000D0CDB7DEB7809190019091CF
:10034000910181309105D9F08230910509F456C0B0
:10035000892BF1F481E08093020121E030E03093B9
:100360009101209390018093830181E70F900F907A
:100370000F900F90DF91CF911F910F910895809171
:100380008301882339F01092830181E080938201F8
:1003900080E0ECCF81E08093830140910201809165
:1003A0008401082F10E030E020E009831A832B83BA
:1003B0003C83C901B8010E94520190910201911140
:1003C00017C090918501909384019091860190933C
:1003D000850190918701909386011092870122E018
:1003E00030E0309391012093900110928301BECFB1
:1003F00090910201915090930201B8CF81E090E07A
:1004000090930E0180930D01109291011092900132
:1004100010928301BDCFCF93DF9300D000D00F9215
:10042000CDB7DEB78091900190919101009749F08E
:10043000019709F11092910110929001109283019D
:1004400023C080918801909189018093800182E08E
:100450008093810181E090E09093910180939001DD
:100460008093830183E70F900F900F900F900F9070
:10047000DF91CF91089580918301882339F0109204
:10048000830181E08093820180E0EDCF20918101A2
:100490002D8380918001282F30E050E040E02983B7
:1004A0003A834B835C834D8169817A818B819C8106
:1004B0000E94520191E0909383013D81311109C066
:1004C00022E030E03093910120939001109283015B
:1004D000CACF4D81415040938101C5CF0F931F93E7
:1004E0000E947511462F572FBC0180917C0190917D
:1004F0007D01A0917E01B0917F01892B8A2B8B2BEE
:1005000029F180917C0190917D01A0917E01B091B3
:100510007F018A019B01081B190B2A0B3B0B809161
:10052000820181110EC084EF91E0A0E0B0E00817D5
:1005300019072A073B0750F480917B011F910F9107
:10054000089584E690E0A0E0B0E0F1CF40937C0114
:1005500050937D0160937E0170937F011092820120
:1005600080910D0190910E018130910599F4809157
:100570008401882389F010920E0110920D011092CF
:10058000910110929001109283010E949501809335
:100590007B01D4CF892BC9F30E940B02F8CFCF92F5
:1005A000DF92EF92FF92809188019091890167E03C
:1005B0000E9412016B017C010E946E02C82A8D2DDF
:1005C0000E9445010E94F5008C2D0E94F500E0FE7E
:1005D00007C05C9AFF90EF90DF90CF900C94EA00F8
:1005E0005C98F8CFCF93DF93CDB7DEB72D970FB6DA
:1005F000F894DEBF0FBECDBF0E94EA00CE01019687
:100600000E9425076AE070E00E945B1270938B01E4
:1006100060938A0180918A0190918B019C0150E046
:1006200040E02A873B874C875D87CA01B9010E9459
:10063000680F8BE690E00E94520F80918A019091A2
:100640008B012D960FB6F894DEBF0FBECDBFDF91A4
:10065000CF9108958F929F92BF92CF92DF92EF92A7
:10066000FF920F931F93CF93DF93CDB7DEB72A97F7
:100670000FB6F894DEBF0FBECDBF7C01D62E8091A1
:100680007A018F5F80937A01843121F410927A018C
:100690000E949300BFB6F8948FE091E09A8389831B
:1006A0002AE030E0C701B9010E945B1243E0880FE5
:1006B000991F4A95E1F7885E9E4F9C838B83CB01FF
:1006C000B9010E945B1253E0880F991F5A95E1F718
:1006D000885E9E4F9E838D83C70164E670E00E9412
:1006E0005B12CB01B9010E945B1263E0880F991F76
:1006F0006A95E1F7885E9E4F98878F83C70168EE01
:1007000073E00E945B12CB01B9010E945B1273E09F
:10071000880F991F7A95E1F7885E9E4F9A8789879F
:1007200081E0D11080E0C82ED12CCC0CDD1C81E002
:1007300090E08C0F9D1FC80ED91EF12CE12C4601B4
:10074000D6011696ED91FC911797EE0DFF1D0081D5
:1007500010E01496ED91FC911597EE0DFF1D208190
:1007600030E01296ED91FC91EE0DFF1D408150E0BE
:10077000D401ED91FC91EE0DFF1D608170E081E0F0
:100780008E0D0E946A00BFEFEB1AFB0A88E0E816A4
:10079000F104B1F6BFBE2A960FB6F894DEBF0FBEC5
:1007A000CDBFDF91CF911F910F91FF90EF90DF9020
:1007B000CF90BF909F908F900895D82FC92F60E061
:1007C0008D2F9C2F0E942A032FEF89E698E121505C
:1007D00080409040E1F700C00000F1CF60E00E944F
:1007E0002A032FEF89E698E1215080409040E1F7FD
:1007F00000C000000E94D0002FEF81EE94E0215055
:1008000080409040E1F700C0000008958093B4005C
:1008100008958BE08093810082EE94E090938900AC
:100820008093880082E080936F000895539A83E25A
:100830008093B00081E08093B1001092B4000895DD
:100840000E942B0FE1ECF0E080818F7E808382E0BC
:100850008AB9549A0E94C0100E946C110E94090427
:100860000E9416040E94E600789408959091010178
:1008700080910101953610F4843128F480910001B3
:100880008195809300018091000190910101890F71
:1008900080930101809101018093B40008951F921B
:1008A0000F920FB60F9211242F933F934F935F93A4
:1008B0006F937F938F939F93AF93BF93EF93FF9328
:1008C0000E9436040E94CF02FF91EF91BF91AF9139
:1008D0009F918F917F916F915F914F913F912F9158
:1008E0000F900FBE0F901F901895E4E8F1E09281F1
:1008F00093839181928390819183808308950F9354
:100900001F930097B9F00197B0E0A0E050E040E0FD
:100910008C019D010027012B022B032B39F0B6958A
:10092000A795979587954F5F5F4FF2CF342F22277A
:10093000822B932B1F910F910895CF93DF93D82F84
:10094000C62F809117010E94C6108D2F0E9428117A
:100950008C2F0E942811DF91CF910C941C111F93B2
:10096000CF93DF93182FEB01809117010E94C610DF
:10097000812F0E9428118D2F0E9428118C2F0E94F8
:100980002811DF91CF911F910C941C11FF920F93AE
:100990001F93CF93DF93F82EEA01162F072F809134
:1009A00017010E94C6108F2D0E942811802F0E94CF
:1009B0002811812F0E9428118D2F0E9428118C2F21
:1009C0000E942811DF91CF911F910F91FF900C94FD
:1009D0001C11CF93C82F809117010E94C6108C2F35
:1009E0000E9428118091170181600E941A110E94B3
:1009F0004F11C82F0E941C118C2FCF910895CF93B7
:100A0000DF93C82F809117010E94C6108C2F0E947F
:100A100028118091170181600E941A110E943F11D4
:100A2000C82FD0E0DC2FCC270E944F11C82B0E948A
:100A30001C11CE01DF91CF910895CF92DF92EF92FA
:100A4000FF92CF93DF9300D000D0CDB7DEB789837C
:100A5000809117010E94C61089810E9428118091FF
:100A6000170181600E941A110E943F1190E0B0E0CE
:100A7000A0E0F82EEE24DD24CC240E943F11E82AC9
:100A80000E943F1189830E944F11C82AD701C601D5
:100A90002981922B89839A83AB83BC830E941C118A
:100AA00069817A818B819C810F900F900F900F90BC
:100AB000DF91CF91FF90EF90DF90CF900895FF925C
:100AC0000F931F93CF93DF93C82FF62E072F142F6A
:100AD000809117010E94C6108C2F0E94281111507E
:100AE00040F0CF2DD02F89910E942811FC2E0D2F80
:100AF000F6CFDF91CF911F910F91FF900C941C11B5
:100B0000EF92FF920F931F93CF93DF93082FEB0188
:100B1000142F809117010E94C610802F0E94281167
:100B20008091170181600E941A11112379F07E01D2
:100B30008FEFE81AF80A123030F00E943F118883D4
:100B40001150E701F2CF0E944F11F9CFDF91CF9101
:100B50001F910F91FF90EF900C941C11CF93C82F11
:100B6000682F66958AE80E949D04C0931701CF9173
:100B700008958091170108950F931F93CF93DF93EA
:100B800000D000D000D0CDB7DEB78B018E839D831F
:100B900020E030E0A90169831A838B839C836981FB
:100BA0007A818B819C810E94B31287FD2FC028EB34
:100BB0003EEF4FEF53E469817A818B819C810E94E3
:100BC000711318161CF120E030E040E053E4698115
:100BD0007A818B819C810E94761369837A838B83CF
:100BE0009C8369817A818B819C810E94B81284E404
:100BF0000E94AF0481E026960FB6F894DEBF0FBEC8
:100C0000CDBFDF91CF911F910F91089580E0F3CF79
:100C1000CF93DF9300D000D0CDB7DEB784E40E943D
:100C2000FF049C0150E040E029833A834B835C83BE
:100C3000CA01B9010E94E71220E030E040E05CE325
:100C400069837A838B839C8369817A818B819C8180
:100C50000E94761369837A838B839C8369817A816E
:100C60008B819C810F900F900F900F90DF91CF910F
:100C700008959C0180E52115310521F021303105D1
:100C800031F480E70E94E9048F5F880F08958FEFA9
:100C90000895CF92DF92EF92FF926B017C0161E0A9
:100CA00080E80E949D0461E08FEF0E949D0460E057
:100CB00080E00E949D046091960181E90E949D045C
:100CC00061E080E00E949D0460E08FEF0E949D043F
:100CD00060E080E80E949D0462E0C114D104E10458
:100CE000F10491F088EF0E94FF04DC01892B31F0C0
:100CF000A70196010E9491126B017C01B701A60128
:100D000084E00E94C60464E080E0FF90EF90DF90F2
:100D1000CF900C949D0461E080E00E949D0461E00E
:100D20008FEF0E949D0460E080E00E949D0460E0DF
:100D300081E90E949D0461E080E00E949D0460E0E2
:100D40008FEF0C949D04EF92FF920F931F93CF931C
:100D5000DF93CDB7DEB760970FB6F894DEBF0FBE56
:100D6000CDBF7C010E94751170939801609397012B
:100D700083E10E94E904877079F580919A0190914E
:100D80009B01892BA9F30E9475116D877E878F8740
:100D9000988B80919701909198012D853E85281B15
:100DA000390BC90120919A0130919B01281739070D
:100DB000F8F681E0809399010FEF1FEFC80160966C
:100DC0000FB6F894DEBF0FBECDBFDF91CF911F915C
:100DD0000F91FF90EF900895E114F10449F48EE132
:100DE0000E94FF048C0161E08BE00E949D04E6CF2D
:100DF0004CE0BE016F5F7F4F84E10E9480058981D6
:100E000090E023E0959587952A95E1F7F701808793
:100E10008B819C81982789279827978386838F8148
:100E200098859827892798279383828389859A852F
:100E3000982789279827958384830B851C851027FD
:100E40000127102711830083CECFCF93DF9300D0EB
:100E500000D000D0CDB7DEB78E839D8361E080E8FF
:100E60000E949D0461E08FEF0E949D0460E080E09D
:100E70000E949D046091960181E90E949D0461E0B9
:100E800080E00E949D0460E08FEF0E949D0460E07E
:100E900080E80E949D0461E080E00E949D040E9421
:100EA0007511709398016093970180E00E94E904A6
:100EB00080FF2AC080919A0190919B01892BA9F310
:100EC0000E94751169837A838B839C83809197013B
:100ED0009091980129813A81281B390BC9012091F1
:100EE0009A0130919B0128173907F8F681E0809329
:100EF00099018FEF9FEF26960FB6F894DEBF0FBED5
:100F0000CDBFDF91CF9108958E819D8126960FB63A
:100F1000F894DEBF0FBECDBFDF91CF910C94A30636
:100F20008091990110929901089590939B0180936B
:100F30009A01089580919A0190919B010895EF92F2
:100F4000FF920F931F93CF93DF9300D000D00F92A7
:100F5000CDB7DEB77C018B0161E080E80E949D0483
:100F600061E08FEF0E949D0460E080E00E949D049C
:100F700066E08FEF0E949D0483E80E94E904682FD9
:100F8000646083E80E949D0467E08FEF0E949D04E7
:100F900061E081E80E949D0461E080E80E949D0478
:100FA0006BE684E90E949D0460E083E80E949D0452
:100FB0000E947511709398016093970183E80E94D5
:100FC000E9048D83811129C080919A0190919B0140
:100FD000892BA1F30E94751169837A838B839C838B
:100FE000809197019091980129813A81281B390BB2
:100FF000C90120919A0130919B0128173907F0F619
:101000008D810F900F900F900F900F90DF91CF91E7
:101010001F910F91FF90EF90089561E083E80E9487
:101020009D0482E90E94E904982F9F77F70190833D
:10103000881F8827881FF801808360E081E80E946C
:101040009D0466E08FEF0E949D0483E80E94E904FE
:10105000682F6B7F83E80E949D0461E08FEF0E9400
:101060009D0461E080E00E949D0460E08FEF0E949B
:101070009D0460E080E80E949D04F1E0FD83C0CF04
:10108000CF93DF93EC0181E00E94E90484FB992770
:1010900090F9988383FB992790F99A8382FB99278B
:1010A00090F9998386FB992790F99B83881F88275D
:1010B000881F8C83DF91CF9108954F925F926F923A
:1010C0007F928F929F92AF92BF92EF92FF920F9377
:1010D0001F93CF93DF93CDB7DEB72A970FB6F8945F
:1010E000DEBF0FBECDBF8C0169877A8790E080E0BC
:1010F0000E94390690E0A985BA858D939C9386E479
:101100000E94E904E82EF12CBFEFEB1AFB0AE985F7
:10111000FA85F582E482A081B0E020E03FE24AE374
:1011200050E00E949112DC01CB018C509E4FAF4FDA
:10113000BF4F89839A83AB83BC8338EE832E33E021
:10114000932EA12CB12CBC01CD01A50194010E94CC
:101150006F12D7010E949C126D837E838F839887C4
:1011600040ED442E47E0542E612C712C69817A8128
:101170008B819C81A30192010E946F128D819E81BF
:10118000AF81B885820F931FA41FB51F8D839E83E7
:10119000AF83B887BC01CD01A50194010E946F12F5
:1011A000A985BA851A962D933D934D935C931D970F
:1011B00081E50E94FF04E82EF12C02C0EE0CFF1C1A
:1011C0009A95E2F7BFEFEB1AFB0AE985FA85F782F9
:1011D000E682A081B0E020E03FE24AE350E00E94D6
:1011E0009112DC01CB018C509E4FAF4FBF4F8983D2
:1011F0009A83AB83BC83BC01CD01A50194010E94FD
:101200006F12D7010E9491126D837E838F8398871E
:1012100069817A818B819C81A30192010E946F1266
:101220008D819E81AF81B885820F931FA41FB51F4A
:101230008D839E83AF83B887BC01CD01A501940146
:101240000E946F12A985BA851E962D933D934D93EA
:101250005C93519780E70E94E9048F5F880F90E0CC
:10126000E985FA859383828381E70E94FF04292F11
:1012700090E002C0880F991F2A95E2F70196A98590
:10128000BA8519969C938E931897F801238122238F
:1012900051F016962D913C911797821B930B19963E
:1012A0009C938E931897E985FA85A281B0E020E09F
:1012B0003FE24AE350E00E949112DC01CB018C50E6
:1012C0009E4FAF4FBF4F89839A83AB83BC8328EE79
:1012D000822E23E0922EA12CB12CBC01CD01A501C0
:1012E00094010E946F12E985FA85A085B1850E945C
:1012F00091126D837E838F83988769817A818B8138
:101300009C8120ED37E040E050E00E946F128D811B
:101310009E81AF81B885820F931FA41FB51FBC01AA
:10132000CD01A50194010E946F12A985BA8552963C
:101330002D933D934D935C9355972A960FB6F89451
:10134000DEBF0FBECDBFDF91CF911F910F91FF90F8
:10135000EF90BF90AF909F908F907F906F905F9035
:101360004F9008958F929F92AF92BF92CF92DF924B
:10137000EF92FF921F93CF93DF93CDB7DEB7A39782
:101380000FB6F894DEBF0FBECDBF4B015C0120E26B
:1013900082162EE49206A104B10408F4CCC0CE015A
:1013A00047960E944008BE016F5F7F4FCE0147966F
:1013B0000E945D088F89882309F4ABC08B859C85CA
:1013C000AD85BE858A5C944FAF4FBF4F298D2223D8
:1013D00009F4A4C04B855C856D857E854E545D4FB8
:1013E0006F4F7F4F440F551F661F771F840F951F48
:1013F000A61FB71F1A8D112361F04F85588969897F
:101400007A894C565D4F6F4F7F4F840F951FA61FF3
:10141000B71F2B8D222309F469C06C017D0126E2E0
:10142000C20E22E0D21EE11CF11C8C149D04AE04FD
:10143000BF0408F480C0AB81B0E020E03FE24AE3A3
:1014400050E00E949112DC01CB018C509E4FAF4FB7
:10145000BF4F8C8F9D8FAE8FBF8FA50194012C192C
:101460003D094E095F09A8EEB3E00E94911268A3FE
:1014700079A38AA39BA36C8D7D8D8E8D9F8D20ED8E
:1014800037E040E050E00E946F1288A199A1AAA124
:10149000BBA1820F931FA41FB51F88A399A3AAA362
:1014A000BBA36C8D7D8D8E8D9F8D28EE33E040E04B
:1014B00050E00E946F1268A179A18AA19BA10E94AD
:1014C0006F12C901112321F08F819885820F931F1C
:1014D0000E947F04BC0181E70E94AF0480929201C8
:1014E00090929301A0929401B092950181E0A3960D
:1014F0000FB6F894DEBF0FBECDBFDF91CF911F9125
:10150000FF90EF90DF90CF90BF90AF909F908F9023
:10151000089588EE98E0A0E0B0E058CF288D22230F
:1015200009F468CF4B855C856D857E854C565D4F93
:101530006F4F7F4F5BCF80E0DACF0F931F93CF9336
:10154000DF93CDB7DEB76B970FB6F894DEBF0FBE53
:10155000CDBFCE0147960E944008BE016F5F7F4F0E
:10156000CE0147960E945D088F89882309F44DC0FB
:101570006B857C858D859E856C57724F8F4F9F4FF5
:10158000298D222309F446C00B851C852D853E85B7
:101590000E541D4F2F4F3F4F000F111F221F331F9F
:1015A000600F711F821F931F2A8D222361F00F8508
:1015B000188929893A890C561D4F2F4F3F4F600FCC
:1015C000711F821F931F2B8D222361F00B891C89B1
:1015D0002D893E890A5D1D4F2F4F3F4F600F711FB0
:1015E000821F931F609392017093930180939401E3
:1015F000909395016B960FB6F894DEBF0FBECDBFEA
:10160000DF91CF911F910F91089566E37BE080E019
:1016100090E0B6CF288D222339F20B851C852D85CD
:101620003E850C561D4F2F4F3F4FBACFCF93DF93C0
:1016300000D000D00F92CDB7DEB7682F616080E098
:101640000E949D040E947511709398016093970108
:1016500083E10E94E90487708D83811125C0809108
:101660009A0190919B01892B99F30E9475116983CE
:101670007A838B839C838091970190919801298133
:101680003A81281B390BC90120919A0130919B01A5
:1016900028173907E8F68D810F900F900F900F9063
:1016A0000F90DF91CF91089561E08BE00E949D043F
:1016B00060E080E00E949D0431E03D83ECCF0F9319
:1016C0001F93CF93DF93CDB7DEB72C970FB6F89467
:1016D000DEBF0FBECDBF882341F089E80E94E90438
:1016E000682F616089E80E949D0460E088E80E949C
:1016F0009D0461E080E80E949D0461E08FEF0E94FC
:101700009D0460E080E00E949D0481E90E94E9045C
:101710008093960161E080E00E949D0460E08FEF7D
:101720000E949D0460E080E80E949D0480E60E9483
:10173000E904682F626180E60E949D0460E270E027
:1017400084E40E94AF046FEF81E00E949D04BE011B
:10175000695F7F4FCE0108960E949F0781110CC0E0
:1017600080E02C960FB6F894DEBF0FBECDBFDF91A0
:10177000CF911F910F91089546E0BE016F5F7F4F9B
:1017800080EB0E94800561E08FEF0E949D0460E085
:101790008FE40E949D046CE28EE40E949D0460E050
:1017A0008FEF0E949D0464EB86EB0E949D049F8155
:1017B00091119CE0B88580E0A0E001E010E0482FA6
:1017C00046954695469550E021E030E02C0F3D1FB0
:1017D000240F351FF9012081682F6770891710F0D9
:1017E000BA139FC1E1E0F0E0EC0FFD1F4E0F5F1F49
:1017F000F80102C0EE0FFF1F6A95E2F7BF01609586
:101800002623FA0120838F5F8033C9F646E0BE01AC
:101810006F5F7F4F80EB0E945F0561E08FEF0E945A
:101820009D0460E080E00E949D0460E08FEF0E94D4
:101830009D0460E089E00E949D0460E080E10E94D8
:101840009D0460E081E10E949D0461E084E20E94C9
:101850009D046FEF85E20E949D0460E085E70E9491
:101860009D0461E08FEF0E949D046CE28EE40E9473
:101870009D0460E088E40E949D0460E280E30E9491
:101880009D0460E08FEF0E949D0469E080E30E9468
:101890009D0460E084E50E949D0464E081E30E9471
:1018A0009D0463E082E30E949D0463E880E40E945B
:1018B0009D0465E286E40E949D0460E080E60E944B
:1018C0009D0460E087E20E949D0466E080E50E943E
:1018D0009D0460E081E50E949D0466E982E50E9426
:1018E0009D0468E086E50E949D0460E387E50E9410
:1018F0009D0460E081E60E949D0460E082E60E9413
:101900009D0460E084E60E949D0460E085E60E94FC
:101910009D0460EA86E60E949D0461E08FEF0E94CC
:101920009D0462E382E20E949D0464E187E40E94D8
:101930009D046FEF89E40E949D0460E08AE40E94A8
:101940009D0460E08FEF0E949D046AE08AE70E9498
:101950009D0460E08BE70E949D0461E288E70E949D
:101960009D0461E08FEF0E949D0464E383E20E9486
:101970009D0460E082E40E949D046FEF84E40E9475
:101980009D0466E285E40E949D0465E086E40E9471
:101990009D0460E480E40E949D0466E08EE00E9465
:1019A0009D046AE180E20E949D0460E483E40E9459
:1019B0009D0460E08FEF0E949D0463E084E30E9439
:1019C0009D0464E485E30E949D0461E08FEF0E9422
:1019D0009D0464E081E30E949D0469E08BE40E9421
:1019E0009D0465E08CE40E949D0464E08DE40E9407
:1019F0009D0460E08FEF0E949D0460E084E40E94FB
:101A00009D0460E285E40E949D0468E087E40E94F2
:101A10009D0468E288E40E949D0460E087E60E94DD
:101A20009D0464E080E70E949D0461E081E70E94DC
:101A30009D046EEF82E70E949D0460E086E70E94AD
:101A40009D0460E087E70E949D0461E08FEF0E94A3
:101A50009D0461E08DE00E949D0460E08FEF0E9494
:101A60009D0461E080E80E949D0468EF81E00E948F
:101A70009D0461E08FEF0E949D0461E08EE80E946A
:101A80009D0461E080E00E949D0460E08FEF0E9471
:101A90009D0460E080E80E949D0464E08AE00E946A
:101AA0009D0484E80E94E904682F6F7E84E80E9408
:101AB0009D0461E08BE00E949D040E949D0A60935A
:101AC000920170939301809394019093950168EE35
:101AD00081E00E949D048091920190919301A091D8
:101AE0009401B0919501BC01CD010E94B20961E061
:101AF00081E00E949D0480E40E94160B882309F473
:101B00002FCE62E081E00E949D0480E00E94160BCF
:101B1000882309F425CE68EE81E00E949D0481E0CF
:101B200020CE30E002C0359527956A95E2F720FF78
:101B30006ACEAF5F68CE8F929F92AF92BF92CF92E4
:101B4000DF92EF92FF920F931F93CF93DF93CDB766
:101B5000DEB7A3970FB6F894DEBF0FBECDBF7C01F2
:101B6000162F062F06950150CE0147960E94400879
:101B7000BE016F5F7F4FCE0147960E945D08E11462
:101B8000F10409F0B3C0103109F4AEC040F41C30C8
:101B900009F4A8C060E31E3029F080E090C060E541
:101BA0001231D9F787E50E949D0468E086E50E941E
:101BB0009D04602F80E50E949D04A12FB0E020E0ED
:101BC0003FE24AE350E00E949112DC01CB018C50CD
:101BD0009E4FAF4FBF4F8C8F9D8FAE8FBF8FBC017D
:101BE000CD0128EE33E040E050E00E946F12490141
:101BF0005A016C8D7D8D8E8D9F8D20ED37E040E0FC
:101C000050E00E946F1269017A012F853889498955
:101C10005A89A8EEB3E00E949112DC01CB018C0D31
:101C20009D1DAE1DBF1D8C8F9D8FAE8FBF8FBC01C4
:101C3000CD01A50194010E946F12C9010E947F0489
:101C4000BC0181E50E94AF042B853C854D855E85F6
:101C5000A8EEB3E00E949112DC01CB018C0D9D1D1A
:101C6000AE1DBF1DBC01CD01A50194010E946F12E4
:101C7000213091E0390710F020E031E06FEF620F82
:101C800086E40E949D048091920190919301A0911D
:101C90009401B0919501BC01CD010E94B20981E08F
:101CA0000E94E904182F62E081E00E949D0480E018
:101CB0000E94160B612F81E00E949D0481E0A39693
:101CC0000FB6F894DEBF0FBECDBFDF91CF911F914D
:101CD0000F91FF90EF90DF90CF90BF90AF909F90CB
:101CE0008F90089568E15ECF60E45CCFEA94EF28BE
:101CF00009F053CF1C3009F4A0C0D8F4183051F1CA
:101D00001A3009F04ACF68E288E40E949D0468E036
:101D100087E40E949D0463E082E30E949D0469E0E1
:101D200080E30E949D0461E08FEF0E949D0460E2C9
:101D300026C01E3009F031CF68E488E40E949D047B
:101D400068E087E40E949D0463E082E30E949D04B2
:101D500067E0E6CF60E188E40E949D0468E087E4E4
:101D60000E949D0462E082E30E949D046CE080E397
:101D70000E949D0461E08FEF0E949D0460E380E378
:101D80000E949D0460E08FEF0E949D04602F80E719
:101D90000E949D04A12FB0E020E03FE24AE350E022
:101DA0000E949112DC01CB018C509E4FAF4FBF4F70
:101DB0008C8F9D8FAE8FBF8F2B893C894D895E891B
:101DC000A8EEB3E00E94911268A379A38AA39BA313
:101DD0006C8D7D8D8E8D9F8D20ED37E040E050E045
:101DE0000E946F1288A199A1AAA1BBA1820F931F83
:101DF000A41FB51F88A399A3AAA3BBA36C8D7D8D37
:101E00008E8D9F8D28EE33E040E050E00E946F12EF
:101E100068A179A18AA19BA10E946F12C9016A8D54
:101E2000662321F08F819885820F931F0E947F0483
:101E3000BC0181E70E94AF0426CF68E388E40E94DA
:101E40009D0468E087E40E949D0463E082E30E94B1
:101E50009D0468E065CFE4E6F0E080818D7F8083BB
:101E6000E1ECF0E08081886180831092C50088E019
:101E70008093C400E0ECF0E080818260808308956C
:101E80009091C00095FFFCCF8093C60008959FE914
:101E9000980F963010F48755089580538A3008F0D3
:101EA0008FEF08951F93CF93DF93EC01FE01149100
:101EB000112351F0812F0E94400F1A3019F48DE048
:101EC0000E94400F2196F2CFDF91CF911F9108958C
:101ED0008F929F92AF92BF92EF92FF920F931F93B8
:101EE000CF93DF93CDB7DEB72E970FB6F894DEBF52
:101EF0000FBECDBF6B877C878D879E878E010F5F5E
:101F00001F4F78018AE0882E912CA12CB12C8B8553
:101F10009C85AD85BE85892B8A2B8B2B19F4E01609
:101F2000F10681F46B857C858D859E85A5019401E4
:101F30000E946F12D8016D938D012B873C874D87CE
:101F40005E87E5CFF80182918F01805D0E94400F8E
:101F5000E016F106B9F72E960FB6F894DEBF0FBE65
:101F6000CDBFDF91CF911F910F91FF90EF90BF9068
:101F7000AF909F908F9008958F929F92AF92BF9253
:101F8000CF92DF92EF92FF92CF93DF9300D000D0F9
:101F900000D0CDB7DEB76B017C01842F90E09E832B
:101FA0008D8388248394912C042E02C0880C991C64
:101FB0000A94E2F791E0891A9108092C000CAA080A
:101FC000BB08D701CB0104C0B695A7959795879517
:101FD0004A95D2F7BC01CD010E94680F8EE20E94A3
:101FE000400FA50194012C213D214E215F21211597
:101FF000310541055105F1F0AAE0B0E00E949112CF
:1020000069837A838B839C83DC01CB010D8004C0C0
:10201000B695A795979587950A94D2F7805D0E940B
:10202000400F29813A814B815C81282139214A2145
:102030005B21DDCF26960FB6F894DEBF0FBECDBF75
:10204000DF91CF91FF90EF90DF90CF90BF90AF9056
:102050009F908F900895CF92DF92EF92FF92CF934F
:10206000DF936B017C01842F8150990BEC01CC0F25
:10207000DD1FCC0FDD1FD7FD16C0D701C6010C2E0A
:1020800004C0B695A795979587950A94D2F78F7057
:102090009927AA27BB2788599E4FFC0180810E945F
:1020A000400F2497E8CFDF91CF91FF90EF90DF9022
:1020B000CF900895EF92FF920F931F93CF93DF93EA
:1020C000CDB7DEB72A970FB6F894DEBF0FBECDBFEF
:1020D0008C017B0119821A821B821C8289819A8160
:1020E0008E159F0508F03FC021E1E216F10498F03B
:1020F0008F709927892B79F484E790E00E94520F22
:1021000044E069817A818B819C810E942B1081E758
:1021100090E00E94520F09871A87A985BA858D9190
:10212000BA87A987282F30E050E040E02D833E8316
:102130004F83588742E06D817E818F8198850E9410
:102140002B108FE690E00E94520F89819A81AB811B
:10215000BC810196A11DB11D89839A83AB83BC8389
:1021600009851A85BBCF2A960FB6F894DEBF0FBE3D
:10217000CDBFDF91CF911F910F91FF90EF90089508
:102180001092B90082E08093B800089594EA909389
:10219000BC002FEF3FEF2150310911F481E0089589
:1021A0009091BC0097FFF7CF9091B900987F98303D
:1021B00011F0903199F78093BB0084E88093BC00C4
:1021C0008FEF9FEF019751F32091BC0027FFFACFCB
:1021D0009091B900987F983119F081E0903411F412
:1021E00080E00895089524EA34E844E92093BC008F
:1021F0009091BC0097FFFCCF9091B900987F9830E8
:1022000011F0903199F78093BB003093BC0090910E
:10221000BC0097FFFCCF9091B900987F903211F0ED
:10222000983539F44093BC009091BC0094FDFCCFEC
:10223000DDCF08950C94C61084E98093BC008FEF25
:102240009FEF019721F02091BC0024FDFACF089563
:102250008093BB0084E88093BC008FEF9FEF0197D1
:1022600061F02091BC0027FFFACF9091B900987FD0
:1022700081E0983209F480E0089581E0089584ECCB
:102280008093BC008FEF9FEF019739F02091BC0045
:1022900027FFFACF8091BB00089580E0089584E87D
:1022A0008093BC008FEF9FEF019739F02091BC0025
:1022B00027FFFACF8091BB00089580E00895CF9367
:1022C000C0E08C2F880F0E94C6100E941C11CF5FA7
:1022D000C038B9F7CF91089582E084BD95E095BDEF
:1022E0009AE797BD80936E000895CF93DF9300D057
:1022F00000D0CDB7DEB78FB7F89420919C01309114
:102300009D0140919E0150919F0129833A834B8307
:102310005C838FBF69817A818B819C810F900F9044
:102320000F900F90DF91CF9108951F921FB61F92CB
:1023300011248F939F93AF93BF9380919C019091B1
:102340009D01A0919E01B0919F010F96A11DB11D0D
:1023500080939C0190939D01A0939E01B0939F0157
:102360008091A0019DE5980F9D3750F49093A001B6
:10237000BF91AF919F918F911F901FBE1F90189595
:1023800080528093A00180919C0190919D01A09129
:102390009E01B0919F010196A11DB11D80939C01EA
:1023A00090939D01A0939E01B0939F01E1CF00D037
:1023B00000D0CDB7DEB70E94200480E00E945F0B02
:1023C0000E9493006DEC7CEC8CEC9DE30E94BC05BC
:1023D00062E190E080E00E949B0D6EE081E090E081
:1023E0000E949B0D60E271EA87E090E00E94B209D2
:1023F00080E090E00E940B1490938D0180938C01FB
:1024000080918C0190918D010E94EE0384E6F82E5C
:1024100004E610E00E9436040E94F2029C018160F2
:102420008F3F9F4129F48CE5820F0E947504F2CF03
:1024300080918C0190918D01AC01421B530BF49E55
:10244000C001F59E900D11246EEB70E00E945B12AE
:10245000709389016093880180918801909189012E
:102460008536910520F010938901009388018091B1
:102470008801909189019C0150E040E029833A83D2
:102480004B835C83CA01B9010E94680F88E690E023
:102490000E94520F809188019091890161E00E9411
:1024A0002A033FEF41EE54E0315040405040E1F705
:1024B00000C00000AFCFAA1BBB1B51E107C0AA1F81
:1024C000BB1FA617B70710F0A61BB70B881F991FD5
:1024D0005A95A9F780959095BC01CD010895A1E288
:1024E0001A2EAA1BBB1BFD010DC0AA1FBB1FEE1F8E
:1024F000FF1FA217B307E407F50720F0A21BB30BD9
:10250000E40BF50B661F771F881F991F1A9469F754
:1025100060957095809590959B01AC01BD01CF01B0
:1025200008950E94A412A59F900DB49F900DA49FA2
:10253000800D911D11240895B7FF0C9491120E94F3
:102540009112821B930B0895A29FB001B39FC0010B
:10255000A39F700D811D1124911DB29F700D811DCF
:102560001124911D08950E94241308F481E0089518
:102570000E94501388F09F5798F0B92F9927B751B0
:10258000B0F0E1F0660F771F881F991F1AF0BA9517
:10259000C9F714C0B13091F00E946A13B1E00895F8
:1025A0000C946A13672F782F8827B85F39F0B93FEA
:1025B000CCF3869577956795B395D9F73EF49095CA
:1025C0008095709561957F4F8F4F9F4F0895E89448
:1025D00009C097FB3EF490958095709561957F4F6B
:1025E0008F4F9F4F9923A9F0F92F96E9BB27939519
:1025F000F695879577956795B795F111F8CFFAF429
:10260000BB0F11F460FF1BC06F5F7F4F8F4F9F4F59
:1026100016C0882311F096E911C0772321F09EE8B7
:10262000872F762F05C0662371F096E8862F70E01D
:1026300060E02AF09A95660F771F881FDAF7880FF7
:102640009695879597F90895990F0008550FAA0B4D
:10265000E0E8FEEF16161706E807F907C0F01216B5
:102660001306E407F50798F0621B730B840B950BB8
:1026700039F40A2661F0232B242B252B21F408950D
:102680000A2609F4A140A6958FEF811D811D0895AA
:1026900057FD9058440F551F59F05F3F71F0479513
:1026A000880F97FB991F61F09F3F79F087950895F8
:1026B000121613061406551FF2CF4695F1DF08C017
:1026C000161617061806991FF1CF86957105610534
:1026D00008940895E894BB2766277727CB0197F9DC
:1026E00008950E94241308F48FEF08950E9489131F
:1026F0000C94FA130E94EC1338F00E94F31320F0AC
:10270000952311F00C94E3130C94E91311240C9409
:102710006B130E94481370F3959FC1F3950F50E01F
:10272000551F629FF001729FBB27F00DB11D639F83
:10273000AA27F00DB11DAA1F649F6627B00DA11D29
:10274000661F829F2227B00DA11D621F739FB00DCF
:10275000A11D621F839FA00D611D221F749F33273F
:10276000A00D611D231F849F600D211D822F762FD8
:102770006A2F11249F5750409AF0F1F088234AF0B5
:10278000EE0FFF1FBB1F661F771F881F9150504021
:10279000A9F79E3F510580F00C94E3130C946B1342
:1027A0005F3FE4F3983ED4F3869577956795B795A8
:1027B000F795E7959F5FC1F7FE2B880F911D9695C2
:1027C000879597F9089597F99F6780E870E060E032
:1027D00008959FEF80EC089500240A9416161706BA
:1027E00018060906089500240A9412161306140602
:1027F00005060895092E0394000C11F4882352F065
:10280000BB0F40F4BF2B11F460FF04C06F5F7F4F1C
:102810008F4F9F4F0895A8E1B0E042E050E00C9444
:102820001314DC01CB01FC01F999FECF06C0F2BD07
:10283000E1BDF89A319600B40D9241505040B8F77E
:062840000895F894FFCF9B
:102846000114013F065B4F666D7D077F6F01000037
:10285600C6CC183066C600527CC6CEDEF6E67C00D4
:10286600307030303030FC0078CC0C3860CCFC0056
:1028760078CC0C380CCC78001C3C6CCCFE0C1E00C2
:10288600FCC0F80C0CCC78003860C0F8CCCC7800D2
:10289600FCCC0C183030300078CCCC78CCCC78001E
:1028A60078CCCC7C0C187000303132333435363766
:0A28B6003839414243444546000012
:00000001FF
